:020000040800F2
:10000000D846002001010008CD130008CD130008D8
:10001000CD130008CD130008CD1300080000000028
:10002000000000000000000000000000CD130008E8
:10003000CD13000800000000CD130008FD230008C8
:100040001B0100081B0100081B0100081B01000820
:100050001B0100081B0100081B0100081B01000810
:100060001B0100081B0100081B010008510B0008C0
:100070006D0B0008890B0008ED0B0008110C00083F
:10008000350C0008990C00081B0100081B01000832
:10009000A55300081B0100081B0100081B010008F4
:1000A0001B0100081B0100081B0100081B010008C0
:1000B0001B0100081B0100081B0100081B010008B0
:1000C0001B0100081B0100081B0100081B010008A0
:1000D0001B01000835290008292C00081B01000815
:1000E0001B0100081B0100081B010008DFF80CD0F1
:1000F00000F02AF800480047A5550008D84600201F
:100100000648804706480047FEE7FEE7FEE7FEE7B1
:10011000FEE7FEE7FEE7FEE7FEE7FEE7D124000884
:10012000ED00000840EA01039B0703D009E008C97D
:10013000121F08C0042AFAD203E011F8013B00F8AC
:10014000013B521EF9D27047064C074D06E0E068AD
:1001500040F0010394E8070098471034AC42F6D30E
:10016000FFF7C8FFE05C0008005D000870B5174E9F
:10017000F06A804710F0020F08BF70BD144C25686C
:10018000706A804761682844411AB1F5806FA4BF46
:100190006068084415DA0029D8BF70BD6068C0F3F4
:1001A0000900C0F5806081420DDC6068094AC0F337
:1001B0000900104403F08AFD0028C6BF61680844A6
:1001C00070BD606070BD0146EFE70000D45A0008C2
:1001D00060000020D63200202DE9F04F02788FB069
:1001E000A2F180031F2B04D800F098FC0FB0BDE8EB
:1001F000F08F01F8012B0F4610F8011B05461F294F
:1002000080F07D84DFE811F01F005E007A008E0030
:10021000CF01DD018F037B04400497009E007B0427
:100220007B047B047B047B04A5000D0138014B019A
:10023000A601C001C90155045A045F04640469049D
:10024000720457016D042978781C0024062933D0E4
:1002500006DC052930D2DFE801F02F2F2F2F0E000A
:10026000FD2918D002DCF02926D10AE0FE2920D091
:10027000FF2918D020E006242246FB49FFF752FF51
:100280001AE0FA490968002918BF202141F0150138
:100290000170012410E00021102201704270817071
:1002A000C170042408E04021017000214170022443
:1002B00002E04021017001243C700FB004F10210F3
:1002C000BDE8F08F287830B101280BD0FF203870BE
:1002D000E74800F00FBCE7496878096800F00100C2
:1002E000096805E0E3496878096800F00100496899
:1002F000884700203870DE4800F0FCBB2C78002CCA
:1003000008BF012408D0012C18BF002404D03C7081
:100310004FF0011000F0EEBBD7490120087001F04A
:10032000F1F8F4E7D4480024047001F0D9F83C70E7
:10033000012000F0DFBB288800EB4000C000401E19
:10034000FDD1D6E70120787000203870022000F03F
:10035000D1BB2E786C786879D5F8025014F0010F73
:1003600060F31F6507D016F0010F4FF400500CBF6B
:10037000C249C349086014F0020F07D016F0020FFB
:100380004FF480400CBFBD49BD49086014F0800F98
:100390001CBFF00905F0C4FA95B30123B94A5068AF
:1003A000B94DA5F1040C00BF14F0010F04D0296869
:1003B000C1F34031B1421FD114F0020F06D0DCF876
:1003C0000010C1F38031B1EB560F15D114F0040FBA
:1003D00018BF5FEA96010FD114F0200F18BF5FEA33
:1003E000561109D114F0800F0AD0DCF8001001F08A
:1003F0000101B1EBD61F03D05168091A8B42D3D843
:10040000A148006800F40051A0480268006802F4A6
:1004100080421143490B41EAC01038709C4800F0FB
:1004200069BBEA78286862F31F6088B1994A824202
:1004300013D8914A0120507050608F480278022AE8
:1004400008BF491C416000203870934800F052BB3F
:10045000FF203870904800F04DBB874A0021517052
:100460008E490144B1FBF0F0022891BF01218C4973
:10047000A1FB00104108E0E72C78691C002C08BFA4
:100480004FF48074204601F01DFE00203870E01DFE
:10049000C0080121401C41EA004000F02BBB287835
:1004A00000F003014A1C7449C0F380000A764876C4
:1004B000002038702CE7002007F8010B012615F802
:1004C000010BB146B0F1010A28BFDFF8D8B13DD326
:1004D00015F8014B14F03F0008BF4020C01D4FEA43
:1004E000D008DBF8000014F0800F20F0706014BF1B
:1004F00040F0006040F04070CBF800004FF48040C6
:1005000014BF5F495D4908603A462946204601F01C
:10051000C7F9BAF1000F0BD1DBF8000020F07060D2
:1005200040F04070CBF8000054494FF48040086020
:1005300014F0800F03D04744C144761C03E006EB5F
:1005400008004544461CBAF1010AC1D249EA0640F6
:1005500000F0D0BAFF203870012215F8010B1346C5
:1005600000280DDD15F8011B11F03F0108BF4021E7
:10057000C91DC9080D4411444A1C401E0028F1DC65
:1005800043EA024000F0B6BA2878FF213970012111
:10059000401C41EA004000F0ADBAFF2038704FF037
:1005A000011000F0A7BA344829780173B5F801109A
:1005B0000182B5F803104182002038703A4800F0FB
:1005C00099BA2D4E3078012818D02A466D1C15F89E
:1005D000010B50B115F8011B11F0020F02D011F000
:1005E000100F00D02D1D401EF4D1002038707870FF
:1005F000A81A022141EA004000F07CBACDE9047556
:100600000020B91C294F0B900091387008900A9077
:1006100095F80180AD1CB8F1000F00F0798100BFA2
:1006200015F8019B19F0020F73D00899D9B1348ADB
:1006300009F0110001280BD101A9484601F0A2F9E7
:1006400002280DD1641E63D339780029F4D0CBE0A1
:1006500001A90E2001F096F9022829D00021089165
:10066000012855D12CE03CE0E85900080C0000209E
:10067000010002000800002008010020140C0140C5
:10068000100C0140001000E00C0C0140080C01406F
:100690000100060080A8120101000400FF5025029D
:1006A000ABAAAAAA040C014001000500200000200A
:1006B000641E02D339780029CAD00021089193E042
:1006C000DDE900120A70019A0099120A01F8012F5F
:1006D000019A120C01F8012F019A120E4A70891C1E
:1006E000009119F0100F40D0E87855F804ABB6F837
:1006F00012B060F31F6A19F0010F18BF348A0FD0CF
:100700000021484601F03EF9022803D0012807D015
:100710006AE07CE0641E67D339780029F0D063E09A
:10072000348A01A9484601F02DF9022802D0012897
:1007300006D010E0641E0ED339780029F1D00AE00B
:100740007169019A1140514505D0BBF1010B02D3EB
:1007500039780029E4D07169019A1140514518BFD8
:1007600040F0100001283FD137E0348A19F0010F22
:1007700013D0089989BB0021484601F003F90228EB
:1007800005D0012804BF0121089126D02CE0641E69
:100790002AD339780029EED026E001A9484601F095
:1007A000F1F8022802D0012806D01DE0641E1BD3F8
:1007B00039780029F1D017E0DDE900120A70019ABA
:1007C0000099120A01F8012F019A120C01F8012F69
:1007D000019A120E4A70891C009100210A910B990E
:1007E000491C0B913978D9B3B8F1000F0CD000BF78
:1007F00015F8011B11F0020F02D011F0100F00D0FC
:100800002D1DB8F10108F3D101284BD080E00898E4
:10081000002818BF348A1AD001A90E2001F0B2F8BE
:1008200002282ED00128DFD1DDE9000101700199F5
:100830000098090A00F8011F0199090C00F8011F2E
:100840000199090E4170801C009000200890E97801
:1008500055F8040B19F0200F61F31F60019000E0C0
:100860001BE01ABF70610120348AB8D101A9484643
:1008700001F088F802280AD0012808BF0121ADD074
:10088000B2E7641EB0D339780029C5D0ACE7641E46
:10089000AAD339780029E9D0A6E7B8F101087FF496
:1008A000BFAEB1E70899002918BF348A20D001A94A
:1008B0000E2001F067F8022802D0012806D027E0B8
:1008C000641E25D339780029F1D021E0DDE900123A
:1008D0000A70019A0099120A01F8012F019A120C6C
:1008E00001F8012F019A120E4A70891C00910FE045
:1008F0000A99002918BF348A0AD000210E2001F07D
:1009000041F8022804D1641E02D339780029F4D0BA
:10091000049A0B9911700499487004990098411A2F
:100920000598281A66E6DFF8E8A109959AF800000C
:1009300001280DD0002038707870B8700320099914
:10094000C97811F0020F18BF40F4802070D192E0F6
:1009500070494FF000084046FE1C81F800806C1C76
:1009600034F8025B05B314F8019B19F0020F04BFC1
:10097000A5F1010BDFF89CA149D019F0010F1CBFB4
:10098000BAF81040DFF88CB10FD00021484600F0D3
:10099000F9FF022802D0012807D064E0641E62D368
:1009A0009BF800100029F0D05DE06D1E24BFD346F7
:1009B000DFF860A157D325B919F0010F18BF4FF028
:1009C0000E09BBF8104007A9484600F0DBFF0228DB
:1009D00002D0012807D046E0641E44D39AF80010E4
:1009E0000029F0D03FE0079906F8011B079908F1AC
:1009F0000108090A06F8011B0799090C06F8011BF2
:100A00000799090E06F8011B6D1ED4D22BE0E07881
:100A100054F8041B60F31F613D480791058A07A93C
:100A2000484600F0AFFF022803D0012808D01AE0A2
:100A300060E06D1E17D39AF800100029EFD012E085
:100A400008F10108BBF1010BE1D23148048A002111
:100A50000E2000F097FF022805D1641E03D39AF8F8
:100A600000100029F3D087F800804FEA1821797030
:100A7000B870F01B63E709994FF48022B1F80110B8
:100A800002EB8141084335E021480078012818BF76
:100A9000FF2002D0387020482CE02979D5F80100D9
:100AA00061F31F6000906946002000F06BFF00209A
:100AB000F0E73946284601F081FC1BE0394628461C
:100AC00001F024FC16E03946284601F02DFB11E028
:100AD0003946284601F048FB0CE0384601F03EFC60
:100AE00008E03946284601F0D3FB03E039462846A2
:100AF00001F062FB0FB000F10110BDE8F08FFF20A4
:100B000007F8010C0FB04FF00110BDE8F08F0000A6
:100B1000080100202000002001000500FF200870CF
:100B20004FF00110704700000748002101220170BA
:100B30004170426001736423038241824161027605
:100B4000417600F0CDBC0000080100207047000095
:100B5000044910B5086800F00F004860FFF7F6FF81
:100B600010BD00000000024070470000044910B5AD
:100B70000868C0F3031002014A60FFF7F5FF10BDDB
:100B80000000024070470000044910B50868C0F337
:100B9000032002024A60FFF7F5FF10BD000002408B
:100BA0001148816A09684A680146002A496B496808
:100BB0001CBF00297047426B5161426B4FF000012E
:100BC00082F8211041688989426841F04001918191
:100BD000016BC968022908BF7047006B01680029D2
:100BE00008BF704701200847F4590008044910B5B0
:100BF0000868C0F3033002034A60FFF7D1FF10BD5D
:100C000000000240014802F0E7BE0000F45900086D
:100C1000044910B50868C0F3034002044A60FFF7B6
:100C2000F1FF10BD00000240014802F0D5BE0000F7
:100C30002C5A0008044910B50868C0F30350020597
:100C40004A60FFF7F1FF10BD000002401148816AC1
:100C500009684A680146002A496B49681CBF002997
:100C60007047426B5161426B4FF0000182F82110D6
:100C700041688989426841F040019181016BC968EE
:100C8000022908BF7047006B0168002908BF704740
:100C9000012008472C5A0008044910B50868C0F321
:100CA000036002064A60FFF7D1FF10BD000002405A
:100CB000012818BF704730B43248426942F001023F
:100CC0004261002330480F244FF0E0224FF0010C26
:100CD00008294FD2DFE801F04E040D17222D3843CA
:100CE000836044604FF40060C2F88002C2F80001E3
:100CF00040E0C361F02343604FF48050C2F88002AB
:100D0000C2F8000136E003634FF4706343604FF4B0
:100D10000050C2F88002C2F800012BE043644FF497
:100D2000704343604FF48040C2F88002C2F8000173
:100D300020E083654FF4702343604FF40040C2F815
:100D40008002C2F8000115E0C3664FF470034360EF
:100D50004FF48030C2F88002C2F800010AE0C0F807
:100D600080304FF0706343604FF40030C2F880026F
:100D7000C2F8000105480CFA01F102781143017034
:100D800030BC7047001002400000024038000020D4
:100D9000012818BF704730B4DFF8D8C09CF80000B5
:100DA000002804BF30BC7047002001244FF0E0222F
:100DB000314B08294BD2DFE801F04A040E18222CEF
:100DC00036404FF40065C2F88051BFF34F8FBFF338
:100DD0006F8F98603BE04FF48055C2F88051BFF3AD
:100DE0004F8FBFF36F8FD86131E04FF40055C2F8D9
:100DF0008051BFF34F8FBFF36F8F186327E04FF41D
:100E00008045C2F88051BFF34F8FBFF36F8F586496
:100E10001DE04FF40045C2F88051BFF34F8FBFF380
:100E20006F8F986513E04FF48035C2F88051BFF39F
:100E30004F8FBFF36F8FD86609E04FF40035C2F8CB
:100E40008051BFF34F8FBFF36F8FC3F8800004FA58
:100E500001F09CF8001031EA00008CF800001CBF83
:100E600030BC70470548416921F00101416130BC47
:100E700070470000380000200000024000100240CF
:100E800045F6C0514843401EFDD1704730B5054678
:100E90004FF4302000F04AF8042818BF30BD0A4C47
:100EA000206940F0020020616561206940F0400047
:100EB00020614FF4302000F039F8216941F6FD72CD
:100EC0001140216130BD000000200240024801694C
:100ED00041F08001016170470020024070B5064674
:100EE0000D464FF4005000F021F8042818BF70BDE3
:100EF000074C206940F00100206135804FF400501C
:100F000000F014F8216941F6FE721140216170BDB4
:100F10000020024003480249416003494160704794
:100F20002301674500200240AB89EFCD17490246F7
:100F30000420CB6813F0010F25D1CB6813F0040F08
:100F400018BF02201AD1C96811F0100F18BF032072
:100F500014E0CB68042013F0010F18BF01200AD160
:100F6000CB6813F0040F18BF022004D1CB6813F034
:100F7000100F18BF0320521E012804D0002A18BFEA
:100F8000704705207047002AE3D1FAE700200240AD
:100F900081B0002804BF01B0704714498A6912F07B
:100FA000010F03D18A6942F001028A6110F4805F67
:100FB000C0F3421200F01F030D49C0F3032002FAF0
:100FC00003F200FA03F007D0CB6923EA02021043D0
:100FD0000090C86101B070474B6823EA02021043D9
:100FE00020F0E0600090486001B0704700100240BF
:100FF000000001402DE9F001CB78002203F00F0C36
:1010000013F0100F1CBF8B7843EA0C0C0B784FF0D9
:101010000F0613F0FF0F4FF0010518BF046819D039
:101020000F8805FA02F31F409F420FD1970006FA7E
:1010300007F824EA08040CFA07F73C43CF78282F76
:1010400008BF436102D0482F08BF0361521C082A21
:10105000E6D304600A88FF2A87BF44680022BDE8FF
:10106000F001704702F108030F8805FA03F31F40EF
:101070009F420FD1970006FA07F824EA08040CFAF9
:1010800007F73C43CF78282F08BF4361CF78482F1C
:1010900008BF0361521C082AE4D34460BDE8F00194
:1010A000704700000F2984BF00207047F0B5044648
:1010B0000D463448A4F180411F461646B1F58431EF
:1010C00004BF8069C0F3800035D0A4F18042B2F53E
:1010D000863204BF8069C0F3C0002CD0A4F18042E6
:1010E000B2F5883204BF8069C0F3001023D0A4F1A8
:1010F0008042B2F58A3204BF8069C0F340101AD032
:10110000A4F18042B2F58C3204BF8069C0F3801034
:1011100011D0A4F18042B2F58E3204BF8069C0F3D1
:10112000C01008D0A4F18042B2F5903204BF8069AB
:10113000C0F3002000D118B90121204600F024F8A6
:101140006FB90120A840022E04BFE16821EA000027
:1011500004D0032E03D1E16802260843E060082D85
:1011600024BF241D083D2168A8000F22824091431E
:10117000216047EA860101FA00F0216808432060F7
:101180000120F0BD001002402DE9F001344A354B3A
:10119000DFF8D4C0354C364D364E374FDFF8DC80A3
:1011A00000292FD0404504BF906940F0040025D0AD
:1011B000984204BF906940F008001FD0604504BF0A
:1011C000906940F0100019D0A04204BF906940F02F
:1011D000200013D0A84204BF906940F040000DD019
:1011E000B04204BF906940F0800007D0B84207BF0A
:1011F000906940F48070BDE8F00170479061BDE8EF
:10120000F0017047404504BF906920F00400F5D01C
:10121000984204BF906920F00800EFD0604504BFF9
:10122000906920F01000E9D0A04204BF906920F03E
:101230002000E3D0A84204BF906920F04000DDD038
:10124000B04204BF906920F08000D7D0B84204BFFC
:10125000906920F48070D1D0BDE8F00170470000A3
:1012600000100240000C0140001001400014014039
:1012700000180140001C014000200140000801400E
:101280002DE9F0410278FF27A2F1D003072B7AD88D
:1012900001F8012B0C4610F8011BD03908296ED239
:1012A000DFE801F0041215181C2A4A5E4048006865
:1012B00004F8010B010A04F8011B010C04F8011BDE
:1012C000000E04F8010B5BE0FFF724FE58E0FFF787
:1012D000FDFD55E00068FFF7D9FD51E08288016807
:1012E000501E80B24CD300BF11F8012BFF2A1BD136
:1012F000401E80B2F8D243E08188D0F800803829BF
:101300003ED8851D481E86B23AD300BF15F8011B92
:101310002EB115F8010B41EA0021701E86B240463D
:10132000FFF7DCFD042801D0FF2729E0711E8EB2F3
:1013300008F10208EAD223E0828801683E2A1FD819
:10134000002004F8010B501E80B219D330B111F8FF
:10135000012B401E04F8012B80B2F7E70F780FE055
:10136000BFF34F8F13480168134A01F4E061114342
:101370000160BFF34F8F00BFFDE704E0FFE7641E8D
:101380002770BDE8F0810D480268002A02BFFF20E7
:101390000870BDE8F0810A490A48C368806801EB1B
:1013A0008311094B5268BDE8F04103EB80101047F0
:1013B000002004E00CED00E00400FA050400002029
:1013C000D62200204C000020D612002072B6204801
:1013D000006880F308881F4CA06940F00400A061F9
:1013E0001D4D4FF40078C5F800801D4F1B4938464D
:1013F000FFF700FEA06940F00400A061A6152E6072
:1014000018493846FFF7F6FD2E6000242F1F3E6076
:101410006420FFF735FD2E60C7F800806420FFF7D9
:101420002FFDC5F800804FF47A70FFF729FD641C8A
:10143000052CECDBBFF34F8F0B4801680B4A01F41E
:10144000E06111430160BFF34F8F00BFFDE7000073
:10145000000000080010024014080140AC590008C8
:1014600000080140B05900080CED00E00400FA0546
:1014700007494FF4807008600648417821F0010167
:1014800041704FF0E020016941F0010101617047B6
:1014900014080140000000200E494FF400720A6059
:1014A0000D4A10F0010F4FF0E020537843F0010394
:1014B00053704FF4807205D0036923F00103036178
:1014C0000A607047016941F001010161034802604F
:1014D000704700001008014000000020140801407F
:1014E00010B5064C04492046FFF784FD2046BDE8B0
:1014F00010400349FFF77EBDC0590008000C0140B1
:10150000C45900082DE9F0473E4F4FF4C040386001
:101510003E4C3D492046FFF76DFD3D492046FFF713
:1015200069FDDFF8F0800026414640F6C54000F036
:101530008DF80120401C6428FCD3DFF8DCA040F6C5
:10154000DD40514600F082F80220401C6428FCD3A4
:10155000414640F6C54000F079F80220401C64285E
:10156000FCD3514640F6DD4000F070F8DFF8AC9057
:1015700001253EB13D60206820F00F0040F048009A
:10158000206007E0206820F00F0040F00700206096
:10159000C9F800506420FFF773FC0126414640F66D
:1015A000C54000F053F80222521C642AFCD3514675
:1015B00040F6DD4000F04AF80222521C642AFCD3B7
:1015C000414640F6C54000F041F80220401C642826
:1015D000FCD3514640F6DD4000F038F846B13D609E
:1015E000206820F00F0040F048002060BDE8F08740
:1015F000206820F00F0040F007002060C9F800507C
:10160000BDE8F087100C0140B8590008000C0140FB
:10161000BC5900080CED00E00700FA05140C01406D
:101620000648816941F00401816105494FF4004099
:10163000086004490448FFF7DDBC000000100240C8
:1016400014080140B4590008000801402DE9F007D2
:101650008F4C4FF4804600272660251D4FF4005C18
:10166000C5F800C0DFF82C82D8F8042013465B1EB2
:10167000FDD1C4F800C013465B1EFDD110F0010F70
:1016800014BF26602E60C5F800C013465B1EFDD156
:10169000C4F800C013465B1EFDD107EB00094708E4
:1016A00017F0010F14BF26602E60C5F800C0134666
:1016B0005B1EFDD1C4F800C013465B1EFDD1B944CA
:1016C000870817F0010F14BF26602E60C5F800C010
:1016D00013465B1EFDD1C4F800C013465B1EFDD14E
:1016E00009EB0703C70817F0010F14BF26602E602F
:1016F000C5F800C01046401EFDD1C4F800C0104619
:10170000401EFDD1D81910F0010F14BF26602E60C5
:10171000C5F800C01046401EFDD1C4F800C01046F8
:10172000401EFDD12E60C5F800C01046401EFDD100
:10173000C4F800C01046401EFDD12660C5F800C0A8
:101740001046401EFDD1C4F800C01046401EFDD119
:10175000514F386820F0706040F0006038602660BB
:1017600098F81830B3F100080CD000BFC5F800C0DD
:101770001046401EFDD1C4F800C01046401EFDD1E9
:101780005B1EF3D1C5F800C01046401EFDD1DFF846
:101790000C91D9F8000010F4804F14BF01230023EE
:1017A000C4F800C01046401EFDD1C5F800C0104668
:1017B000401EFDD1D9F8000010F4804F14BF4FF047
:1017C000010A4FF0000AC4F800C01046401EFDD1C7
:1017D00043EA4A03C5F800C01046401EFDD1D9F8BF
:1017E000000010F4804F14BF4FF001094FF00009C2
:1017F000C4F800C01046401EFDD143EA8900B8F18C
:10180000000F0CD0C5F800C013465B1EFDD1C4F814
:1018100000C013465B1EFDD1B8F10108F2D13B6850
:1018200023F0706343F040733B602E604FF000087C
:101830004FF0200911F0010F14BF26602E60C5F88B
:1018400000C013465B1EFDD1C4F800C013465B1EEA
:10185000FDD188444908B9F10109EBD118F0010F15
:1018600014BF26602E60C5F800C01146491EFDD188
:10187000C4F800C0521EFDD1396821F0706141F0FA
:10188000407139602E602660BDE8F00770470000A7
:10189000100C014008010020040C0140080C01401C
:1018A0002DE9F00710F03F0308BF402310F0800F30
:1018B000DFF8C480DFF8C4904FF40055A8F10406A7
:1018C0002FD0002B12BF2E4FBDE8F0077047002429
:1018D0004FF0080CD9F8041014E0401EFDD1386810
:1018E00010F4804F14BF4FF0010A4FF0000A35602A
:1018F0000846401EFDD160085B1E40EACA14BCF1D8
:10190000010C05D0002B1CBFC8F800500846E4D1DC
:1019100024FA0CF002F8010B002BD8D1BDE8F00737
:101920007047002B19BF4FF48047D9F80420BDE859
:10193000F007704711F801CB082413E01CF0010FE9
:1019400014BF3760C8F80070C8F800501046401E39
:10195000FDD135601046401EFDD15B1E4FEA5C0C88
:10196000641E04D0002BE9D1BDE8F0077047002BBE
:10197000E0D1BDE8F0077047140C014008010020D9
:10198000080C0140034A52780AB100F005B800F093
:101990007BB90000080100202DE9F04FDFF8D4C228
:1019A0004FF4804ACCF800A00CF104074FF4005823
:1019B000C7F80080CCF8008010F0010F14BFCCF8FD
:1019C00000A0C7F800A0C7F80080CCF8008042084B
:1019D00012F0010F14BFCCF800A0C7F800A0C7F8A0
:1019E0000080CCF800808318820812F0010F14BF29
:1019F000CCF800A0C7F800A0C7F80080CCF80080A1
:101A00001344C20812F0010F14BFCCF800A0C7F8AD
:101A100000A0C7F80080CCF800801A4412F0010F33
:101A200014BFCCF800A0C7F800A0C7F80080CCF81D
:101A30000080C7F800A0C7F80080CCF80080CCF880
:101A400000A0C7F80080CCF80080DFF82CB2DBF8EB
:101A5000002022F0706242F00062CBF80020CCF847
:101A600000A0DFF818E29EF81820131E06D000BF71
:101A7000C7F80080CCF80080521EF9D1C7F800806A
:101A8000DFF8FC91D9F8002012F4804218BF01223F
:101A9000CCF80080C7F80080D9F8004014F48044E6
:101AA00018BF0124CCF8008042EA4402C7F8008045
:101AB000D9F8004014F4804418BF0124CCF8008009
:101AC00042EA8402012A1CD0022A18BF042A7DD0CF
:101AD00013F1210006D000BFC7F80080CCF80080C9
:101AE000401EF9D1DBF8000020F0706040F040703B
:101AF000CBF80000C7F800A0CCF800A01046BDE865
:101B0000F08F10F0020F4ED000252C465FF020031E
:101B1000C7F80080D9F8006016F4804618BF012687
:101B2000CCF800806D08344445EAC6755B1EEFD1E1
:101B30004346C7F80080D9F8006016F4804618BF05
:101B40000126CCF80030744014F0010F18BF0822B1
:101B5000002918BF0D609EF8181021B13B60CCF829
:101B60000030491EFAD1DBF8001021F0706141F01D
:101B70004071CBF80010C7F800A000BF10F0800F34
:101B800003D040484068CEF808009EF80C000028BA
:101B900018BFC7F800A067D0C7F80080CCF8008055
:101BA000401EF9D160E02BB1C7F80080CCF800806E
:101BB0005B1EF9D1DBF8003023F0706343F0407313
:101BC000CBF80030C7F800A0096800E01DE0002352
:101BD0005FF0200411F0010F14BFCCF800A0C7F88B
:101BE00000A0C7F80080CCF800800B444908641EB0
:101BF000F0D113F0010F14BFCCF800A0C7F800A07B
:101C0000C7F80080CCF80080B8E79EF81940002C97
:101C10001CBF10F0020F212106D000BFC7F80080C2
:101C2000CCF80080491EF9D133B100BFC7F800805D
:101C3000CCF800805B1EF9D1DBF8001021F0706158
:101C400041F04071CBF80010C7F800A064B110F06B
:101C5000020F04BFC7F800A0212005D1C7F80080FB
:101C6000CCF80080401EF9D1CCF800A01046BDE8A9
:101C7000F08F0000100C0140040C0140080100200E
:101C8000080C0140001000E02DE9F04FFF4F4FF429
:101C9000804E4FF0000CC7F800E03E1D4FF4005995
:101CA000C6F80090FA4D6A6813465B1EFDD1C7F86E
:101CB000009013465B1EFDD110F0010F14BFC7F852
:101CC00000E0C6F800E0C6F8009013465B1EFDD1A8
:101CD000C7F8009013465B1EFDD10CEB00044FEAE1
:101CE000500C1CF0010F14BFC7F800E0C6F800E06C
:101CF000C6F8009013465B1EFDD1C7F8009013464E
:101D00005B1EFDD164444FEA900C1CF0010F14BF20
:101D1000C7F800E0C6F800E0C6F8009013465B1E66
:101D2000FDD1C7F8009013465B1EFDD164444FEA15
:101D3000D00C1CF0010F14BFC7F800E0C6F800E09B
:101D4000C6F8009013465B1EFDD1C7F800901346FD
:101D50005B1EFDD104EB0C0313F0010F14BFC7F899
:101D600000E0C6F800E0C6F8009013465B1EFDD107
:101D7000C7F8009013465B1EFDD1C6F800E0C6F818
:101D8000009013465B1EFDD1C7F8009013465B1E02
:101D9000FDD1C7F800E0C6F8009013465B1EFDD1E8
:101DA000C7F8009013465B1EFDD1BA4BD3F800C0B4
:101DB0002CF0706C4CF0006CC3F800C0C7F800E069
:101DC00095F818C0BCF100040DD000BFC6F8009013
:101DD00013465B1EFDD1C7F8009013465B1EFDD174
:101DE000BCF1010CF2D1C6F8009013465B1EFDD188
:101DF000DFF8A482D8F8003013F4804F14BF4FF0FE
:101E0000010C4FF0000CC7F8009013465B1EFDD18B
:101E1000C6F8009013465B1EFDD1D8F8003013F4CD
:101E2000804F14BF4FF0010A4FF0000AC7F800902E
:101E300013465B1EFDD14CEA4A0CC6F800901346CF
:101E40005B1EFDD1D8F8003013F4804F14BF4FF063
:101E5000010A4FF0000AC7F8009013465B1EFDD13F
:101E60004CEA8A0CBCF1010F22D0BCF1020F18BF62
:101E7000BCF1040F78D014F121010BD0C6F800900A
:101E80001046401EFDD1C7F800901046401EFDD1FF
:101E9000491EF3D17F48016821F0706141F0407123
:101EA0000160C6F800E0C7F800E06046BDE8F08FCA
:101EB00010F0020F59D000252C464FF0200A00BF29
:101EC000C6F8009013465B1EFDD1D8F8003013F41D
:101ED000804F14BF4FF0010B4FF0000BC7F800907C
:101EE00013465B1EFDD16B085C4443EACB75BAF127
:101EF000010AE5D1CA46C6F80090DFF894B113464E
:101F00005B1EFDD1D8F8003013F4804318BF0123C5
:101F1000C7F800A0521EFDD184EA030212F0010F9F
:101F200018BF4FF0080C002918BF0D609BF818303F
:101F3000002B18BFDBF804200CD000BFC6F800A0AF
:101F40001146491EFDD1C7F800A01146491EFDD11A
:101F50005B1EF3D14F490A6822F0706242F0407272
:101F60000A60C6F800E040E05BE05CB1C6F80090B3
:101F700013465B1EFDD1C7F8009013465B1EFDD1D2
:101F8000641EF3D1434B1C6824F0706444F0407429
:101F90001C60F046C6F800E0096800245FF02005E8
:101FA00011F0010F14BFC7F80080C6F80080C6F812
:101FB000009013465B1EFDD1C7F8009013465B1ED0
:101FC000FDD10C4449086D1EEAD114F0010F14BF75
:101FD000C7F80080C6F800804B46C6F8009011464E
:101FE000491EFDD13B60521EFDD110F0800F03D081
:101FF0002A484068264988602548017B00291CBF83
:10200000C6F800E0426857D0C6F800901046401E5F
:10201000FDD1C7F800901046401EFDD1491EF3D1F6
:102020004AE01B494D7E002D1CBF10F0020F2123FA
:102030000CD000BFC6F800901146491EFDD1C7F86C
:1020400000901146491EFDD15B1EF3D164B100BF63
:10205000C6F800901146491EFDD1C7F80090114600
:10206000491EFDD1641EF3D10A490B6823F0706349
:1020700043F040730B60C6F800E0EDB110F0020FC2
:1020800004BFC6F800E0212116D109E0100C014080
:1020900008010020040C0140080C0140001000E081
:1020A000C6F800901046401EFDD1C7F800901046BB
:1020B000401EFDD1491EE8D1C7F800E06046BDE8EA
:1020C000F08F00002DE9F001441E3CBFBDE8F00197
:1020D00070474FF480481348114E371F42687514FB
:1020E00011F8013B4FF0080C13F0010F14BFC7F8B3
:1020F0000080C6F8008035601046401EFDD13D606E
:102100001046401EFDD15B08ACF1010C641E3CBFC3
:10211000BDE8F0017047BCF1000FE5D1E0E7000039
:10212000140C01400801002070B50C46C17800680D
:102130000C4D61F31F60A978012918BF00200BD056
:102140000021E9702070010A6170010CA170000E7D
:10215000E0704FF0041070BD00F064FA0028F1D177
:10216000EEE70000240000202DE9F0410078114C3A
:1021700000F001060025E0780F4600F00100B042B3
:1021800010D02EB1A01D057045702571A560E560C9
:10219000A078012808D1304600F098FA002818BF2E
:1021A000E67001D03D7001E0FF2038704FF0011063
:1021B000BDE8F081240000202DE9F047324C804634
:1021C0000E462279A11D82F001002071E0788B5C1F
:1021D0004FF0000943EA000701F80290012811D0EE
:1021E000A068E168451A6178012918BF002518D058
:1021F00006F8017B280A06F8015B012906F8010BA5
:1022000016D038E084F80590A068E168451AA078F7
:10221000012802D100F08AFA054460790028F1D142
:10222000E1E7B8F800003C282AD88542E0D929E047
:10223000E368DFF858C01846290008D0C0F30B0245
:102240001CF8020006F8010B501C491EF6D1581963
:10225000E060E07803280ED1A068E168411AB1F58A
:10226000805F08D2A178C0F30B00012903D1E1708F
:10227000604400F021FAE81C40F40030BDE8F0872B
:102280003C20D2E70546B3E72400002024010020CB
:102290002DE9F0411C4D002790F800C0EB780C466A
:1022A0001CF0010FB8460BD02879AA1D80F001015F
:1022B0002971115C02F80080194304F8011B012701
:1022C0001CF0020F0CD0012B0ED0A868E968461A4A
:1022D0002670300A6070300CA070300EE0703F1D28
:1022E00047F48030BDE8F08185F80580A868E9688A
:1022F000461AA878012802D100F018FA0644687935
:102300000028F1D1E4E70000240000202DE9F0418D
:10231000114C07780E46A078012804BF002000F079
:1023200013FA0025002F08BF012005D0012F0AD184
:10233000012000F009FA30B1A770E570002818BF3D
:10234000357004D101E0A570E570FF2030704FF0CA
:102350000110BDE8F0810000240000202DE9F041CB
:10236000154D07460026287980F001012971A91D25
:10237000EA780B5C0E5443EA0208012A0ED0A868E2
:10238000E968441A87F800807C70200AB870200C35
:10239000F870200E38710520BDE8F0816E71A868D4
:1023A000E968441AA878012802D100F0BFF9044472
:1023B00068790028F2D1E5E724000020084AD378A4
:1023C00013F0010F04D0FF2008704FF00110704788
:1023D0000078002812BF012850700020F3D1F3E7E5
:1023E000240000204FF0E021042808690CBF40F0D1
:1023F000040020F00400086170470000164830B463
:102400000178164B491EC9B2017044784FF400722E
:1024100014F0020F03F1040C06D024F002044470FF
:1024200011F0010F03D014E011F0070F11D0CCF818
:102430000020407810F0010F04BF30BC704711F04D
:10244000030F4FF480700CBF1860CCF8000030BC54
:1024500070471A60EDE700000000002010080140FE
:1024600016494868164A10F00C03164818BF042B8A
:1024700001D0082B01D0026015E04A684B6802F4D5
:1024800070124FF0020C13F4803F0CEB924203D019
:102490004B6813F4003F03D00B4B5A43026002E039
:1024A000074B5A4302604968084AC1F30311515C63
:1024B000026822FA01F1016070470000001002403A
:1024C00000127A000C00002000093D0010000020DE
:1024D000384881B0016841F0010101604168364A25
:1024E00011404160016821F4102121F080710160E8
:1024F000016821F480210160416821F4FE014160FE
:102500004FF41F01816000220092016841F4803184
:102510000160016811F4003F03D10099B1F5A06F8B
:10252000F7D1016811F4003F18BF00923BD0234956
:102530000A6842F010020A600A6822F003020A6088
:102540000A6842F002020A604168416041684160E5
:10255000416841F480614160416821F47C1141602F
:1025600000990029416814BF41F4D00141F4E811F9
:102570004160016841F080710160016811F0007FE5
:10258000FBD0416821F003014160416841F0020144
:102590004160416801F00C010829FAD10806084998
:1025A000086001B07047016821F4803101600121A9
:1025B0000091BCE7001002400000FFF8002002403C
:1025C00008ED00E070B504461148124D14F0020FFA
:1025D000017841F00201017009D00F48016801F54E
:1025E00080610160AA694FF480610C48904714F043
:1025F000010F08BF70BD4FF48061094801F032FB44
:10260000011ED8BF70BD06486A69BDE8704010471A
:1026100001000020D45A000860000020D6320020BB
:10262000D636002070B506461F48864288BF06464B
:102630001E4C1F4DE07810F0010F11D00021AA6A46
:1026400016209047E86A804710F0020F08D0686AA9
:102650008047A1680844A0600021AA6A1920904719
:10266000AA6A31460120904710B10020207070BD49
:1026700001202070E07810F0010F12D010F0020F4E
:102680000BD1A0680B4AC0F30B0000F03F01C1F171
:10269000400110442161AA6990470121AA6A1620CD
:1026A0009047304670BD000040420F0024000020DB
:1026B0009C5A000824010020024A1161024A9269D2
:1026C00010470000240000209C5A000870B5144DEB
:1026D000144C88B12878002808BF70BD01202861FB
:1026E0000146A2691048904720B90121A26A16202C
:1026F000904798B1002070BD0021A26A1620904733
:10270000E06A804710F0020F08D0606A8047A9682D
:102710000844A8600021A26A19209047012070BDDA
:10272000240000209C5A00082401002010B5054C0C
:10273000E06A804710F0020008BF10BD606ABDE883
:10274000104000479C5A000810B5114A0021114C56
:10275000117070B1A1681048884700281CBF002084
:1027600010BD02202169884780B1E06880470020C1
:1027700010BD0021A26A162090470021A26A1920EC
:102780009047216900208847E0688047012010BDFC
:10279000240000209C5A0008852D0008014A00F002
:1027A0002DBB0000F4590008014800687047000084
:1027B000F459000881B0009820F0010000901E48F4
:1027C000016B0969002918BFB1F5803F0ED1C169BD
:1027D00061B10968C0698968007921FA00F010F0D8
:1027E000010F03D1009840F001000090009820F004
:1027F00002000090009820F008000090009820F05F
:1028000004000090009961F3000000994FEA510123
:1028100061F3410000994FEA910161F38200009950
:102820004FEAD10161F3C300009901B04FEA1111E1
:1028300061F31F1070470000F45900080648C16A90
:10284000002902BF406B0069704709684968406B06
:102850000068401A70470000F45900082C4881B005
:10286000416B91F8211000291CBF009941F0010132
:1028700007D141680988012222EA9112009962F386
:1028800000010091016B4A79009962F341010091C6
:10289000016B8A79009962F382010091016BCA7918
:1028A000009962F3C3010091016B0A7A009962F307
:1028B00004110091016B4A7A009962F3451100916D
:1028C000006B817A009861F386100090009961F3A3
:1028D00000000099490861F341000099890861F3FB
:1028E00082000099C90861F3C3000099090961F3E6
:1028F00004100099490961F345100099890961F3B1
:102900008610009901B0C90961F3DF10704700001B
:10291000F45900080648816A002902BF406B4069EB
:10292000704709684968406B4068401A704700006A
:10293000F4590008014800F091BD0000F459000866
:10294000014900F0D0BE0000F4590008014900F030
:1029500019BF0000F4590008014A01F077B80000DF
:10296000F4590008014A01F00AB90000F4590008BE
:102970001649012228B1012813D000BF4FF0FF30C3
:102980007047086B0069002818BFB0F5003FF5D10B
:102990008869B8B189690068097902FA01F10161B1
:1029A00010E0086B0069002818BFB0F5003FE5D1C2
:1029B000886938B189690068097901F1100102FA62
:1029C00001F101614FF0000070470000F459000868
:1029D00070B5144E05000B46144619BF002B002C91
:1029E0006FF0040070BD316BC87A10F0040F4FF027
:1029F000FF3008BF70BDC968022918BF70BD032031
:102A0000716B3246C8612146184601F01FF8002854
:102A100018BF70BD324621462846BDE8704001F01F
:102A2000AEB80000F459000810B5184CE06828B1A1
:102A30008188002300681A46FEF734FB206928B11C
:102A40008188002300681A46FEF72CFB606928B1D4
:102A50008188002300681A46FEF724FBA06928B18C
:102A60008188002300681A46FEF71CFBE06928B144
:102A70008188002300681A46FEF714FB208CFEF7BD
:102A800087FA216B0020C87210BD0000F4590008BD
:102A9000014A00F0B3B900002C5A00080148006850
:102AA000704700002C5A000881B0009820F0010007
:102AB00000901E48016B0969002918BFB1F5803FDD
:102AC0000ED1C16961B10968C0698968007921FACC
:102AD00000F010F0010F03D1009840F001000090C9
:102AE000009820F002000090009820F0080000906C
:102AF000009820F004000090009961F30000009914
:102B00004FEA510161F3410000994FEA910161F3ED
:102B1000820000994FEAD10161F3C300009901B02E
:102B20004FEA111161F31F10704700002C5A000882
:102B30000648C16A002902BF406B006970470968F6
:102B40004968406B0068401A704700002C5A000822
:102B50002C4881B0416B91F8211000291CBF0099CD
:102B600041F0010107D141680988012222EA91124E
:102B7000009962F300010091016B4A79009962F3B8
:102B800041010091016B8A79009962F38201009101
:102B9000016BCA79009962F3C3010091016B0A7A53
:102BA000009962F304110091016B4A7A009962F373
:102BB00045110091006B817A009861F386100090B6
:102BC000009961F300000099490861F34100009900
:102BD000890861F382000099C90861F3C300009974
:102BE000090961F304100099490961F3451000993E
:102BF000890961F38610009901B0C90961F3DF10FA
:102C0000704700002C5A00080648816A002902BF5C
:102C1000406B4069704709684968406B4068401ADA
:102C2000704700002C5A0008014800F017BC000053
:102C30002C5A0008014900F056BD00002C5A00082B
:102C4000014900F09FBD00002C5A0008014A00F025
:102C5000FDBE00002C5A0008014A00F090BF0000A1
:102C60002C5A00081649012228B1012813D000BFB0
:102C70004FF0FF307047086B0069002818BFB0F5AF
:102C8000003FF5D18869B8B189690068097902FA0D
:102C900001F1016110E0086B0069002818BFB0F570
:102CA000003FE5D1886938B189690068097901F187
:102CB000100102FA01F101614FF0000070470000BD
:102CC0002C5A000870B5144E05000B46144619BF67
:102CD000002B002C6FF0040070BD316BC87A10F02F
:102CE000040F4FF0FF3008BF70BDC968022918BF3C
:102CF00070BD0320716B3246C8612146184600F052
:102D0000A5FE002818BF70BD324621462846BDE802
:102D1000704000F034BF00002C5A000810B5184C69
:102D2000E06828B18188002300681A46FEF7BAF9E6
:102D3000206928B18188002300681A46FEF7B2F99D
:102D4000606928B18188002300681A46FEF7AAF955
:102D5000A06928B18188002300681A46FEF7A2F90D
:102D6000E06928B18188002300681A46FEF79AF9C5
:102D7000208CFEF70DF9216B0020C87210BD0000F9
:102D80002C5A000870B5194C054610F0020F1AD0E5
:102D9000E068A16822690A44A26002F03F01C1F123
:102DA0004001101AC1F58053984284BF0320E0709F
:102DB00007D8C2F30B000E4A216110440D4A9269F4
:102DC0009047012060710C4815F0200F04D0217944
:102DD000425C42F08002425415F4607F08BF70BD2F
:102DE0002179425C42F04002425470BD2400002030
:102DF000240100209C5A00082A0000202DE9F05FE1
:102E0000136B1446DA7A12F0020F00F0BB814FF018
:102E1000000800F0FF0CACF1150745464646424657
:102E2000062F80F00981DFE807F08ABC0325445CA7
:102E3000606B79B190F82110002940F01C810121CC
:102E400080F82110606B80F820106068818941F063
:102E500081018BE090F8200000286DD060688189A6
:102E600021F080018181606B80F82020606B80F808
:102E7000212061E06068818921F0C0018181A06A20
:102E800070B1606B90F8210050B16068818A21F0C8
:102E900080018182A06A0068016821F0010101605F
:102EA000606B80F82020606B80F821200020BDE856
:102EB000F09F6068818921F020018181E06A68B11A
:102EC000206B407950B16068818A21F04001818295
:102ED000E06A0068016821F001010160206B427125
:102EE0002AE06068818921F0E0018181A06A70B1E7
:102EF000606B90F8210050B16068818A21F08001F8
:102F00008182A06A0068016821F001010160E06A25
:102F100068B1206B407950B16068818A21F040012E
:102F20008182E06A0068016821F001010160206B84
:102F30004271606B80F821200020BDE8F09FE068BE
:102F4000002800F01F8199B1D968062905D0818831
:102F5000006803230222FEF7A5F8206BC17A41F036
:102F60000801C1726068818941F008018181E3E74D
:102F70006068818921F008018181206BC17A21F08C
:102F80000801C172206BC06806281CBFE0680028D9
:102F9000D2D081884FF0000300681A46FEF782F80D
:102FA000CAE72069002875D091B3D968062918BFEF
:102FB000042907D0818800684FF000034FF0010218
:102FC000FEF770F8206BC17A41F01001C1726068A1
:102FD000818A41F0010181826068018A41F04001EB
:102FE00001826068818941F010018181206B407904
:102FF00000281CBFE06A002804D16068818941F084
:10300000200181816068818941F00401818193E719
:10301000FFE76068818921F004018181206BC17A1A
:1030200021F01001C172206BC06806281EBF042861
:1030300020690028ADD17FE75A79E2B9626B92F836
:103040002120C2B96268978917F0080F03D017884A
:1030500017F0400F0FD0BCF1150F7DD2DFE80CF058
:10306000A10F11351B202EA1A1A1A1A1A1A1A1A158
:10307000393C5E688F006FF00100BDE8F09F0123CE
:1030800012E0237813F0020F1CBF4FF410650223E7
:103090000AD11AE076E04FF008064FF0040303E08F
:1030A0004FF002064FF0050310F4E06C76D0BCF54B
:1030B000807F74D0BCF5E06F77D0BDE0237813F04B
:1030C000200F1CBF20260623EED16FF00600BDE8BE
:1030D000F09F606B41832FE7D868052852D0002904
:1030E0003FF42AAF908A40F004009082D94AA06849
:1030F000B2FBF0F25FF0010002FB00F38B429CBFD9
:10310000401CB0F5807FF7D3B0F5807F3AD061687E
:103110000A8B22F0FF02104308830DE7D8680628C7
:1031200030D1FF292ED8108B20F47F40084324E0B3
:10313000D868062826D1A068C64B01EB0114B3FB62
:10314000F0FC01EB0113012003EB430304EB4114FA
:103150000CFB00F5C82100E023E06943B1EB430F0D
:1031600002D2B1EB440F02D8401C4028F0D34028D3
:1031700008D0118B21F0FF0108431083DCE6D868EA
:10318000062803D04FF0FF30BDE8F09F00293FF440
:10319000D3AE908A40F010009082CDE609E048E07E
:1031A00003E06FF00300BDE8F09F10F4405F07D12B
:1031B00042E010F4405F03D045F020054FF4805802
:1031C00010F4405C0ED0BCF5805F08BF48F4806806
:1031D00008D0BCF5005F16BF6FF0090048F4C06866
:1031E000BDE8F09F10F4404C14D0BCF5804F08BFF0
:1031F00045F400550ED0BCF5004F08BF45F44055CE
:1032000008D0BCF5404F16BF6FF00A0045F480555A
:10321000BDE8F09F10F4403C08BF00271AD0BCF571
:10322000803F0DD0BCF5003F17D0BCF5403F1FD00C
:103230002AE010F4405FBFD06FF00800BDE8F09FB7
:1032400094F800C01CF0800F1CBF4FF4803746F488
:10325000807619D0022B1BD032E0B4F800C01CF4E9
:10326000807F1CBF4FF4003746F4C066F2D10BE0FC
:10327000D4F800C01CF0800F1EBF1CF4807F4FF4F8
:10328000403746F4E066E5D16FF00B00BDE8F09FF3
:1032900010F4802C08D0BCF5802F0EBF45F480655B
:1032A0006FF00C00BDE8F09F10F4002008D0B0F5DE
:1032B000002F0EBF45F400756FF00D00BDE8F09FC4
:1032C000D4F808A0DFF890910AEBCA0000EB0A1CC2
:1032D0008800BCFBF0FBA9FB0BEBBCFBF0FEBCFBCE
:1032E000F0F0A9FB00C040096FF0180C00FB0CF0D7
:1032F0000EEB80004FF0320C0CEB0010A9FB00C06D
:103300004FEA5B1B40096BF31F104FEA0A191FFAC3
:1033100080FCB9FBFCF000094FF0640900FB09F0E8
:1033200001EB011909EB4909B0EB490F06D201EB9A
:10333000011909EB4111B0EB410F03D86FF0070001
:10334000BDE8F09F908920F4005090816068A0F85B
:1033500008C0206BC360206B0761206BC168062921
:103360000AD0C07A10F0080FE0680ED0A0B18188B2
:103370000323006802220DE0E06868B181880068DC
:1033800003230222FDF78EFE06E028B18188002388
:1033900000681A46FDF786FE206BC168042918BF35
:1033A00006290CD0C07A10F0100F206911D0B8B1E6
:1033B000818800684FF000034FF001020EE02069A1
:1033C00070B181884FF0000300681A46FDF76AFE6D
:1033D00006E028B18188002300681A46FDF762FEE6
:1033E000606968B1216BC968022918BF0629818804
:1033F000006807BF0323022200231A46FDF752FE8E
:10340000A06968B1B7F5803F18BFB7F5403F818824
:10341000006807BF0323022200231A46FDF742FE7D
:10342000E06928B18188006800230122FDF73AFE97
:103430006068A0F80C8060680582606886826068B9
:10344000818941F400518181206BC17A41F00401EE
:10345000C17271E500CA9A3B1F85EB512DE9F0035B
:10346000D0F804C0BCF800200021BCF80C400B468A
:1034700002F020052C420E464FF0010461D0056B8E
:103480006F791FB1ED68022D05D00BE0BCF8041078
:10349000EC71202155E0456BED69012D08BFBCF8AA
:1034A00004C001D0BCF80430D0F834C0DCF80850B7
:1034B0006F1CCCF808702B70D0F804C0BCF80CC09E
:1034C0001CF4806F0CD11CF4805F09D0456B1F0A7F
:1034D000D5F808C00CF10108C5F808808CF8007018
:1034E000D0F834C0DCF810506D1CCCF81050D0F877
:1034F00034C0DCF800C0654523D1D0F804C0BCF866
:103500000C5025F01005ACF80C50D0F830C08CF8F9
:103510000560D0F830C0DCF80CC0BCF1020F0FD150
:10352000D0F834C0DCF81C50CCF81C60012D08BF6A
:10353000012106D0022D03D0032D08BF042100E095
:1035400002214568B5F80CC002F010071CEA070F0D
:103550001CBFB5F804C041F04001B5F80CC002F042
:1035600080071CEA070F5FD0D0F834C09CF82070A9
:1035700027B1AB8943F00103AB8155E0DCF814704F
:10358000DCF80450BD4224D0036BDB68022B02BF81
:10359000DCF81C30022BBCF81A301AD0DCF80C30E6
:1035A00003F10105CCF80C50D0F804C01B78BCF82E
:1035B0000CC01CF4806F0CD11CF4805F09D0D0F8D3
:1035C00034C005F10107CCF80C7095F800C043EA4F
:1035D0000C23D0F834C0DCF8145005F10105CCF808
:1035E0001450D0F804C0ACF80430436BD3F804C0D6
:1035F0005B699C4518D14368B3F80CC02CF0800C73
:10360000A3F80CC04368B3F80CC04CF0400CA3F80E
:103610000CC0436B83F82160036BD3F80CC0BCF182
:10362000020F54D041F001014368B3F80CC002F01E
:1036300040051CEA050F07D0B3F80CC02CF0400C75
:10364000A3F80CC041F0080112F0080F05D0436840
:103650009B88036B41F02001DC7112F0020F05D052
:1036600043689B88036B41F480715C7212F0010F18
:1036700005D043689B88036B41F400719C7212F47F
:10368000807F0AD04368B3F800C02CF4807CA3F894
:1036900000C0036B41F080011C7212F4007F06D061
:1036A0004268138823F40073138041F48061002979
:1036B00004BFBDE8F0037047006B0268002A04BF36
:1036C000BDE8F00370470846BDE8F0031047D0F8A6
:1036D00034C0DCF81CC0BCF1010F04BFDB7A13F06E
:1036E000100FA1D19EE710B50C46096BCA7A12F0F3
:1036F000010F1CBF002010BD0860216B0020087165
:10370000216B4871216B8871216BC871216B087224
:10371000216B4872216B8872216BC860616B81F8E4
:103720002100616B086048608860C860086148617A
:103730008861C8610862608CFDF72AFCE06818B1F6
:1037400000680121FDF720FD206918B10068012102
:10375000FDF71AFD606918B100680121FDF714FD3D
:10376000A06918B100680121FDF70EFDE06918B1EC
:1037700000680121FDF708FD216B0120C8720020BF
:1037800010BD00002DE9F0470C4600268E4FDFF8F3
:103790003C82DFF83C928F4D012138B1012801D0E5
:1037A00002287AD06FF00300BDE8F0876068B84265
:1037B00004D1EA6842F48042EA600CE0404504BF6C
:1037C0002A6942F4003205D0484504BF2A6942F410
:1037D000802200D12A6100BF00BF00BF00BFB842F5
:1037E00004D1E86820F48040E8600CE0404504BF64
:1037F000286920F4003005D0484504BF286920F42A
:10380000802000D1286194F9240000280CDB00F00E
:103810001F0291404009800000F1E020C0F88011B3
:10382000BFF34F8FBFF36F8FE06A18B14179007912
:10383000FDF7AEFAA06A18B141790079FDF7A8FA50
:103840006068B84203D1A86920F48040A86160682C
:10385000404503D1E86920F40030E86160684845DC
:1038600003D1E86920F48020E861206B0671206BA9
:103870004671206B8671206BC671206B0672206BBF
:103880004672206B8672606B80F82160206BC17A73
:1038900021F00201C17293E0FFE7206BC27A12F0BF
:1038A000010F04BF4FF0FF30BDE8F08712F0020FA8
:1038B00078D10671206B4671206B8671206BC671C2
:1038C000206B0672206B4672206B8672606B80F8EC
:1038D0002160606B4683606BC661606B80F820601E
:1038E000206BC660206B0661226B0320D07260687B
:1038F000B84203D1A86940F48040A861606840459F
:1039000003D1E86940F40030E8616068484503D1BC
:10391000E86940F48020E86194F92400002809DB7C
:1039200000F01F0201FA02F24009800000F1E020DD
:10393000C0F8802294F92400002808DB00F01F0260
:1039400091404009800000F1E020C0F80011E06AD9
:1039500018B141790079FDF7ABF9A06A18B1417946
:103960000079FDF7A5F96068B84204D1E96841F42F
:103970008041E9600CE0404504BF296941F4003111
:1039800005D0484504BF296941F4802100D129614F
:1039900000BF00BF00BF00BFB84204D1E86820F4F8
:1039A0008040E8600CE0404504BF286920F4003006
:1039B00005D0484504BF286920F4802000D1286143
:1039C0000020BDE8F08700000038014000440040BE
:1039D0000048004000100240C16A0968496821B1EE
:1039E000416B0968002918BF704741688A8922F035
:1039F00010028A81026B00210B46D268022A10D184
:103A0000426BD2F81CC0D361BCF1010F08BF012189
:103A100008D0BCF1020F04D0BCF1030F08BF042191
:103A200000E00221426BD2F800C0C2F810C0026B65
:103A300053714268938943F020039381006B0268BD
:103A4000002A14BF002970470846104770B50028A7
:103A500012BF00296FF0040070BD136B93F80BC008
:103A60001CF0040F04BF4FF0FF3070BD5B79012BD9
:103A700073D05368B3F80CC02CF0200CA3F80CC022
:103A8000536B1960D2F830C000238CF80830D2F89C
:103A900030C08CF80930D2F830C08CF80730D2F83A
:103AA00030C08CF80A30D2F834C0CCF80800D2F814
:103AB00034C0CCF81030D2F830C001238CF8053077
:103AC000D2F830C08023DCF80CC0BCF1020F07D163
:103AD000D2F834C0DCF81CC0BCF1010F08BF0023D1
:103AE000D2F82CC0BCF1000F32D09CF806404FF445
:103AF000405505EA04345568234343F00203AC897A
:103B000014F4805F04D014F4806F08BF43F4A06302
:103B1000DCF800C02C1DCCF80030CCF80840CCF804
:103B20000C00CCF80410D06A0068036843F001036D
:103B300003605068838A43F040038382506883891E
:103B400043F010038381106BC068022812D105E096
:103B50005068838943F03003F4E70DE0506BC3698C
:103B600043B90223C361506B1A3000F008F810F11A
:103B7000020F01D0002070BD6FF0010070BD002861
:103B800012BF00296FF0040070472DE9F04106468E
:103B9000106B14460D46C07A10F0040F04BF4FF0AE
:103BA000FF30BDE8F081616B91F82100002845D11C
:103BB000012081F82100616B8027CE60616B4D6030
:103BC000626B00215161216BC968022910D1626BBF
:103BD000D16919B1022908BF002709E0D061606BE3
:103BE000224629461830FFF731FF10F1020F25D089
:103BF000A16A39B388794FF44052636802EA003011
:103C000038439A8940F0120012F4805F04D012F415
:103C1000806F08BF40F4A06009681A1D08608A60C0
:103C2000CE604D60A06A0068016841F0010101604A
:103C30006068818A41F08001818208E06FF00100B4
:103C4000BDE8F0816068818941F0800181810020B8
:103C5000BDE8F0810148006870470000F059000895
:103C60000020704770B50B4D0C460346D5E90C019A
:103C700088420BD9401A844200DD04462246184689
:103C8000FCF750FA686B2044686300E0002420468B
:103C900070BD00009800002010B50A4CE06A804713
:103CA00010F0010F18BF10BD4FF480610648FFF7F8
:103CB000D9FF011ED8BF10BD03486269BDE810409E
:103CC00010470000D45A0008D63600202DE9F041F4
:103CD000194C0D460746D4E90401401A17490A88D1
:103CE000101A002802DC0020BDE8F081854200DDCA
:103CF0000546D4E906020026904210D3104A0988EE
:103D0000431911448B420AD30E1A90463246394663
:103D1000FCF708FA3744AD1B4046C4F8188035B1AB
:103D20002A463946FCF7FEF9A0692844A0612169BA
:103D3000A81901442161D7E798000020265B0008FC
:103D40005612002010B5054C6068002805D10120EE
:103D5000606000F005F80020606010BD9800002051
:103D60002DE9F047224CA06800283BD0D4E904019B
:103D7000421AE0684FF00006104335D01D481E4F30
:103D8000DFF878800088DFF878903D182046C16918
:103D90006AB1A069814203D38818A84200D36A1A85
:103DA00099F8003038F81300904200DA02461548BE
:103DB000E660007840F0800001F09CFAE16901447F
:103DC000E16162698D420244626100D1E76121696B
:103DD00091420BD199F8002038F81210814205D198
:103DE0000120E060BDE8F087A660FBE7E660F9E748
:103DF00098000020265B0008561200202A5B00086D
:103E000073000020245B000810B50B4C206A18B129
:103E1000A06A401CA06210BD01202062606200F018
:103E20000DF8002060622062D4E90C018842F2D0D3
:103E3000401AFFF731FF10BD9800002010B5134C59
:103E4000144A1348216B1288144B081A101A124A8C
:103E50001B7832F8132090420EDB1148007800F0F6
:103E6000E5FE216B08442063A06A00280CD0616A3B
:103E7000002909D1401E06E00120E062606A0028A6
:103E800002D0A06A401CA06210BD00009800002073
:103E900096120020285B00082A5B000873000020AF
:103EA000255B000810B50446400702D52046FFF701
:103EB000ABFF200704D52046BDE81040FFF742BF06
:103EC00010BD7047002070470020704710B50B48A8
:103ED00000F01CF8002810D0084A09481168017049
:103EE0000B0A43700B0C8370090EC17011790171BC
:103EF0005179417191798171012010BDD00000206C
:103F00009411002010B500F00DF810BD04498A6826
:103F100002608A898280897B81710120704700005C
:103F20006000002010B5044C0448A168884721694E
:103F300002208847012010BDD45A0008C52500087A
:103F400010B5054C00211820A26A90470021A26AF2
:103F500019209047012010BDD45A00080120704755
:103F60002DE9F0410026314C0546B046A26A37469D
:103F70003146182090470021A26A1920904700215D
:103F8000A26A152090470021A26A1620904728793E
:103F900040B1012808BF4FF4004703D0022808BFF2
:103FA0004FF48047687948B1012808BF4FF40058A2
:103FB00004D0022808BF4FF480581AD1A8790528E8
:103FC00008BF4FF4A0660AD0062808BF4FF4C066A9
:103FD00005D007280CBF4FF4E066082809D146EA4F
:103FE000080040EA0700A26A296840F001009047F3
:103FF00010B10020BDE8F0810D4829688160A988D2
:104000008181A97981730021016041600121A26A47
:10401000152090470121A26A16209047A2694FF40B
:104020008061044890470120BDE8F081D45A00081F
:1040300060000020D632002010B51048002410493E
:1040400044608460C4600461C0E90541C0E90714AC
:1040500044620C498462C0E90B4141630480FFF76C
:104060006FFF06484FF416513830016004714471F7
:1040700008218171FFF774FF10BD00009800002037
:10408000561200209612002010B5FFF7D5FF10BD84
:1040900070B5174C00250126206A50B9D4E90C10E0
:1040A000814206D11348814203D02063E562256234
:1040B0006063A06A70B1206A60B9E06A50B9266294
:1040C000FFF7BCFE2562D4E90C01884202D0401AF9
:1040D000FFF7E2FDD4E90101084308D1D4E9040166
:1040E000884204D06660A660FFF73AFE656070BD46
:1040F0009800002096120020002070470020704792
:1041000000207047024910B50880FFF727FF10BD57
:1041100098000020084810B5C178026861F31F625A
:1041200006490A6002790A7142794A718079887178
:104130000846FFF715FF10BD94110020D0000020A5
:104140000107890E01F1804101F5A041D1F8002C51
:1041500000F08000002814BF48F6CF704CF68F7036
:1041600002EA0000C1F8000CD1F8000C08D080F081
:10417000300048F6BF7200EA0200C1F8000C704738
:1041800080F440504BF68F7200EA0200C1F8000C38
:104190007047000070B48378234A03F00F0C13F0CB
:1041A000800F56688188148803F00F0306EB031311
:1041B00004D0491C21F001011C6011E09C603E29E3
:1041C00009D91F3121F01F014FF0FF3404EB4114D6
:1041D00044F4004403E0491C21F001014C02DC607E
:1041E00013880B441380C07810F0030008BF4FF40D
:1041F00000710CD0012808BF4FF4806107D002285D
:1042000008BF002103D0032808BF4FF4C06141EA72
:104210000C004FEA8C0101F1804101F5A041C1F889
:10422000000C70BC7047000044000020002818BF3C
:1042300070470249C02008807047000044000020F9
:1042400000F0A8BA0949CA1350B101200860002043
:1042500008600B1D18604FF4E0500860044802E04D
:10426000032008600348026070470000405C004083
:10427000100801401408014010B50B4C0B48A288EF
:1042800001788A4200D9CAB21AB907490020183900
:1042900008718020216801F02DF821680144216017
:1042A000A188081AA08010BD88000020105B0008BB
:1042B00010B5064C0020216800F0B8FC21680144CC
:1042C0002160A188081AA08010BD0000880000208D
:1042D00070470107890E01F1804202F5A042D2F831
:1042E000001C10F0800F05D048F6BF700840C2F8DF
:1042F000000C70474BF68F700840C2F8000C7047F6
:104300000107890E01F1804202F5A042D2F8001C9B
:1043100010F0800F07D081F0200048F6BF710840F0
:10432000C2F8000C704781F440504BF68F71084082
:10433000C2F8000C704700002DE9F047DFF8448216
:104340000646A8F1080580074FF0000AA5F11804F9
:1043500024D500F0BBFF98F800004746C009FFF7DE
:10436000B7FFF888A8803978C1F3411010B101284F
:1043700077D17DE098F80120834FDFF810920C2A66
:104380006FD2DFE802F0060C951C952B3B953F455C
:10439000526100F063FD33E0FFF76EFF96E000200E
:1043A00000F09AFD00285CD000F096FF386820B13C
:1043B0006169002921D0082050E0484653E00120DF
:1043C00000F08AFD002873D000F086FF38680028CE
:1043D000F3D06169002979D004203FE011F01F0F6C
:1043E00066D198F80200012140F08000207000F0B2
:1043F0007F0000F045FF00F06FFF67E000F054FC25
:1044000078B3C9E711F01F0F52D15E481F3819E089
:1044100000F0B8FD28B300F05FFF386818B161699B
:1044200029B301201AE05A481DE001F01F010129BB
:104430003ED16178A9B198F80400A178884237D2BA
:10444000544908442860A7E700F064FE48B100F032
:1044500043FF386830B1616949B1022001F04CFA7C
:1044600034E025E04C48016809B1084680472DE05A
:1044700011F01F0004D0012805D0022818D111E046
:1044800000F02AF913E000F02DF9F8B900F080F9F6
:10449000E0B900F0CFF8C8B900F0CEF8B0B900F03C
:1044A0001FF904E000F0C4F880B900F017F968B90A
:1044B00098F80010090604D4B8F8060008B10020E6
:1044C00000E0802000F0E6FEA5F804A0700735D5D6
:1044D00098F80000474600062ED4A88858B3FFF786
:1044E000E7FEA88838BB3878C0F34111F1B1012943
:1044F0001CD110F01F0004D0012805D0022815D1CE
:104500000EE000F077F810E000F07AF898B900F0CB
:1045100047F880B900F046F868B900F06FF804E099
:1045200000F03CF838B900F067F820B9802000F0BE
:10453000B1FEA5F804A001E000F0D4FE300713D5C9
:1045400098F80000000606D5A888217908430BD00A
:10455000FFF792FE08E02078010605D500F07F0005
:104560002070002100F08CFE700602D50020FFF7BD
:10457000E7FD300604D5BDE8F0478020FFF7E0BD39
:10458000BDE8F08790000020905B00088C5B00087D
:10459000845B000839000020885B00080020704719
:1045A0000020704710B51048104A017912789142E6
:1045B00003D00F4A1278914214D1417821B10229D7
:1045C00005D020290ED10AE0FFF798FD02E04088CF
:1045D000FFF796FD30B100F07FFE012010BDFFF720
:1045E00099FDF7E7002010BD90000020225B000835
:1045F000235B0008002070470020704700207047B0
:1046000010B50948094A01791278914209D14078D8
:10461000092806D100F0D8FA18B100F05DFE01209B
:1046200010BD002010BD000090000020115B0008AC
:10463000002070470020704770B52249224A08794F
:104640001278904203D0214A1278904238D11D4806
:1046500049781F4C1F4D408804291FD007DC79B1D1
:1046600001290FD002290BD0032929D111E02029DB
:1046700006D021291AD022291BD0232920D11BE0C2
:104680002C6011E0FFF720FC05E02C60FFF7F4FD43
:104690000AE0FFF717FC0028F7D111E0FFF7E0FA76
:1046A0000CE000BF00F018FE012070BDFFF70EFC0B
:1046B000F1E7FFF727FD01E0FFF71EFD0028F1D12C
:1046C000002070BD90000020225B0008235B0008E2
:1046D00094110020880000200020704700207047BF
:1046E000002070472DE9F041224C234920790978B8
:1046F00088423DD16078214D214E224F0C2837D27F
:10470000DFE800F03606212D3636363636162432EE
:1047100000F070F960B3E078012802D0032803D0DC
:1047200003E01948286000E02E60FFF7A5FD13E0C4
:10473000E078022802D0032803D00DE01348286057
:104740000AE02E6008E000F03DF90AE000F014FAFB
:104750000CE000BF00F0C0FD0120BDE8F08100F0DA
:104760003FF928B12F60E0E700F024FA0028F1D1EA
:104770000020F2E790000020115B00088800002074
:104780004200002094110020D511002016120020B4
:1047900000207047084800214170C16001614161FB
:1047A0008161C16141808180016241628162C18019
:1047B000C162018170470000D80000202DE9F05F40
:1047C000DFF84081DFF840A1DFF840B10127504C0D
:1047D00008F101090025A561606910B1A761BDE874
:1047E000F09F6761A088618888421AD3206AC0B9A7
:1047F000E561A580012398F8001008F10102184630
:1048000000F068FF0004000C60800CD04149C4F83F
:104810001C800978012902D8C4F81C903BE0401C98
:1048200060806088B8BBE068A8BB216999B339484B
:104830004246007801280FD81570A5800223521C2B
:104840000021012000F046FF0004000C608001D030
:10485000C4F81C9025611EE01678202E00D3002697
:1048600007FA06F0084240D0701CC1B21170A58052
:10487000022308F10102012000F02CFF0104090CC1
:10488000618003D0491CC4F81C806180216907FA4B
:1048900006F0814321616088216A01432AD0A18802
:1048A000401A9BF8001086B23AF81100B04200D2CC
:1048B0000646676218483246E169007840F0800099
:1048C00000F018FDE06915493044E061A0883044EB
:1048D00080B2A080098888420AD29BF800103AF87A
:1048E0001100B04204D1276205E0761CF6B2B4E7AD
:1048F000256200E065626561A06900287FF46BAF06
:104900006DE70000D4110020185B00087300002040
:10491000D80000201C5B0008125B00081E5B00082A
:10492000F8B5194C194D0026E08800B9A562184861
:10493000A16A007800F07AF90004A16A000C014431
:10494000A162E18801448BB2E3800AD01149098851
:104950008B4206D2114A1049127831F81210814266
:1049600010D90F48017801200129009003D80021B7
:10497000064A022003E029786A1C02205B1E00F030
:1049800075FFE680F8BD0000D80000201512002059
:10499000135B0008205B0008185B00087300002010
:1049A0001D5B000810B50446000702D52046FFF73E
:1049B00005FF600704D52046BDE81040FFF7B0BFF3
:1049C00010BD0000034804498078085C0349087062
:1049D000012070479000002040000020941100202A
:1049E00010B500F075FE02490870012010BD0000EE
:1049F000941100200B4910B5C8780022012804D07A
:104A0000022804D0032806D103E0074A02E0002070
:104A100010BD064A521C8978002300F05BFE01207D
:104A200010BD000090000020D411002041000020A3
:104A30002DE9F05F4648007800287DD045480027E2
:104A40003D4601784A1C0270434A1478042204EB64
:104A5000440A02FA0AF2521E914201DB0570012754
:104A60003E4900230A88FF2A01D2521C0A803C4A90
:104A70008E46098832F81490894500D10123834677
:104A8000002100699BF8006043E000BF4FF0000C7C
:104A90006FB1344A545CFF2C01D2641C5454324C24
:104AA000645C24B1525CA24201D34FF0010C2E4A47
:104AB0004FF0020808FA0AF8525C02FA08F44C4572
:104AC00002DA0AB1012400E0002433B12CB14FF026
:104AD000010808FA01F848EA0000DFF8908018F8A9
:104AE000018042450AD01F4A525C424503D301224D
:104AF0008A40104300261C4A02F80180BCF1000FD6
:104B000005D014B901228A401043164A5554491C55
:104B1000C9B2174A12789142B8D3CBF8100059465F
:104B20008BF800600BB1AEF8005008B1CA6852B102
:104B3000104A1378012200E003E09A409043CBF83A
:104B40001000BDE8F09FBDE8F05F0020FFF736BE23
:104B500071000020D8000020730000203C000020DD
:104B6000145B00083E0000203F00002040000020B1
:104B70001C5B0008D411002010B50A480949807850
:104B8000C97810B1084A815409E00020074B084A4F
:104B900002E01954401CC0B21478A042F9D301209D
:104BA00010BD0000900000203F00002040000020C9
:104BB0001C5B0008034810B5807800F055FE01200A
:104BC00010BD0000900000200C4908B5C8780022F4
:104BD000012804D0022804D0032806D103E00020D5
:104BE00008BD074A00E0074A521C00230093CB8807
:104BF000897800F03BFE012008BD000090000020F5
:104C000015120020410000200648C16941F400014E
:104C1000C1614FF0E0214FF48010C1F80001FCF7B2
:104C2000FFBC000000100240704700001B4B30B476
:104C30005B6800F00F0203EB0212DFF864C09368B8
:104C400092890CEB4303C2F30905002205F1010C24
:104C5000B2EB5C0F08D200BF33F8044B521C21F8B2
:104C6000024BB2EB5C0FF7D30107890E01F18042D2
:104C700002F5A042D2F8001C10F0800F19BF48F6D0
:104C8000BF70084081F440504BF68F7108BF084058
:104C9000C2F8000C284630BC7047000044000020D9
:104CA00000600040704700007CB54048A0F120053E
:104CB0000178A0F1080411F01F0102D0012973D17D
:104CC0005CE0C378394839492038394AC078897856
:104CD000082B69D2DFE803F06804123F6868082CEB
:104CE00034482060122047E0117800295CD018B1C8
:104CF000314820600A203FE03048FAE712780AB9CC
:104D0000012851D018B12E480090002008E02D480D
:104D1000FAE7009A137813B153881A440092401CA2
:104D20008142F6D100980178E9B32060408823E001
:104D30001278C2B318B124480090002008E023483C
:104D4000FAE7009A137813B153881A440092401C72
:104D50008142F6D1E6E71E480090002005E0009B66
:104D60001A780AB11A440092401C8142F7D1009887
:104D70000178C1B120600078019005E001A9684682
:104D800000F02AF800280DD0A1880198814208D9A6
:104D9000104980B2A0800978491E084201D1012043
:104DA000287101207CBDFFE70020FBE79000002078
:104DB0000D5B0008BA5B0008CD5B0008CC5B000807
:104DC0003A5C0008CE5B00083C5C00083B5C0008D5
:104DD0003E5C0008105B000830B5164A164C174BB5
:104DE000D5781279212D02D0222D20D115E02478FA
:104DF000A2421CD1124A1478124A12780CB9012A24
:104E000015D042B1104A02601046104A1288104470
:104E10001860092008E00E4AF5E72078824206D1A2
:104E20000C4818600C4800880860012030BD002044
:104E300030BD000090000020115B000888000020B9
:104E40000D5B0008730000203A5C0008B85B0008A6
:104E5000CE5B0008945B0008B65B000870B51C4888
:104E60001B4D0078A5F1080510F01F040AD0184862
:104E7000A5F11801174B4A780079012C06D0022CB5
:104E800024D109E012481A3828601DE0F2B189786F
:104E900088421BD2002015E000F08F04200605D5C3
:104EA00004F00F064FF48030B04001E00120A04034
:104EB0000AB922070AD18A68024207D0C9680142AA
:104EC000E8D0012018802B60012070BD002070BD4B
:104ED000900000209411002070B5294A0146A2F1EB
:104EE0002004107810F01F031046408804D0012BD6
:104EF00028D0022B26D110E0012823D129B100F0BF
:104F0000F7F9E08840F0020005E0002000F0F0F939
:104F1000E08820F00200E08030E0127902F08F0695
:104F2000320605D506F00F024FF48035954001E0BA
:104F30000125B54062782AB1320703D0A2682A421F
:104F400000D008B1002070BD0D482038C06800EACC
:104F5000050031B190B9304600F09CF9E068284373
:104F60000BE058B12069284208D13046FFF7E8F835
:104F70003046FFF797FEE068A843E060012070BD6F
:104F8000900000202DE9F84F5C4F00200090387809
:104F900010F01F0F6FD1B8784FF000094FF0010BE0
:104FA0004FF4803AA7F1200600287AD054480178BF
:104FB0003046C07809B901285DD008B1514C6BE08A
:104FC000514C69E06078022804D0042844D00528B8
:104FD00060D144E06179B87881423BD1707020792A
:104FE000B0700020494A4A4903E000BF02F800902F
:104FF000401C0B889842F9D30125B0460BFA05F006
:10500000D8F80810084202D02846FFF762F9D8F80D
:1050100008100AFA05F0084203D045F08000FFF7B7
:1050200058F96D1C102DE9D34FF00110C8E90209A1
:105030000120C8F81090FFF7F9F8E0794006B8F8B9
:10504000060002D540F0010001E020F00100A8F8C0
:1050500006001FE060881EE0E07800901AE00098EB
:10506000C0B9A07800F08F05280605D505F00F011E
:105070000AFA01F002E03CE00BFA05F0B1680143E6
:105080002046B160FFF786F82846FFF739F9284631
:1050900000F0D6F8207804442078002892D124E04B
:1050A000FFE7C84686F8019001245D464FEA0A09E9
:1050B000B16805FA04F0084202D02046FFF709F96A
:1050C000B16809FA04F0084203D044F08000FFF709
:1050D00000F9641C102CEBD34FF00110C6E9020854
:1050E0000020C6F81080FFF7A1F8B87871788842E0
:1050F00002D00020BDE8F88F0120FBE790000020DF
:105100000D5B00083A5C0008CE5B00083900002007
:105110000E5B00082DE9FC5F444E00273D463078C9
:10512000BB4600F01F00B84601287DD1A6F1200142
:105130004878002875D03E48BA4602780846C078BC
:105140000AB9012870D0894608B13A4C65E03A4C5A
:1051500063E06078022804D0042809D005285AD1D9
:1051600017E0617999F80100814254D0608853E0DA
:10517000A7783079E5784FF00008B8424BD1B07885
:10518000A84248D12D484FF0010A10F807B0C55584
:1051900041E03079B8423ED1A07800F08F00019014
:1051A000000605D5019800F00F014FF4803001E0B2
:1051B0000199012088400090B078A84217D1D9F811
:1051C0000810009A20461143C9F80810D9F80C10AD
:1051D0009143C9F80C10FEF7DDFF0198FFF790F836
:1051E000019800F02DF8009948EA010813E05D45A8
:1051F00011D1009918EA010F0DD1D9F80810009AC1
:105200009143C9F80810D9F80C109143C9F80C1053
:105210000198FFF75EF8207804442078002898D1A0
:105220005046BDE8FC9FFFE70020FAE79000002011
:105230000D5B00083A5C0008CE5B000839000020D6
:105240000107890E01F1804202F5A042D2F8001C4C
:1052500010F0800F05D048F6CF700840C2F8000C5F
:1052600070474CF68F700840C2F8000C7047FEF78C
:105270000BBF10B5FFF7DCFBBDE81040FEF708BF21
:10528000002918BF704740F080000149086070474E
:105290004C5C00400107890E01F1804202F5A042FA
:1052A000D2F8001C10F0800F07D081F0100048F6F3
:1052B000BF710840C2F8000C704781F480504BF673
:1052C0008F710840C2F8000C7047000001490020AF
:1052D000FFF7ACBC9000002000221146802000F0B7
:1052E00009B8000001490020FFF7A0BC941100207C
:1052F000704700002DE9F001284F054600F00F0629
:105300007868274B00EB0610006803EB4000531C45
:10531000012B1CD95B081AD0001F4FF0000C13F0B2
:10532000010F05D0B1F800C040F804CF4FF0010CD8
:105330005B080CD001EB4C045B1EB4F80080C0F895
:105340000480648840F8084F0CF1020CF2D17868B0
:1053500000EB06104260B00000F1804000F5A04074
:10536000D0F8000C00F03000102813D02807800E71
:1053700000F1804101F5A041D1F8000C15F0800F3B
:105380000EBF4BF68F7380F0300048F6BF731840A5
:10539000C1F8000CBDE8F001104670474400002041
:1053A000006000402DE9F05F654D2C68654F664E4A
:1053B00014F4806FA5F104083BD000202860316808
:1053C00000290EBF00224FF400514A0011433A68F1
:1053D000002A18BF4FF4007241EA020214BF4FF4D2
:1053E0008071002142EA010141F41C41C8F800101B
:1053F000574B56494FF04002186048684FF0C003C1
:1054000002604FF0800282600B8048F2FF71C16041
:1054100050494FF4485008604F48026000F06EFA5F
:105420004E48016800291CBF084680476FF4806021
:10543000286014F4006F14D0D8F8000040F0080081
:10544000C8F80000D8F8000040F00400C8F80000D8
:105450004348016800291CBF084680476FF400607C
:10546000286014F4805F0ED0D8F8000020F0080007
:10547000C8F800003B48016800291CBF0846804767
:105480006FF48050286014F4007F06D0386800283C
:1054900018BF80476FF40070286014F4804F07D065
:1054A000306810B13168022088476FF4804028606E
:1054B00014F4005F07D0306810B1316801208847CC
:1054C0006FF400502860286810F4004F08BFBDE852
:1054D000F09F6FF40049DFF8908040F68F7A48F62D
:1054E0000F7B00BFC5F8009000F00F06B00000F180
:1054F000804707F5A047D7F8004C14F4004F0CD0B4
:1055000004EA0A00C7F8000C58F8261029B114F470
:10551000006F0CBF04200220884714F0800F09D0D0
:1055200004EA0B00C7F8000C58F8261000291CBF2D
:1055300008208847286810F4004FD3D1BDE8F09FB9
:10554000445C00403C5B0008405B000844000020D5
:10555000505C0040005C00404C5C0040305B000848
:10556000345B0008385B0008445B000801490120F7
:10557000087070472000002001498860FBF7D4BA0A
:105580000000002002E008C8121F08C1002AFAD15A
:1055900070477047002001E001C1121F002AFBD1B3
:1055A00070470000FCF75CFF324EB06940F01C0011
:1055B000B061324F30493846FBF71CFD3049314865
:1055C000FBF718FD30493148FBF714FDB06940F096
:1055D0000400B0612E4C751525602E493846FBF746
:1055E00009FDB06940F00400B061A61526602A49A3
:1055F0003846FBF7FFFC26604FF0E0262748706135
:105600002749F02081F8140D0020B0610720306197
:105610006FF00400FCF7E6FE306920F00100306115
:10562000201F056020491F484860016808388847E6
:105630000A20FBF725FC00F051F9012000F046F8A4
:1056400000F03CF838B925600A20FBF719FC00F09F
:1056500035F80028F7D0306940F00100306164204F
:10566000FBF70EFCFEF75EFC00F0C0F8FAF77EFDDB
:10567000FAE7000000100240C85900080008014085
:10568000CC590008000C0140D0590008001001401E
:1056900014080140AC590008B05900083F771B00BE
:1056A0000FE000E0DC5900080000002010B500F019
:1056B0008FF8BDE81040FEF725BC00000248407896
:1056C000002800D00120704770000020FEF7BABD0E
:1056D0000020704710B59446012802D10BB1012B70
:1056E00001D0002010BD114C2069E168884201BF43
:1056F000A078002801206070F3D00D4821694FF098
:10570000400200EB81116046FAF70CFD2069401C55
:10571000206121690020402908BF20612169E268D9
:10572000914208BFA070402010BD00004C00002036
:10573000D62200202DE9F04107461F481646008872
:10574000824202DD0020BDE8F0811C48007800287C
:10575000F9D01B4C01224FF00008E26000E0B0B12C
:10576000626A12B1A269002AF9D1164D3246681C4C
:105770002F70FAF7D7FCE5611349A4F80480B0B2A2
:105780006080097801290BD86D1CE5610AE0C4F836
:105790000C80C4F81C80A4F80480A4F80280D1E72F
:1057A000401C60800020FFF709F8084800F80780D7
:1057B0000120C4F80C80C6E71E5B000871000020C1
:1057C000D8000020D41100201C5B00083E000020FF
:1057D00005480021017041608160012242708170A2
:1057E000C1600161704700004C00002070B51C4C86
:1057F000A0686168884202BF2078002870BD194DFA
:10580000E068A26805EB8011A5F5805000EB8210DE
:10581000FBF736FDA068401C402808BF0020A060B0
:10582000A16862680020914208BF2070617849B188
:105830006070E068402205EB80110020FFF77AFFDE
:10584000012070BDE068401C402808BF0020E060D7
:10585000E0682169884204BF0120A070F0E70000E1
:105860004C000020D622002070470000022818BFFC
:105870007047002B08BF704710B5107811460728F5
:105880001DD0134C207820B16068A268904208BFF8
:1058900010BD1048626800EB82101A46FAF742FC0D
:1058A0006068401C60606068402804BF0020606041
:1058B0006068A168884204BF0120207010BD0648BE
:1058C0000068002808BF10BD8068BDE81040004790
:1058D0004C000020D612002004000020054910B51D
:1058E0000020C870FFF7E2FEFFF79EF9BDE8104008
:1058F000FFF78AB9700000207047000006484FF09B
:10590000011201780548C180002101704170C0E991
:1059100002210161704700000C5B0008700000204C
:1059200070B51D4D0446294640F6C540FBF78EFE76
:105930000122521C642AFCD3184E40F6DD40314649
:10594000FBF784FE0222521C642AFCD3294640F64F
:10595000C540FBF77BFE0221491C6429FCD331467C
:1059600040F6DD40FBF772FE0D4814F0010F4FF0DA
:10597000010107D00B4A1160016821F00F0141F0CD
:10598000480106E0026822F00F0242F007020260BE
:105990000548016070BD00000CED00E00700FA054D
:1059A000000C0140100C0140140C014000020310D7
:1059B0000001031000800314800000040060031045
:1059C0000060000401000048FF870000FFFF0000A6
:1059D00000E00000711400089914000879550008CF
:1059E000D90100086D550008322E302E300000001D
:1059F00003020202390600000038014000A24A04F6
:105A000000000000645A00080000000000000000D0
:105A10000000000022002200250000006C5A00084F
:105A2000745A0008241100203811002039060000A3
:105A300000440040005125027C5A0008845A0008A6
:105A40000000000000000000000000002300230010
:105A5000260000008C5A0008945A00085C110020AF
:105A600070110020000801400A00000044000240BC
:105A70000104000058000240010500000008014038
:105A80000200000000080140030000008000024006
:105A9000010700006C00024001060000553C0008B0
:105AA000A927000841290008292A00084D290008D3
:105AB0006529000859290008D1290008152900087E
:105AC0003D2800089D2700085D280008712900086E
:105AD000B5270008553C00089D2A0008352C000811
:105AE0001D2D0008412C0008592C00084D2C0008E1
:105AF000C52C0008092C0008312B0008912A000849
:105B0000512B0008652C0008A92A0008000003009A
:105B10004002030301004000400004000101400076
:105B20004000000102024000400040004000000030
:105B30006F520008000000000000000073520008CF
:105B40000000000039430008C33E0008A53E0008DD
:105B5000A54900080000000000000000000000004F
:105B60000000000000000000000000000000000035
:105B70000000000000000000000000000000000025
:105B8000000000004142000800000000000000008A
:105B9000000000000600FF0901A101150026FF001A
:105BA000750895400901810295400901910295010E
:105BB0000901B102C0002100540012010002EF02ED
:105BC000014083042A570001010203010000090279
:105BD0006B0003010080FA080B00020202010409B5
:105BE0000400000102020004052400100105240144
:105BF0000101042402020524060001070581034077
:105C0000000209040100020A000005070502024023
:105C100000000705820240000009040200020300A0
:105C2000000609210001000122210007058303402D
:105C30000001070503034000010000000000040309
:105C40000904220343004D005300490053002D0076
:105C50004400410050002000620079002000410013
:105C600052004D00140343004D00530049005300FF
:105C70002D004400410050001A0330003000300075
:105C80003100410030003000300030003000300082
:105C900030001C0343004D005300490053002D0009
:105CA00044004100500020004300440043001C0316
:105CB00043004D005300490053002D0044004100B3
:105CC00050002000440043004900140343004D00ED
:105CD0005300490053002D004400410050000000D3
:105CE000005D000800000020080100008455000845
:105CF000085E000808010020D04500009455000807
:105D000003000000000000000000000000A24A04A0
:105D1000000000000000000001020304060708095B
:105D20000000000000000000000000000000000073
:105D30000000000000000000000000000000000063
:105D400000000000000000000060004000000000B3
:105D50000000000000000000000000000000000043
:105D6000000000000000000000C201000000000070
:105D70000000000000000000000000000000000023
:105D80000000000000000000000000000000000013
:105D90000000000000000000000000000000000003
:105DA00000000000000000000000000000000000F3
:105DB00000000000000000000000000000000000E3
:105DC00000000000000000000000000000000000D3
:105DD00000000000000000000000000000000000C3
:105DE00000000000000000000000000000000000B3
:105DF00000000000000000000000000000000000A3
:085E000000000000000000009A
:0400000508000101ED
:00000001FF
