:020000040800F2
:100000000047002001010008AD190008AD190008E3
:10001000AD190008AD190008AD1900080000000076
:10002000000000000000000000000000AD19000802
:10003000AD19000800000000AD190008B543000824
:100040001B0100081B0100081B0100081B01000820
:100050001B0100081B0100081B0100081B01000810
:100060001B0100081B0100081B01000831110008DA
:100070004D11000869110008CD110008F1110008A8
:1000800015120008791200081B0100081B01000866
:10009000F57100081B0100081B0100081B01000886
:1000A0001B0100081B0100081B0100081B010008C0
:1000B0001B0100081B0100081B0100081B010008B0
:1000C0001B0100081B0100081B0100081B010008A0
:1000D0001B01000835480008794A00081B01000888
:1000E0001B0100081B0100081B010008DFF80CD0F1
:1000F00000F02AF800480047F57300080047002088
:100100000648804706480047FEE7FEE7FEE7FEE7B1
:10011000FEE7FEE7FEE7FEE7FEE7FEE781440008B4
:10012000ED00000840EA01039B0703D009E008C97D
:10013000121F08C0042AFAD203E011F8013B00F8AC
:10014000013B521EF9D27047064C074D06E0E068AD
:1001500040F0010394E8070098471034AC42F6D30E
:10016000FFF7C8FF547B0008747B000870B5174E7A
:10017000F06A804710F0020F08BF70BD144C25686C
:10018000706A804761682844411AB1F5806FA4BF46
:100190006068084415DA0029D8BF70BD6068C0F3F4
:1001A0000900C0F5806081420DDC6068094AC0F337
:1001B0000900104405F0B2FC0028C6BF616808447D
:1001C00070BD606070BD0146EFE70000487900082F
:1001D00060000020FE3200202DE9F04F027883B04D
:1001E000A2F180031F2B04D800F072FC03B0BDE81D
:1001F000F08F0A704F1C10F8011B06461F2980F073
:100200005684DFE811F01F005E007A0093009D0223
:10021000AB02B102540407049C00A300540454042C
:10022000540454045404AA0054017F018F01F601C0
:100230001A027D022E04330438043D0442044B04A8
:100240009E0146043178781C0024062933D006DC50
:10025000052930D2DFE801F02F2F2F2F0E00FD29C6
:1002600018D002DCF02926D10AE0FE2920D0FF298F
:1002700018D020E006242246FD49FFF753FF1AE07C
:10028000FC490968002918BF202141F017010170BD
:10029000012410E000211022017042708170C170B1
:1002A000042408E04021017000214170022402E092
:1002B0004021017001243C7003B004F10210BDE83C
:1002C000F08F307830B101280BD0FF203870EA4829
:1002D00000F0E8BBE9497078096800F0010009689E
:1002E00005E0E6497078096800F001004968884730
:1002F00000203870E04800F0D5BB3478002C0CBFEB
:100300000124012C06D0022C18BF002408D03C7018
:1003100000F012BADA490120087002F097FDF6E702
:10032000D7490220087002F033FDF0E7D4480024DA
:10033000047002F063FD3C70012000F0B3BB308814
:1003400000EB4000C000401EFDD1D1E701207870D5
:1003500000203870022000F0A5BB357874787079E1
:10036000D6F8026014F0010F60F31F660CD0C54888
:1003700015F0010F416841F0806141604FF4804009
:100380000CBFC149C149086014F0020F0CD0BD4830
:1003900015F0020F416841F0806141604FF4005058
:1003A0000CBFB949B949086014F0040F08D0A80877
:1003B00010F0010F4FF020000CBFB549B54908609F
:1003C00014F0800F1CBFE80907F0D8F9F6B301223A
:1003D000DFF8C4C2DCF80410B04EDFF8C492A948BC
:1003E000A6F10408A9F1040A14F0010F08D043682B
:1003F00043F0806343603368C3F38033AB4229D159
:1004000014F0020F0AD0436843F080634360D8F8C9
:100410000030C3F34033B3EB550F1BD114F0040F7E
:1004200006D0D9F80030C3F34013B3EB950F11D1C8
:1004300014F0200F18BF5FEA55130BD114F0800F92
:100440000DD0DAF80030C3F3801300E007E0B3EB1F
:10045000D51F04D0DCF804305B1A9342C4D389481A
:10046000416841F0806141608C4909684268C1F38C
:10047000803142F0806242608A480068C0F34030B8
:1004800041EA40008649096801F0200140EAD101B3
:1004900085480268006802F0800241EA121100F00B
:1004A000400041EA40003870804800F0FBBAF27822
:1004B000306862F31F6088B17D4A824213D8704869
:1004C0000122427042606E480278022A08BF491C2D
:1004D000416000203870774800F0E4BAFF2038709F
:1004E000744800F0DFBA664A002151707249014435
:1004F000B1FBF0F0022891BF01217049A1FB00106F
:100500004108E0E73478711C002C08BF4FF4807478
:10051000204603F0A1FD00203870E01DC008012135
:10052000401CE9E0307800F003014A1C5449C0F354
:1005300080000A764876002038704FF0011000F0F5
:10054000B1BA002007F8010B012516F8010BA846E7
:10055000B0F1010928BFDFF82CA146D316F8014BF2
:1005600014F03F0008BF4020C01D4FEAD00BDAF85E
:10057000040014F0800F40F08060CAF80400504876
:10058000016821F4700114BF41F4000141F44011ED
:1005900001604FF4005014BF3C493B4908603A46A3
:1005A0003146204602F0DAFEB9F1000F0FD1DAF839
:1005B000040040F08060CAF804004148016821F45A
:1005C000700141F44011016041142F48016014F0A2
:1005D000800F03D05F44D8446D1C03E005EB0B0093
:1005E0005E44451CB9F10109B8D248EA054000F063
:1005F00059BA002007F8010B012516F8010BA8468F
:10060000B0F1010AF1D300BF16F8019B19F03F00C9
:1006100008BF4020C01DC4083A463146484601F094
:10062000FFFC2819451C264419F0800F1CBF2744E5
:10063000A044BAF1010AE7D2D7E7114D16F8014BF1
:100640000020AC769CB105F11C0205F12403214683
:1006500016F801CB02F801CB23F8020B6044491EC7
:10066000F6D124B105F11B0305F132022AE03FE087
:100670005C7800080C000020010002000800002047
:10068000080100200000014014080140100801404A
:10069000140C0140100C0140001000E00C08014057
:1006A0000C0C014008080140080C01400100060044
:1006B00080A8120101000400FF502502ABAAAAAADB
:1006C0000408014014F0010F04D013F8011F401A70
:1006D00022F8020F5FEA540C0AD05978401A508071
:1006E00013F8021F401A22F8040FBCF1010CF4D1D8
:1006F00000203870601C012141EA004000F0D2B9AE
:10070000EF480178022915D13178C176807E814287
:1007100010D20E2001F094F901F0B6FB00213970DF
:100720007870010AB970010CF970000E3871E54853
:1007300000F0B8B9FF2038704FF0011000F0B2B9E6
:10074000DF4831780173B6F801100182B6F8031062
:10075000418200203870DC4800F0A4B939463046A8
:1007600000F0CEF900F09EB9D548007801280FD0EE
:10077000022877D0002038707870B8700320F178A4
:1007800011F0020F18BF40F4802040F08B8139E156
:10079000DFF838934FF0000A504607F1030889F854
:1007A00000A0741C34F8025B7DB314F801BB1BF08D
:1007B000020F04BF681E019043D01BF0010F1CBF45
:1007C000BF48048A0FD00021584602F057FE022885
:1007D00002D0012807D061E0641E5FD399F80010B1
:1007E0000029F0D05AE06C1E58D324B91BF0010F39
:1007F00018BF4FF00E0BB248058A6946584602F002
:100800003DFE022802D0012807D047E06D1E45D3E7
:1008100099F800100029F0D040E0009908F8011B79
:1008200000990AF1010A090A08F8011B0099090C4C
:1008300008F8011B0099090E08F8011B641ED4D2A8
:100840002CE0E17854F8040B61F31F6000909C48A1
:10085000058A6946584602F011FE022803D0012895
:1008600008D01BE023E06D1E18D399F80010002972
:10087000EFD013E001980AF1010A401E0190E0D286
:100880008F48048A00210E2002F0F8FD022805D1CD
:10089000641E03D399F800100029F3D087F800A054
:1008A0004FEA1A217970B870A8EB070067E7FD1CC2
:1008B0000197864F4FF00008404687F80080804936
:1008C0003278741CCA76897E8A4247D234F802BBD9
:1008D000BBF1000F42D014F8019B19F0010F0CBFBF
:1008E0004FF00A0A4FF00B0A504601F0A9F819F030
:1008F000020F19BF7248048AABF10100029043D085
:100900000021484601F0FAFB022802D0012806D057
:100910006CE0641E6AD339780029F1D066E0BBF13F
:10092000010B63D3BBF1000F0AD06548048A694606
:10093000484601F0E3FB02280BD001280FD055E018
:10094000BAF10A0F1CBF0A2001F07AF84FF00E0925
:10095000EBE7641E4AD339780029E8D046E00099D5
:1009600005F8011B009908F10108090A05F8011BA7
:100970000099090C05F8011B0099090E05F8011BE7
:10098000BBF1010BCED231E0E17854F8040B61F3F6
:100990001F6000904A48B0F810B06946484601F020
:1009A000ADFB022802D0012807D01FE0BBF1010BEC
:1009B0001CD339780029F0D018E0029808F101081A
:1009C000401E0290E0D2BAF10A0F1CBF0A2001F0CB
:1009D00037F83B48048A00210E2001F08FFB0228E3
:1009E00004D1641E02D339780029F4D001994FEA6A
:1009F000182281F8008001994A7001998870019845
:100A0000281ABCE6B6F801104FF4802202EB8141AF
:100A1000084347E02A480178012902D002290BD077
:100A20000FE03179D6F8010061F31F60009069464C
:100A3000002002F023FD10E03178C176807E8142F3
:100A400001D3FF200AE0082000F0FAFF3179D6F840
:100A5000010061F31F6002F003F8002038701A48AB
:100A600020E03946304603F085FC1BE0394630462D
:100A700003F028FC16E03946304603F031FB11E064
:100A80003946304603F04CFB0CE0384603F042FC9C
:100A900008E03946304603F0D7FB03E039463046DC
:100AA00003F066FB03B000F10110BDE8F08FFF20FA
:100AB00007F8010C03B04FF00110BDE8F08F000003
:100AC00008010020050001000100050020000020B1
:100AD000FF2008704FF00110704700000748002108
:100AE00001220170417042600173642303824182DC
:100AF000416102764176817602F080B908010020DA
:100B00002DE9F04FFF4E054600233078FE4F8FB0A1
:100B100001281CD0022800F08881AC466D1C15F815
:100B2000010B50B115F8012B12F0020F02D012F098
:100B3000100F00D02D1D401EF4D10B704B70A5EB93
:100B40000C0002210FB041EA0040BDE8F08FCDE972
:100B500004510020891C0B9000913B7007900A9073
:100B600095F80180AD1CB8F1000F00F0538100BF73
:100B700015F8019B19F0020F79D00799A1B3348AB7
:100B800009F0110001280BD101A9484602F076FCBA
:100B900002280DD1641E44D339780029F4D0A6E090
:100BA00001A90E2002F06AFC022804D0002107915E
:100BB000012836D107E0641E02D339780029EFD02E
:100BC0000021079193E0DDE900120A70019A009973
:100BD000120A01F8012F019A120C01F8012F019A53
:100BE000120E4A70891C009119F0100F40D0E8785D
:100BF00055F804ABB6F812B060F31F6A19F0010F94
:100C000018BF348A0ED00021484602F037FC022873
:100C100002D0012806D06AE0641E68D33978002922
:100C2000F1D064E0348A01A9484602F027FC02288A
:100C300002D0012806D010E0641E0ED339780029B6
:100C4000F1D00AE0726901991140514505D0BBF11C
:100C5000010B02D339780029E4D07169019A11405F
:100C6000514518BF40F01000012840D138E050E055
:100C7000348A19F0010F13D0079989BB0021484627
:100C800002F0FCFB022805D0012804BF01210791D6
:100C900026D02CE0641E2AD339780029EED026E035
:100CA00001A9484602F0EAFB022802D0012806D03A
:100CB0001DE0641E1BD339780029F1D017E0DDE96F
:100CC00000120A70019A0099120A01F8012F019A84
:100CD000120C01F8012F019A120E4A70891C009122
:100CE00000210A910B99491C0B913978F1B3B8F1A5
:100CF000000F0BD015F8011B11F0020F02D011F0FC
:100D0000100F00D02D1DB8F10108F3D101284BD0F0
:100D100080E00798002818BF348A1AD001A90E2055
:100D200002F0ACFB02282ED00128E0D1DDE9000161
:100D3000017001990098090A00F8011F0199090C36
:100D400000F8011F0199090E4170801C00900020DD
:100D50000790E97855F8040B19F0200F61F31F6034
:100D600001901ABF70610120348A00E017E0B9D108
:100D700001A9484602F082FB02280AD0012808BFD8
:100D80000121AED0B3E7641EB1D339780029C5D0B4
:100D9000ADE7641EABD339780029E9D0A7E7B8F1F5
:100DA00001087FF4E5AEB1E70799002918BF348A3E
:100DB00020D001A90E2002F061FB022802D00128F8
:100DC00006D027E0641E25D339780029F1D021E030
:100DD000DDE900120A70019A0099120A01F8012F48
:100DE000019A120C01F8012F019A120E4A70891C07
:100DF00000910FE00A99002918BF348A0AD0002117
:100E00000E2002F03BFB022804D1641E02D3397885
:100E10000029F4D0059A0B9911700599487005992D
:100E20000098411A0498281A8CE600200491891C25
:100E300006950C9000913B7003900A9015F8011BE9
:100E4000F176B27E914280F0628115F8018BB8F1A3
:100E5000000F00F05C8100BF15F8019B19F0010F35
:100E600014BF0B240A2419F0020F74D00A9981B31D
:100E70000398B6F810A0A04208BF19F0100F0FD0C9
:100E800003980A2803D00A20039000F0D9FD02A994
:100E90000E2001F033F9022812D000210A9105E05A
:100EA00002A9484601F02AF9022802D0012841D1BE
:100EB00010E0BAF1010A3DD339780029F0D0D9E029
:100EC000BAF1010A02D339780029E0D000210A9151
:100ED000D0E010E0009A02991170029A0099120A6B
:100EE00001F8012F029A120C01F8012F029A120E3A
:100EF0004A70891C009119F0100F48D0E87855F815
:100F000004AB03E0080100202000002060F31F6A0A
:100F10000398B6F812B0A04203D02046039400F024
:100F20008FFD348A0021484601F0E8F8022802D0FB
:100F3000012806D09EE0641E44D339780029F1D000
:100F400098E0348A02A9484601F0D8F8022803D074
:100F5000012807D011E036E0641E0ED3397800294D
:100F6000F0D00AE0726902991140514505D0BBF1F9
:100F7000010B02D339780029E3D07169029A11403C
:100F8000514518BF40F01000012873D16DE00A9957
:100F9000A1BB0398A04203D02046039400F050FD6B
:100FA000348A0021484601F0A9F8022805D001281A
:100FB00004BF01210A9158D05CE0641E5AD33978ED
:100FC0000029EED056E00A9860B303980A2803D0AF
:100FD0000A20039000F034FDB6F810A002A90E20FC
:100FE00001F08CF8022802D0012808D042E0BAF1C2
:100FF000010A3FD339780029F0D03BE035E0009971
:101000000298087002990098090A00F8011F0299D5
:10101000090C00F8011F0299090E4170801C009014
:1010200000200A90E97855F8040B19F0200F61F3BD
:101030001F6002901CBF7061012016D10398A0426E
:1010400003D02046039400F0FBFC348A02A94846F2
:1010500001F054F8022802D0012806D00AE0641EEC
:1010600008D339780029F1D004E00C99491C0C917F
:10107000397891B1B8F1000F0CD000BF15F8011B01
:1010800011F0020F02D011F0100F00D02D1DB8F199
:101090000108F3D1012805D039E0B8F101087FF447
:1010A000DBAEF7E703980A281CBF0A2000F0C8FC53
:1010B000348A0A9800B302A90E2001F01FF8022812
:1010C00002D0012806D022E0641E20D339780029FE
:1010D000F1D01CE0009A02991170029A0099120A4C
:1010E00001F8012F029A120C01F8012F029A120E38
:1010F0004A70891C00910AE000210E2000F0FEFFDA
:10110000022804D1641E02D339780029F4D0049A4D
:101110000C9911700499487004990098411A069826
:101120000FB0281A41EA0040BDE8F08F7047000078
:10113000044910B5086800F00F004860FFF7F6FF9B
:1011400010BD00000000024070470000044910B5C7
:101150000868C0F3031002014A60FFF7F5FF10BDF5
:101160000000024070470000044910B50868C0F351
:10117000032002024A60FFF7F5FF10BD00000240A5
:101180001148816A09684A680146002A496B496822
:101190001CBF00297047426B5161426B4FF0000148
:1011A00082F8211041688989426841F040019181AB
:1011B000016BC968022908BF7047006B01680029EC
:1011C00008BF70470120084768780008044910B537
:1011D0000868C0F3033002034A60FFF7D1FF10BD77
:1011E00000000240014804F01FBB000068780008BE
:1011F000044910B50868C0F3034002044A60FFF7D1
:10120000F1FF10BD00000240014804F00DBB0000DA
:10121000A0780008044910B50868C0F3035002051F
:101220004A60FFF7F1FF10BD000002401148816ADB
:1012300009684A680146002A496B49681CBF0029B1
:101240007047426B5161426B4FF0000182F82110F0
:1012500041688989426841F040019181016BC96808
:10126000022908BF7047006B0168002908BF70475A
:1012700001200847A0780008044910B50868C0F3A9
:10128000036002064A60FFF7D1FF10BD0000024074
:10129000012818BF704730B43248426942F0010259
:1012A0004261002330480F244FF0E0224FF0010C40
:1012B00008294FD2DFE801F04E040D17222D3843E4
:1012C000836044604FF40060C2F88002C2F80001FD
:1012D00040E0C361F02343604FF48050C2F88002C5
:1012E000C2F8000136E003634FF4706343604FF4CB
:1012F0000050C2F88002C2F800012BE043644FF4B2
:10130000704343604FF48040C2F88002C2F800018D
:1013100020E083654FF4702343604FF40040C2F82F
:101320008002C2F8000115E0C3664FF47003436009
:101330004FF48030C2F88002C2F800010AE0C0F821
:1013400080304FF0706343604FF40030C2F8800289
:10135000C2F8000105480CFA01F10278114301704E
:1013600030BC7047001002400000024038000020EE
:10137000012818BF704730B4DFF8D8C09CF80000CF
:10138000002804BF30BC7047002001244FF0E02249
:10139000314B08294BD2DFE801F04A040E18222C09
:1013A00036404FF40065C2F88051BFF34F8FBFF352
:1013B0006F8F98603BE04FF48055C2F88051BFF3C7
:1013C0004F8FBFF36F8FD86131E04FF40055C2F8F3
:1013D0008051BFF34F8FBFF36F8F186327E04FF437
:1013E0008045C2F88051BFF34F8FBFF36F8F5864B1
:1013F0001DE04FF40045C2F88051BFF34F8FBFF39B
:101400006F8F986513E04FF48035C2F88051BFF3B9
:101410004F8FBFF36F8FD86609E04FF40035C2F8E5
:101420008051BFF34F8FBFF36F8FC3F8800004FA72
:1014300001F09CF8001031EA00008CF800001CBF9D
:1014400030BC70470548416921F00101416130BC61
:1014500070470000380000200000024000100240E9
:1014600045F6C0514843401EFDD1704730B5054692
:101470004FF4302000F04AF8042818BF30BD0A4C61
:10148000206940F0020020616561206940F0400061
:1014900020614FF4302000F039F8216941F6FD72E7
:1014A0001140216130BD0000002002400248016966
:1014B00041F08001016170470020024070B506468E
:1014C0000D464FF4005000F021F8042818BF70BDFD
:1014D000074C206940F00100206135804FF4005036
:1014E00000F014F8216941F6FE721140216170BDCF
:1014F00000200240034802494160034941607047AF
:101500002301674500200240AB89EFCD1749024611
:101510000420CB6813F0010F25D1CB6813F0040F22
:1015200018BF02201AD1C96811F0100F18BF03208C
:1015300014E0CB68042013F0010F18BF01200AD17A
:10154000CB6813F0040F18BF022004D1CB6813F04E
:10155000100F18BF0320521E012804D0002A18BF04
:10156000704705207047002AE3D1FAE700200240C7
:1015700081B0002804BF01B0704714498A6912F095
:10158000010F03D18A6942F001028A6110F4805F81
:10159000C0F3421200F01F030D49C0F3032002FA0A
:1015A00003F200FA03F007D0CB6923EA02021043EA
:1015B0000090C86101B070474B6823EA02021043F3
:1015C00020F0E0600090486001B0704700100240D9
:1015D000000001402DE9F001CB78002203F00F0C50
:1015E00013F0100F1CBF8B7843EA0C0C0B784FF0F4
:1015F0000F0613F0FF0F4FF0010518BF046819D054
:101600000F8805FA02F31F409F420FD1970006FA98
:1016100007F824EA08040CFA07F73C43CF78282F90
:1016200008BF436102D0482F08BF0361521C082A3B
:10163000E6D304600A88FF2A87BF44680022BDE819
:10164000F001704702F108030F8805FA03F31F4009
:101650009F420FD1970006FA07F824EA08040CFA13
:1016600007F73C43CF78282F08BF4361CF78482F36
:1016700008BF0361521C082AE4D34460BDE8F001AE
:10168000704700000F2984BF00207047F0B5044662
:101690000D463448A4F180411F461646B1F5843109
:1016A00004BF8069C0F3800035D0A4F18042B2F558
:1016B000863204BF8069C0F3C0002CD0A4F1804200
:1016C000B2F5883204BF8069C0F3001023D0A4F1C2
:1016D0008042B2F58A3204BF8069C0F340101AD04C
:1016E000A4F18042B2F58C3204BF8069C0F380104F
:1016F00011D0A4F18042B2F58E3204BF8069C0F3EC
:10170000C01008D0A4F18042B2F5903204BF8069C5
:10171000C0F3002000D118B90121204600F024F8C0
:101720006FB90120A840022E04BFE16821EA000041
:1017300004D0032E03D1E16802260843E060082D9F
:1017400024BF241D083D2168A8000F228240914338
:10175000216047EA860101FA00F021680843206011
:101760000120F0BD001002402DE9F001344A354B54
:10177000DFF8D4C0354C364D364E374FDFF8DC80BD
:1017800000292FD0404504BF906940F0040025D0C7
:10179000984204BF906940F008001FD0604504BF24
:1017A000906940F0100019D0A04204BF906940F049
:1017B000200013D0A84204BF906940F040000DD033
:1017C000B04204BF906940F0800007D0B84207BF24
:1017D000906940F48070BDE8F00170479061BDE809
:1017E000F0017047404504BF906920F00400F5D037
:1017F000984204BF906920F00800EFD0604504BF14
:10180000906920F01000E9D0A04204BF906920F058
:101810002000E3D0A84204BF906920F04000DDD052
:10182000B04204BF906920F08000D7D0B84204BF16
:10183000906920F48070D1D0BDE8F00170470000BD
:1018400000100240000C0140001001400014014053
:1018500000180140001C0140002001400008014028
:101860002DE9F0410278FF27A2F1D003072B7AD8A7
:1018700001F8012B0C4610F8011BD03908296ED253
:10188000DFE801F0041215181C2A4A5E404800687F
:1018900004F8010B010A04F8011B010C04F8011BF8
:1018A000000E04F8010B5BE0FFF724FE58E0FFF7A1
:1018B000FDFD55E00068FFF7D9FD51E08288016821
:1018C000501E80B24CD300BF11F8012BFF2A1BD150
:1018D000401E80B2F8D243E08188D0F800803829D9
:1018E0003ED8851D481E86B23AD300BF15F8011BAD
:1018F0002EB115F8010B41EA0021701E86B2404658
:10190000FFF7DCFD042801D0FF2729E0711E8EB20D
:1019100008F10208EAD223E0828801683E2A1FD833
:10192000002004F8010B501E80B219D330B111F819
:10193000012B401E04F8012B80B2F7E70F780FE06F
:10194000BFF34F8F13480168134A01F4E06111435C
:101950000160BFF34F8F00BFFDE704E0FFE7641EA7
:101960002770BDE8F0810D480268002A02BFFF2001
:101970000870BDE8F0810A490A48C368806801EB35
:101980008311094B5268BDE8F04103EB801010470A
:10199000002004E00CED00E00400FA050400002043
:1019A000FE2200204C000020FE12002072B61D48CE
:1019B000006880F308881C4EB06940F01000B061E8
:1019C0001A4C4FF40055656119492046FFF702FE95
:1019D000B06940F01000B061656116492046FFF71C
:1019E000F9FD2561002665616420FFF739FD256159
:1019F00065616420FFF734FD25614FF47A70FFF7CD
:101A00002FFD761C052EEEDBBFF34F8F0A480168D1
:101A10000A4A01F4E06111430160BFF34F8F00BF38
:101A2000FDE7000000000008001002400010014027
:101A3000087800080C7800080CED00E00400FA05B6
:101A40002DE9F04FFE49DFF8FCB30A4691F801900A
:101A5000D77E02F11C0A02EB47054FF400584FF005
:101A6000200CF94BF94C1A1F4FF48046B9F1000FC6
:101A700000F0C880616841F080616160C146C2F8D1
:101A80000080616841F0806161601E60616841F0C2
:101A9000806161601660616841F0806161601E6014
:101AA000616841F0806161601660616841F0806149
:101AB0006160C3F80080616841F0806161601E6010
:101AC000616841F0806161601660616841F0806129
:101AD00061601E60616841F0806161601660CBF8F2
:101AE00000C0A98C81B100BFD4F8048048F08068A0
:101AF000C4F804801E60D4F8048048F08068C4F8FC
:101B000004801660491EEFD117F80A10491E18BF4D
:101B1000DFF83C8314D000BF10F0010F14BFCBF8E6
:101B200000C0C8F800C0676847F0806767601E6043
:101B3000676847F08067676016604008491EEBD110
:101B4000A98E00294FD010F0010F06BFC048C0F881
:101B500000C0CBF800C0606840F0806060601E602C
:101B6000606840F0806060601660CBF800C0481E7E
:101B70000BD0616841F0806161601E60616841F076
:101B8000806161601660401EF3D1606840F0806043
:101B90006060C2F80090606840F0806060601E6025
:101BA000606840F0806060601660606840F080604F
:101BB00060601E60606840F0806060601660606811
:101BC00040F080606060C3F80090606840F0806022
:101BD00060601E60606840F0806060601660CBF8F6
:101BE00000C0BDE8F08F616841F080616160C2F8BB
:101BF000009010F0010F12BFCBF800C09448C0F85D
:101C000000C0C8E7D4F8049049F08069C4F8049093
:101C10009146C2F80080626842F0806262601E6095
:101C200049680A46521EFDD1626842F080626260D5
:101C3000C9F800600A46521EFDD1626842F0806217
:101C400062601E600A46521EFDD1626842F08062E8
:101C50006260C9F800600A46521EFDD1626842F017
:101C6000806262604FF400521A60626842F08062E3
:101C700062601E600A46521EFDD1626842F08062B8
:101C80006260C9F800600A46521EFDD1626842F0E7
:101C9000806262609E461E600B465B1EFDD16268DC
:101CA00042F080626260C9F800600A46521EFDD1AF
:101CB000CBF800C0AB8C002B18BFF04613D0626885
:101CC00042F080626260C8F800600A46521EFDD190
:101CD000626842F080626260C9F800600A46521E83
:101CE000FDD15B1EEBD117F80A20531E1FD0DFF881
:101CF00060A177464FEA090810F0010F14BFCBF836
:101D000000C0CAF800C0626842F0806262603E6053
:101D10000A46521EFDD1626842F080626260C8F8D5
:101D200000600A46521EFDD140085B1EE4D1AA8E17
:101D3000F2B310F0010F06BF4548C0F800C0CBF861
:101D400000C0606840F080606060CEF800600846C7
:101D5000401EFDD1606840F080606060C9F800609E
:101D60000846401EFDD1CBF800C0521E13D060685B
:101D700040F080606060CEF800600846401EFDD1F3
:101D8000606840F080606060C9F800600846401EEE
:101D9000FDD1521EEBD1606840F0806060604FF46E
:101DA0000050C9F80000606840F08060606000E0AA
:101DB0000EE0CEF800600846401EFDD1606840F09D
:101DC00080606060C9F800600846401EFDD121E0D7
:101DD000626842F0806262604FF40052C9F80020ED
:101DE00010F0010F12BFCBF800C01948C0F800C0B6
:101DF000606840F080606060CEF800600846401E79
:101E0000FDD1606840F080606060C9F800600846FD
:101E1000401EFDD1606840F080606060CEF80060D8
:101E20000846401EFDD1606840F080606060C9F8DF
:101E300000600846401EFDD1606840F0806009E007
:101E400008010020100C014014080140000001406E
:101E5000140C014060604FF40050CEF80000606840
:101E600040F080606060CEF800600846401EFDD102
:101E7000606840F080606060C9F80060491EFDD174
:101E8000CBF800C0BDE8F08F2DE9F003604A506840
:101E900040F0806050605F4C55142560506840F001
:101EA0008060506004F1040C6B00CCF800305A4E96
:101EB00070680146401EFDD1506840F0806050605F
:101EC00023600846401EFDD1506840F0806050609D
:101ED000CCF80050506840F080605060CCF8003082
:101EE0000846401EFDD1506840F08060506023607D
:101EF0000846401EFDD1506840F080605060CCF82C
:101F000000300846401EFDD1506840F080605060AF
:101F100023600846401EFDD1F67E96B1506840F021
:101F200080605060CCF800300846401EFDD15068FB
:101F300040F08060506023600846401EFDD1761E50
:101F4000ECD1364F00264FF01F08506840F08060FB
:101F50005060CCF800300846401EFDD13868C0F310
:101F6000C019506840F08060506023600846401EF1
:101F7000FDD146EAC9704608B8F10108E5D15068BC
:101F800040F0806050602560506840F08060506094
:101F9000CCF800300846401EFDD13868C0F3C017A9
:101FA000506840F08060506023600846401EFDD1BC
:101FB00046EAC770566846F080665660CCF8003036
:101FC0000E46761EFDD1566846F080665660236048
:101FD0000E46761EFDD1566846F080665660CCF8F7
:101FE0000050556845F080655560CCF800308C464F
:101FF00065466D1EAC46FBD1D2F804C04CF0806C37
:10200000C2F804C02360491EFDD1BDE8F00370474B
:10201000000001401008014008010020080C0140A8
:102020002DE9F74F009810F03F0308BF402310F050
:10203000400F2D4E2B4F4FF400507268A7F104084B
:1020400042F08062726014BFC8F800003860002B54
:1020500004BF03B0BDE8F08F4FF02009DFF88CE03B
:102060004FF4804A2248002511F801CB0824426829
:1020700025E000BF1CF0010F14BF1E481E48C0F829
:102080000090706840F080607060C7F800A0104653
:10209000401EFDD1DEF80000C0F3C01B706840F0A8
:1020A00080607060C8F800A01046401EFDD168082E
:1020B0005B1E4FEA5C0C40EACB15641E01D0002B7E
:1020C000D8D1009A25FA04F012F0800F04D0029AB9
:1020D00010700298401C0290002BC3D103B0BDE8E1
:1020E000F08F00001408014000000140080C01407E
:1020F00008010020100C0140140C0140034A5278E2
:102100000AB100F005B800F00BBA00000801002089
:102110002DE9F84FFA4A536843F080635360DFF8C3
:10212000E4C34FF40058CCF80080536843F0806358
:1021300053600CF1040B4FF48043CBF8003054682B
:1021400044F080645460CCF80030546844F08064FB
:102150005460CBF80080546844F080645460CBF83D
:102160000030546844F080645460CCF80030546807
:1021700044F080645460CBF80030546844F08064CC
:102180005460CCF80030E04CE47E6CB1556845F00A
:1021900080655560CBF80030556845F08065556026
:1021A000CCF80030641EF1D14408DFF8609314F0DD
:1021B000010F4FF020051ABFD54C2560C9F800501B
:1021C000546844F080645460CBF80030D14F3C68D0
:1021D0005668C4F3C01446F080665660CCF80030F0
:1021E0006600840814F0010F1ABFC94C2560C9F8B5
:1021F0000050546844F080645460CBF800303C6870
:10220000D2F804A0C4F3C0144AF0806AC2F804A053
:10221000CCF800302643C40814F0010F1ABFBC4CA0
:102220002560C9F80050B64C626842F08062626076
:10223000B94B4FF480421A603B68D4F804A0C3F352
:10224000C0134AF0806AC4F804A0DFF8B8C2CCF822
:10225000002046EA830EBEF1010F1AD023465968CA
:1022600041F0806159606246C2F80080596841F0CF
:102270008061596002F1040C4FF48041CCF80010E9
:10228000D3F804C04CF0806CC3F804C0116000F0B7
:10229000E5B89D4A10F0020F937ED27EA3EB0202B6
:1022A00000927DD0974E0023DFF854C21F224FF4D6
:1022B000804406F1040900BFDCF804A04AF0806AFB
:1022C000CCF804A0C9F80040D7F800A04FEADA1B08
:1022D000DCF804A04AF0806ACCF804A0346043EA39
:1022E000CB735B08521EE7D1009A521E3DD0DCF83A
:1022F00004A04AF0806ACCF804A0C9F800403F6806
:10230000C7F3C01ADCF8047047F08067CCF804709B
:102310003460521E11D000BFDCF8047047F08067B3
:10232000CCF80470C9F80040DCF8047047F080670E
:10233000CCF804703460521EEED1DCF8042042F078
:102340008062CCF80420C6F80080DCF8042042F05B
:102350008062CCF80420C9F80040DCF8042042F088
:102360008062CCF80420346019E0DCF8042042F0EC
:102370008062CCF80420C6F80080DCF8042042F02B
:102380008062CCF80420C9F800403A68C2F3C01A51
:10239000DCF8042042F08062CCF80420346000E0D5
:1023A00005E043EACA72002918BF0A6056E00A68CD
:1023B000544C1F23DFF858A151494FF4804C261D7F
:1023C00012F0010F14BFCAF80050C9F800504F684E
:1023D00047F080674F60C6F800C04F6847F08067DD
:1023E0004F60C4F800C052085B1EE9D1009B5B1E21
:1023F00077D012F0010F0CBFC9F80050CAF8005096
:102400004A6842F080624A60C6F800C04A6842F0FA
:1024100080624A60C4F800C05A1E0DD04B6843F079
:1024200080634B60C6F800C04B6843F080634B602C
:10243000C4F800C0521EF1D14A6842F080624A607E
:10244000C4F800804A6842F080624A60C6F800C062
:102450004A6842F080624A60C4F800C0284A516865
:1024600041F0806151602C494FF480430B60D2F8F9
:1024700004C04CF0806CC2F804C0A1F1040CCCF88C
:102480000030546844F080645460C1F8008054689F
:1024900044F0806454600B60546844F0806454607D
:1024A000CCF800301A4C256010F0800F03D01B4888
:1024B0004068154CA0601448007B00280DDD54686E
:1024C00044F0806454600B60546844F0806454604D
:1024D000CCF80030401E0028F1DC7046BDE8F88FD3
:1024E000FFE74B6843F080634B60C4F8008012F054
:1024F000010F14BFCAF80050C9F80050A2E700004D
:10250000000001401008014008010020140C0140A7
:10251000100C0140080C014014080140001000E0BC
:102520002DE9F04FDFF808C482B0DCF8042042F057
:102530008062CCF80420FF4E4FF4005EC6F800E045
:10254000DCF8042042F08062CCF80420351D4FF402
:1025500080442C60DFF8E0A3DAF8042013465B1E09
:10256000FDD1DCF8043043F08063CCF804303460F3
:1025700013465B1EFDD1DCF8043043F08063CCF8D9
:102580000430C5F800E0DCF8043043F08063CCF898
:1025900004302C6013465B1EFDD1DCF8043043F0A0
:1025A0008063CCF80430346013465B1EFDD1DCF848
:1025B000043043F08063CCF804302C6013465B1E7B
:1025C000FDD1DCF8043043F08063CCF80430346093
:1025D00013465B1EFDD19AF81B70AFB1DCF80430D6
:1025E00043F08063CCF804302C6013465B1EFDD1B1
:1025F000DCF8043043F08063CCF8043034601346D8
:102600005B1EFDD17F1EE9D14308DFF8309313F044
:10261000010F4FF020071ABFC94B1F60C9F80070A7
:10262000DCF8043043F08063CCF804302C601346AF
:102630005B1EFDD1DFF80C83D8F80030C3F3C01B5C
:10264000DCF8043043F08063CCF804303460134687
:102650005B1EFDD183084FEA4B0B13F0010F1ABF2D
:10266000B74B1F60C9F80070DCF8043043F080639A
:10267000CCF804302C6013465B1EFDD1D8F8003036
:10268000C3F3C01ADCF8043043F08063CCF80430A4
:10269000346013465B1EFDD1C3084BEA0A0A13F0EF
:1026A000010F1ABFA64B1F60C9F80070DCF8043098
:1026B00043F08063CCF80430A34B1C6013465B1ED0
:1026C000FDD1D8F80030C3F3C015994BD3F804C03E
:1026D0004CF0806CC3F804C0DFF858C24FF480435C
:1026E000CCF8003013465B1EFDD14AEA8503019306
:1026F000012B1ED08E4B596841F080615960DFF884
:1027000034C2CCF800E0596841F0806159600CF1A6
:1027100004014FF480440C601146491EFDD15968F4
:1027200041F080615960CCF80040521EFDD100F0AC
:1027300037B9DFF804C210F0020F9CF81A309CF889
:102740001BC0A3EB0C03009370D0DFF8FCA1784D05
:1027500000244FF01F0CAAF104094FF480466B6867
:1027600043F080636B60CAF8006013465B1EFDD1C6
:10277000D8F80030C3F3C01B6B6843F080636B6014
:10278000C9F8006013465B1EFDD144EACB735C08B8
:10279000BCF1010CE3D1009BB3F1010C6B6843F079
:1027A00080636B601CBFCAF8006013463FD05B1E9D
:1027B000FDD1D8F80030C3F3C0186B6843F08063D4
:1027C0006B60C9F8006013465B1EFDD1BCF1010CC3
:1027D00014D06B6843F080636B60CAF800601346E6
:1027E0005B1EFDD16B6843F080636B60C9F80060CD
:1027F00013465B1EFDD1BCF1010CEAD16B6843F0BE
:1028000080636B60C9F800E06B6843F080636B60C5
:10281000CAF8006013465B1EFDD16B6843F080630D
:102820006B60C9F80060521EFDD117E01CE0C9F8CA
:1028300000E06B6843F080636B60CAF80060134689
:102840005B1EFDD1D8F80030C3F3C0186B6843F0AD
:1028500080636B60C9F80060521EFDD144EAC87203
:10286000002918BF0A609BE0DFF8DC80DFF8D0A009
:102870002F4C0B684FF01F0CA8F104064FF4804555
:1028800013F0010F14BFCAF80070C9F80070616836
:1028900041F080616160C8F800501146491EFDD1C9
:1028A000616841F08061616035601146491EFDD16B
:1028B0005B08BCF1010CE3D10099491E53D013F021
:1028C000010F0CBFC9F80070CAF80070636843F0CC
:1028D00080636360C8F8005013465B1EFDD16368D7
:1028E00043F080636360356013465B1EFDD14B1E71
:1028F00012D0616841F080616160C8F800501146F3
:10290000491EFDD1616841F080616160356011460A
:10291000491EFDD15B1EECD1616841F080616160B0
:10292000C6F800E0616841F0806161600EE000007F
:10293000000001401008014008010020140C014073
:10294000100C0140080C014014080140C8F8005068
:102950001146491EFDD1616841F0806161603560BA
:10296000521EFDD11CE0616841F080616160C6F8D3
:1029700000E013F0010F14BFCAF80070C9F800702E
:10298000616841F080616160C8F800501146491EDD
:10299000FDD1616841F0806161603560521EFDD1FA
:1029A000294B596841F080615960284C4FF4804CA4
:1029B000C4F800C0264D69680A46521EFDD15A6807
:1029C00042F080625A60234EC6F800C00A46521E8A
:1029D000FDD15A6842F080625A60C4F800E05A683B
:1029E00042F080625A60C4F800C00A46521EFDD10F
:1029F0005A6842F080625A60C6F800C00A46521E09
:102A0000FDD1154A176010F0800F02D013484068BE
:102A1000A860287B421E13D3586840F0806058603D
:102A2000C4F800C00846401EFDD1586840F08060E0
:102A30005860C6F800C00846401EFDD1521EEBD2B9
:102A4000019802B0BDE8F08F000001401408014079
:102A50000801002010080140100C0140001000E0A7
:102A60002DE9F04FAB4B596841F080615960AA4C99
:102A70004FF4005AC4F800A0596841F080615960D1
:102A8000251D4FF4804CC5F800C0DFF890E2DEF859
:102A900004100A46521EFDD15A6842F080625A6004
:102AA000C4F800C00A46521EFDD15A6842F0806246
:102AB0005A60C5F800A05A6842F080625A60C5F8B2
:102AC00000C00A46521EFDD15A6842F080625A6028
:102AD000C4F800C00A46521EFDD15A6842F0806216
:102AE0005A60C5F800C00A46521EFDD15A6842F02D
:102AF00080625A60C4F800C00A46521EFDD19EF89A
:102B00001B60B6F1000B13D05A6842F080625A6025
:102B1000C5F800C00A46521EFDD15A6842F08062D4
:102B20005A60C4F800C00A46521EFDD1761EEBD191
:102B30007B4E4FF02008C6F800805A6842F0806251
:102B40005A60C5F800C00A46521EFDD15A6842F0CC
:102B500080625A60C4F800C00A46521EFDD15A680D
:102B600042F080625A60C5F800C00A46521EFDD18C
:102B70005A6842F080625A60C4F800C00A46521E89
:102B8000FDD15A6842F080625A60C5F800C00A461A
:102B9000521EFDD15A6842F080625A60C4F800C0EB
:102BA0000A46521EFDD1DFF87C911F2710F0010F5D
:102BB00014BFC9F80080C6F800805A6842F08062ED
:102BC0005A60C5F800C00A46521EFDD15A6842F04C
:102BD00080625A60C4F800C00A46521EFDD1400807
:102BE0007F1EE3D19EF81A20A2EB0B02521E44D0A6
:102BF00010F0010F0CBFC6F80080C9F800805868BB
:102C000040F0806058606746C5F800C00846401E26
:102C1000FDD158681E4640F0806058602760084625
:102C2000401EFDD1521E11D0706840F0806070606F
:102C30002F600846401EFDD1706840F080607060D3
:102C400027600846401EFDD1521EEDD1706840F04D
:102C500080607060C4F800A0706840F080607060B0
:102C60002F600846401EFDD1706840F080607060A3
:102C700027600846401EFDD11FE05A6842F080627E
:102C80005A60C4F800A010F0010F14BFC9F800800A
:102C9000C6F800801A46586840F080605860C5F851
:102CA00000C00846401EFDD1506840F08060506072
:102CB000C4F800C00846401EFDD1586840F080604E
:102CC0005860C5F800C00846401EFDD1586840F065
:102CD00080605860C4F800C00846401EFDD15868A6
:102CE00040F080605860C5F800A0586840F08060EF
:102CF0005860C5F800C00846401EFDD1586840F035
:102D000080605860C4F800C0491EFDD1C9F8008039
:102D1000BDE8F08F000001401008014008010020CC
:102D2000140C0140100C014007494FF40050086199
:102D30000648417821F0010141704FF0E02001691F
:102D400041F00101016170470010014000000020C6
:102D50000D4A4FF4005151610C4B10F0010F4FF030
:102D6000E02093F801C04CF0010C83F801C0036926
:102D700004D023F0010303615161704743F0010364
:102D80000361116170470000001001400000002045
:102D9000124910B54FF4C040086011492020086066
:102DA000114C10492046FEF715FC10492046FEF74D
:102DB00011FC0F48416841F0806141600D490E48A7
:102DC000FEF708FC002004F0D9FC6420FEF748FB65
:102DD000BDE81040012004F0D1BC00001008014003
:102DE000100C014020780008000C014028780008F1
:102DF0000000014024780008000801400C4810B58C
:102E0000416841F0806141600A490B48FEF7E2FBEE
:102E10000B4C0A492046FEF7DDFB0A492046FEF727
:102E2000D9FB2046BDE810400749FEF7D3BB0000A0
:102E30000000014030780008000801402C780008AC
:102E4000000C01403478000838780008104910B5AB
:102E50004FF4C0400860104C0E492046FEF7BAFB04
:102E60000E492046FEF7B6FB0D48416841F08061EF
:102E700041600C490C48FEF7ADFB002004F07EFCDD
:102E80006420FEF7EDFABDE81040012004F076BCA6
:102E90001008014014780008000C01401878000860
:102EA000000001401C7800080008014005488169C5
:102EB00041F0040181610449801508600349044818
:102EC000FEF788BB0010024014080140107800088B
:102ED000000801402DE9F00FDFF804C40027DCF8FA
:102EE000042042F08062CCF80420FE4D4FF40059DB
:102EF000C5F80090DCF8042042F08062CCF8042091
:102F00002E1D4FF480443460DFF8DCA3DAF804208F
:102F100013465B1EFDD1DCF8043043F08063CCF82F
:102F200004302C6013465B1EFDD1DCF8043043F006
:102F30008063CCF8043010F0010F14BFC5F8009086
:102F4000C6F80090DCF8043043F08063CCF804301D
:102F5000346013465B1EFDD1DCF8043043F080631F
:102F6000CCF804302C6013465B1EFDD107EB000843
:102F7000DCF80430470843F08063CCF8043017F0E5
:102F8000010F14BFC5F80090C6F80090DCF80430BB
:102F900043F08063CCF80430346013465B1EFDD1EF
:102FA000DCF8043043F08063CCF804302C60134626
:102FB0005B1EFDD1B844DCF80430870843F0806321
:102FC000CCF8043017F0010F14BFC5F80090C6F814
:102FD0000090DCF8043043F08063CCF804303460B7
:102FE00013465B1EFDD1DCF8043043F08063CCF85F
:102FF00004302C6013465B1EFDD108EB0703C708A5
:10300000DCF8040040F08060CCF8040017F0010FF9
:1030100014BFC5F80090C6F80090DCF8040040F03A
:103020008060CCF8040034601046401EFDD1DCF80E
:10303000040040F08060CCF804002C601046401E74
:10304000FDD1D819DCF8043043F08063CCF80430AB
:1030500010F0010F14BFC5F80090C6F80090DCF81E
:10306000040040F08060CCF8040034601046401E3C
:10307000FDD1DCF8040040F08060CCF804002C6046
:103080001046401EFDD1DCF8040040F08060CCF812
:103090000400C6F80090DCF8040040F08060CCF832
:1030A000040034601046401EFDD1DCF8040040F0FE
:1030B0008060CCF804002C601046401EFDD1DCF886
:1030C000040040F08060CCF80400C5F80090DCF803
:1030D000040040F08060CCF8040034601046401ECC
:1030E000FDD1DCF8040040F08060CCF804002C60D6
:1030F0001046401EFDD1DCF8040040F08060CCF8A2
:103100000400DFF8E881D8F8000020F4700040F4F3
:103110000000C8F80000C5F800909AF818301F1E8B
:1031200016D000BFDCF8040040F08060CCF804004A
:1031300034601046401EFDD1DCF8040040F0806091
:10314000CCF804002C601046401EFDD15B1EE9D176
:10315000DCF8040040F08060CCF8040034601046D5
:10316000401EFDD1DCF8040040F08060CCF8040083
:10317000DFF87CA1DAF8000010F4005F14BF01232F
:103180000023DCF8040040F08060CCF804002C60E0
:103190001046401EFDD1DCF8040040F08060CCF801
:1031A000040034601046401EFDD1DCF8040040F0FD
:1031B0008060CCF80400DAF8000010F4005F14BF5F
:1031C0004FF0010B4FF0000BDCF8040040F0806082
:1031D000CCF804002C601046401EFDD1DCF8040041
:1031E00043EA4B0340F08060CCF8040034601046A2
:1031F000401EFDD1DCF8040040F08060CCF80400F3
:10320000DAF8000010F4005F14BF4FF0010A4FF02D
:10321000000ADCF8040040F08060CCF804002C6068
:103220001046401EFDD143EA8A00AFB1DCF80430FD
:1032300043F08063CCF80430346013465B1EFDD14C
:10324000DCF8043043F08063CCF804302C60134683
:103250005B1EFDD17F1EE9D1DCF8043043F08063B2
:10326000CCF80430D8F8003023F4700343F4401352
:10327000C8F80030C6F8009000274FF0200A00BFC1
:10328000DCF8043043F08063CCF8043011F0010F17
:1032900014BFC5F80090C6F80090DCF8043043F085
:1032A0008063CCF80430346013465B1EFDD1DCF83B
:1032B000043043F08063CCF804302C6013465B1E6E
:1032C000FDD10F444908BAF1010AD9D1DCF8041044
:1032D00041F08061CCF8041017F0010F0AE0000003
:1032E00000000140100801400801002004080140CE
:1032F0000808014014BFC5F80090C6F80090DCF83B
:10330000041041F08061CCF8041034601146491E6D
:10331000FDD1DCF8041041F08061CCF804102C6081
:10332000521EFDD1DCF8041041F08061CCF804108D
:10333000D8F8001021F4700141F44011C8F80010D1
:10334000C6F80090DCF8041041F08061CCF804105D
:10335000C5F80090BDE8F00F704700002DE9F00FB0
:1033600010F03F0308BF402310F0800F3F4F404C48
:10337000DFF800B14FF48045A7F104083DD0002BE1
:1033800012BFDFF8F490BDE8F00F70474FF0000C6B
:103390000821DBF8046025E0606840F08060606030
:1033A0003D603046401EFDD1606840F08060606046
:1033B000D9F8000010F4005F14BF4FF0010A4FF07D
:1033C000000A606840F080606060C8F800503046D5
:1033D000401EFDD14FEA5C0040EACA1C491EA3F121
:1033E000010301D0002BD7D12CFA01F002F8010B18
:1033F000002BCBD1BDE8F00F7047002B19BF4FF465
:103400000059DBF80420BDE8F00F704711F801CB3C
:10341000082620E0606840F0806060601CF0010FCA
:1034200014BFC8F80090C7F80090606840F0806052
:1034300060603D601046401EFDD1606840F08060D5
:103440006060C8F800501046401EFDD15B1E4FEA78
:103450005C0C761E04D0002BDCD1BDE8F00F704769
:10346000002BD3D1BDE8F00F7047000014080140D5
:10347000000001400801002008080140034A52787A
:103480000AB100F005B800F09FBA00000801002062
:103490002DE9F04FFD4B0746586840F080605860BA
:1034A000FB4C4FF4005EC4F800E0586840F08060C8
:1034B000586004F1040C4FF48049CCF8009058682F
:1034C00040F080605860C4F80090586840F0806018
:1034D000586017F0010F14BFC4F800E0CCF800E00A
:1034E000586840F080605860CCF80090586840F010
:1034F00080605860C4F800905D68780845F0806589
:103500005D6010F0010F14BFC4F800E0CCF800E0DB
:103510005D6845F080655D60CCF800905D6845F0C1
:1035200080655D60C4F800903A185D68B80845F0A1
:1035300080655D6010F0010F14BFC4F800E0CCF8A6
:1035400000E05D6845F080655D60CCF800905D68E6
:1035500045F080655D60C4F8009002445D68F8083D
:1035600045F080655D6010F0010F14BFC4F800E005
:10357000CCF800E05D6845F080655D60CCF80090B7
:103580005D6845F080655D60C4F8009010445A683D
:1035900042F080625A6010F0010F14BFC4F800E0DE
:1035A000CCF800E0586840F080605860CCF800909B
:1035B000586840F080605860C4F80090586840F047
:1035C00080605860CCF800E0586840F08060586037
:1035D000CCF80090586840F080605860C4F80090C3
:1035E000586840F080605860C4F800E0586840F0C7
:1035F00080605860CCF80090586840F08060586057
:10360000C4F80090586840F080605860A148026893
:1036100022F4700242F400020260C4F800E09E4806
:10362000007E021E0DD05D6845F080655D60CCF8BF
:1036300000905D6845F080655D60C4F80090401EB4
:10364000F1D1586840F080605860CCF8009058681C
:1036500040F080605860DFF844B2DBF8000010F4FE
:10366000005018BF01205D6845F080655D60C4F8BA
:1036700000905D6845F080655D60CCF800905D6805
:1036800045F080655D60DBF8005015F4005518BF0B
:1036900001255E6846F080665E60C4F8009040EAEE
:1036A00045005D6845F080655D60CCF800905D6820
:1036B00045F080655D60DBF8005015F4005518BFDB
:1036C00001255E6846F080665E60C4F8009040EABE
:1036D0008500012824D0022818BF042800F01C818E
:1036E00012F121010DD05A6842F080625A60CCF884
:1036F00000905A6842F080625A60C4F80090491EF7
:10370000F1D1596841F08061596062490A6822F438
:10371000700242F440120A60CCF800E000F047B9B1
:1037200017F0020F7ED0002635462022D3F8048001
:1037300048F08068C3F80480CCF80090D3F8048087
:1037400048F08068C3F80480DBF8008018F4005863
:1037500018BF4FF00108D3F804A04AF0806AC3F8FC
:1037600004A0C4F800907608454446EAC876521E84
:10377000DCD15A68984642F080625A604A46CCF8DA
:103780000090D3F804A04AF0806AC3F804A0DBF8E4
:1037900000A01AF4005A18BF4FF0010AD8F804B07C
:1037A0004BF0806BC8F804B0226085EA0A0515F07A
:1037B000010F18BF0820002918BF0E603649097E86
:1037C00089B100BFD8F8045045F08065C8F80450AE
:1037D000CCF80020D8F8045045F08065C8F80450B3
:1037E0002260491EEED1D8F8041041F08061C8F87B
:1037F000041028490A6822F4700242F440120A6058
:10380000CCF800E017F0800F03D025494968224A20
:1038100091602149097B00297DD05A6842F080627D
:103820005A6000E010E0CCF800E05A6842F0806294
:103830005A60CCF800905A6842F080625A60C4F82E
:103840000090491EF1D1B2E06AB15D6845F0806533
:103850005D60CCF800905D6845F080655D60C4F8FF
:103860000090521EF1D15A6842F080625A60094AB3
:10387000156825F4700545F440151560F046CCF840
:1038800000E00E68002120221D460BE000000140F0
:103890001008014004080140080100200808014008
:1038A000001000E0D5F804A04AF0806AC5F804A032
:1038B00016F0010F14BFC4F80080CCF80080D5F8D2
:1038C00004A04AF0806AC5F804A0CCF80090D5F8AE
:1038D00004A04AF0806AC5F804A0C4F800903144FE
:1038E0007608521ED1D16A6842F080626A6011F097
:1038F000010F14BFC4F80080CCF80080696841F063
:1039000080616960CCF80090696841F0806169600D
:10391000C4F8009076E74AE029494E7E002E1CBF8D
:1039200017F0020F21210DD05D6845F080655D60C4
:10393000CCF800905D6845F080655D60C4F800904B
:10394000491EF1D16AB1596841F080615960CCF8E3
:103950000090596841F080615960C4F80090521E8F
:10396000F1D1596841F08061596016490A6822F422
:10397000700242F440120A60CCF800E0BEB117F0C9
:10398000020F14D1596841F080615960CCF800E011
:1039900021215A6842F080625A60CCF800905A683F
:1039A00042F080625A60C4F80090491EF1D1596813
:1039B00041F080615960C4F800E0BDE8F08F00007C
:1039C00008010020040801402DE9F04FFE4F0024BB
:1039D0007A6842F080627A60FC4E4FF4005CC6F870
:1039E00000C07A6842F080627A6006F104084FF401
:1039F0008049C8F80090F64D6A6813465B1EFDD1F9
:103A00007B6843F080637B60C6F8009013465B1EC2
:103A1000FDD17B6843F080637B6010F0010F14BF21
:103A2000C6F800C0C8F800C07B6843F080637B60C4
:103A3000C8F8009013465B1EFDD17B6843F080639D
:103A40007B60C6F8009013465B1EFDD104EB000AB4
:103A50007B68440843F080637B6014F0010F14BF5F
:103A6000C6F800C0C8F800C07B6843F080637B6084
:103A7000C8F8009013465B1EFDD17B6843F080635D
:103A80007B60C6F8009013465B1EFDD1A2447B68A4
:103A9000840843F080637B6014F0010F14BFC6F804
:103AA00000C0C8F800C07B6843F080637B60C8F842
:103AB000009013465B1EFDD17B6843F080637B6002
:103AC000C6F8009013465B1EFDD1A2447B68C40873
:103AD00043F080637B6014F0010F14BFC6F800C090
:103AE000C8F800C07B6843F080637B60C8F8009032
:103AF00013465B1EFDD17B6843F080637B60C6F894
:103B0000009013465B1EFDD10AEB04037C6844F071
:103B100080647C6013F0010F14BFC6F800C0C8F8C1
:103B200000C07B6843F080637B60C8F80090134658
:103B30005B1EFDD17B6843F080637B60C6F800901C
:103B400013465B1EFDD17B6843F080637B60C8F841
:103B500000C07B6843F080637B60C8F80090134628
:103B60005B1EFDD17B6843F080637B60C6F80090EC
:103B700013465B1EFDD17B6843F080637B60C6F813
:103B800000C07B6843F080637B60C8F800901346F8
:103B90005B1EFDD17B6843F080637B60C6F80090BC
:103BA00013465B1EFDD17B6843F080637B60894BCD
:103BB0001C6824F4700444F400041C605B1433603B
:103BC00095F818C05FEA0C0414D07B6843F080635A
:103BD0007B60C8F8009013465B1EFDD17B6843F004
:103BE00080637B60C6F8009013465B1EFDD1BCF17C
:103BF000010CEAD17B6843F080637B60C8F80090D9
:103C000013465B1EFDD17B6843F080637B60DFF869
:103C1000C8E1DEF8003013F4005F14BF4FF0010C70
:103C20004FF0000C7B6843F080637B60C6F8009027
:103C300013465B1EFDD17B6843F080637B60C8F850
:103C4000009013465B1EFDD17B6843F080637B6070
:103C5000DEF8003013F4005F14BF4FF0010A4FF09C
:103C6000000A7B6843F080637B60C6F800901346CF
:103C70005B1EFDD17B684CEA4A0C43F080637B609D
:103C8000C8F8009013465B1EFDD17B6843F080634B
:103C90007B60DEF8003013F4005F14BF4FF0010AC0
:103CA0004FF0000A7B6843F080637B60C6F80090A9
:103CB00013465B1EFDD14CEA8A0CBCF1010F33D0D8
:103CC000BCF1020F18BFBCF1040F00F05A8114F1CF
:103CD000210113D0786840F080607860C8F80090C7
:103CE0001046401EFDD1786840F080607860C6F8CC
:103CF00000901046401EFDD1491EEBD1786840F07F
:103D0000806078603348016821F4700141F440110B
:103D100001604014C8F80000796841F08061796062
:103D200030606046BDE8F08F10F0020F7ED00025B5
:103D30002C464FF0200A7B6843F080637B60C8F814
:103D4000009013465B1EFDD17B6843F080637B606F
:103D5000DEF8003013F4005F14BF4FF0010B4FF09A
:103D6000000B7B6843F080637B60C6F800901346CD
:103D70005B1EFDD16B085C4443EACB75BAF1010AC6
:103D8000D9D17B68BA4643F080637B60CB46C8F8E4
:103D9000009013465B1EFDD1DAF8043043F08063D7
:103DA000CAF80430DEF8003013F4005318BF0123C2
:103DB000DAF804E04EF0806ECAF804E0C6F800B00D
:103DC000DFF80CE0521E09E000000140100801403D
:103DD000080100200408014008080140F2D184EAEB
:103DE000030212F0010F18BF4FF0080C002918BF92
:103DF0000D609EF81820002A18BFDEF8043019D094
:103E0000DAF8041041F08061CAF80410C8F800B074
:103E10001946491EFDD1DAF8041041F08061CAF854
:103E20000410C6F800B01946491E00E013E0FBD1AB
:103E3000521EE5D1DAF8041041F08061CAF804108E
:103E400082490A6822F4700242F440120A6049145E
:103E5000C8F8001064E09CB17B6843F080637B602D
:103E6000C8F8009013465B1EFDD17B6843F0806369
:103E70007B60C6F8009013465B1EFDD1641EEBD13B
:103E80007B6843F080637B60704B1C6824F4700493
:103E900044F440141C604FF4005AC8F800A00968AC
:103EA000002420257B6843F080637B6011F0010FC4
:103EB00014BFC6F800A0C8F800A07B6843F0806378
:103EC0007B60C8F8009013465B1EFDD17B6843F011
:103ED00080637B60C6F8009013465B1EFDD10C44E6
:103EE00049086D1EDED179683B4641F080617960FA
:103EF00014F0010F14BFC6F800A0C8F800A059685C
:103F000041F0806159604C46C8F800901146491E46
:103F1000FDD1596841F0806159603460521EFDD175
:103F200010F0800F03D04A4840684A4988604948E9
:103F3000027BE2B1796841F0806179604FF4005111
:103F4000C8F800104168786840F080607860C8F870
:103F500000900846401EFDD1786840F0806078608F
:103F6000C6F800900846401EFDD1521EEBD178687D
:103F700040F0806078604FF4005030606046BDE8EB
:103F8000F08F34494D7E002D1CBF10F0020F21230D
:103F900013D0796841F080617960C8F800901146CB
:103FA000491EFDD1796841F080617960C6F80090C2
:103FB0001146491EFDD15B1EEBD19CB1796841F0E1
:103FC00080617960C8F800901146491EFDD179687A
:103FD00041F080617960C6F800901146491EFDD11C
:103FE000641EEBD1796841F08061796017490B68F4
:103FF00023F4700343F440130B604B14C8F80030F3
:10400000EDB110F0020F1AD1786840F0806078604E
:10401000C8F800302121786840F080607860C8F8E6
:1040200000901046401EFDD1786840F080607860B6
:10403000C6F800901046401EFDD1491EEBD17868AD
:1040400040F08060786033606BE600000408014057
:10405000001000E0080100202DE9F003451E3CBFE0
:10406000BDE8F00370474FF400594FF480461B48F9
:10407000184F194AD0F80430A7F1040811F801CB01
:104080005FF0080450681CF0010F40F08060506041
:1040900014BFC8F80090C7F80090506840F08060E6
:1040A00050603E601846401EFDD1506840F0806070
:1040B0005060C8F800601846401EFDD1641E4FEAEB
:1040C0005C0C6D1E3CBFBDE8F0037047002CD9D1DD
:1040D000D4E700001408014000000140080100205E
:1040E00070B50C46C17800680C4D61F31F60A9786B
:1040F000012918BF00200BD00021E9702070010AAF
:104100006170010CA170000EE0704FF0041070BDE2
:1041100000F060FA0028F1D1EEE700002400002052
:104120002DE9F0410078114C00F001060025E078FF
:104130000F4600F00100B04210D02EB1A01D057056
:1041400045702571A560E560A078012808D130464A
:1041500000F094FA002818BFE67001D03D7001E02D
:10416000FF2038704FF00110BDE8F08124000020DE
:104170002DE9F047324C80460E462279A11D82F08F
:1041800001002071E0788B5C4FF0000943EA0007E2
:1041900001F80290012811D0A068E168451A617801
:1041A000012918BF002518D006F8017B280A06F857
:1041B000015B012906F8010B16D038E084F8059060
:1041C000A068E168451AA078012802D100F086FABB
:1041D000054460790028F1D1E1E7B8F800003C28F7
:1041E0002AD88542E0D929E0E368DFF858C01846AC
:1041F000290008D0C0F30B021CF8020006F8010BDE
:10420000501C491EF6D15819E060E07803280ED101
:10421000A068E168411AB1F5805F08D2A178C0F3C7
:104220000B00012903D1E170604400F01DFAE81C85
:1042300040F40030BDE8F0873C20D2E70546B3E704
:10424000240000204C0100202DE9F0411C4D0027E6
:1042500090F800C0EB780C461CF0010FB8460BD06C
:104260002879AA1D80F001012971115C02F80080F3
:10427000194304F8011B01271CF0020F0CD0012B7D
:104280000ED0A868E968461A2670300A6070300CB3
:10429000A070300EE0703F1D47F48030BDE8F08123
:1042A00085F80580A868E968461AA878012802D12F
:1042B00000F014FA064468790028F1D1E4E7000020
:1042C000240000202DE9F041114C07780E46A0781B
:1042D000012804BF002000F00FFA0025002F08BFBE
:1042E000012005D0012F0AD1012000F005FA30B1DC
:1042F000A770E570002818BF357004D101E0A570E3
:10430000E570FF2030704FF00110BDE8F081000033
:10431000240000202DE9F041154D0746002628799C
:1043200080F001012971A91DEA780B5C0E5443EA63
:104330000208012A0ED0A868E968441A87F80080AC
:104340007C70200AB870200CF870200E387105209F
:10435000BDE8F0816E71A868E968441AA878012860
:1043600002D100F0BBF9044468790028F2D1E5E7F6
:1043700024000020084AD37813F0010F04D0FF2056
:1043800008704FF0011070470078002812BF012814
:1043900050700020F3D1F3E7240000204FF0E0211B
:1043A000042808690CBF40F0040020F004000861F4
:1043B00070470000144A10B410781449401EC3B26C
:1043C000137092F801C04FF400501CF0020F07D098
:1043D0002CF0020C82F801C013F0010F03D010E0A2
:1043E00013F0070F0DD00861527812F0010F04BFCF
:1043F00010BC704713F0030F0CBF4861086110BC7C
:1044000070474861F0E70000000000200010014004
:1044100016494868164A10F00C03164818BF042BBA
:1044200001D0082B01D0026015E04A684B6802F405
:1044300070124FF0020C13F4803F0CEB924203D049
:104440004B6813F4003F03D00B4B5A43026002E069
:10445000074B5A4302604968084AC1F30311515C93
:10446000026822FA01F1016070470000001002406A
:1044700000127A000C00002000093D00100000200E
:10448000384881B0016841F0010101604168364A55
:1044900011404160016821F4102121F08071016018
:1044A000016821F480210160416821F4FE0141602E
:1044B0004FF41F01816000220092016841F48031B5
:1044C0000160016811F4003F03D10099B1F5A06FBC
:1044D000F7D1016811F4003F18BF00923BD0234987
:1044E0000A6842F010020A600A6822F003020A60B9
:1044F0000A6842F002020A60416841604168416016
:10450000416841F480614160416821F47C1141605F
:1045100000990029416814BF41F4D00141F4E81129
:104520004160016841F080710160016811F0007F15
:10453000FBD0416821F003014160416841F0020174
:104540004160416801F00C010829FAD108060849C8
:10455000086001B07047016821F4803101600121D9
:104560000091BCE7001002400000FFF8002002406C
:1045700008ED00E070B504461148124D14F0020F2A
:10458000017841F00201017009D00F48016801F57E
:1045900080610160AA694FF480610C48904714F073
:1045A000010F08BF70BD4FF48061094801F082FA25
:1045B000011ED8BF70BD06486A69BDE8704010474B
:1045C000010000204879000860000020FE32002031
:1045D000FE36002070B506461F48864288BF064654
:1045E0001E4C1F4DE07810F0010F11D00021AA6A77
:1045F00016209047E86A804710F0020F08D0686ADA
:104600008047A1680844A0600021AA6A1920904749
:10461000AA6A31460120904710B10020207070BD79
:1046200001202070E07810F0010F12D010F0020F7E
:104630000BD1A0680B4AC0F30B0000F03F01C1F1A1
:10464000400110442161AA6990470121AA6A1620FD
:104650009047304670BD000040420F00240000200B
:10466000107900084C010020024A1161024A926947
:1046700010470000240000201079000870B5144D88
:10468000144C88B12878002808BF70BD012028612B
:104690000146A2691048904720B90121A26A16205C
:1046A000904798B1002070BD0021A26A1620904763
:1046B000E06A804710F0020F08D0606A8047A9685E
:1046C0000844A8600021A26A19209047012070BD0B
:1046D00024000020107900084C01002010B5054C82
:1046E000E06A804710F0020008BF10BD606ABDE8B4
:1046F000104000471079000810B5114A0021114CF4
:10470000117070B1A1681048884700281CBF0020B4
:1047100010BD02202169884780B1E06880470020F1
:1047200010BD0021A26A162090470021A26A19201C
:104730009047216900208847E0688047012010BD2C
:104740002400002010790008D54B0008014A00F031
:104750007DBA0000687800080148006870470000D2
:104760006878000820F001010B48026B1269002AEA
:1047700018BFB2F5803F0CD1C26952B11268C0694E
:104780009268007922FA00F010F0010F08BF41F0A2
:10479000010121F00E007047687800080648C16AE0
:1047A000002902BF406B0069704709684968406B87
:1047B0000068401A704700006878000814494A6B86
:1047C00092F82120002A18BF40F0010006D14A6863
:1047D0001288012323EA921262F300000A6B5279D5
:1047E00062F341000A6B927962F382000A6BD2791C
:1047F00062F3C3000A6B127A62F304100A6B096B4E
:10480000527A897A62F3451061F38610704700008E
:10481000687800080648816A002902BF406B406939
:10482000704709684968406B4068401A704700004B
:1048300068780008014800F039BD00006878000879
:10484000014900F078BE000068780008014900F0D6
:10485000C1BE000068780008014A01F01FB80000DE
:1048600068780008014A01F0B2B8000068780008D2
:104870001649012228B1012813D000BF4FF0FF30A4
:104880007047086B0069002818BFB0F5003FF5D1EC
:104890008869B8B189690068097902FA01F1016192
:1048A00010E0086B0069002818BFB0F5003FE5D1A3
:1048B000886938B189690068097901F1100102FA43
:1048C00001F101614FF000007047000068780008B6
:1048D00070B5144E05000B46144619BF002B002C72
:1048E0006FF0040070BD316BC87A10F0040F4FF008
:1048F000FF3008BF70BDC968022918BF70BD032012
:10490000716B3246C8612146184600F0C7FF002887
:1049100018BF70BD324621462846BDE8704001F000
:1049200056B800006878000810B5184CE06828B147
:104930008188002300681A46FCF7A4FE206928B18C
:104940008188002300681A46FCF79CFE606928B144
:104950008188002300681A46FCF794FEA06928B1FC
:104960008188002300681A46FCF78CFEE06928B1B4
:104970008188002300681A46FCF784FE208CFCF72F
:10498000F7FD216B0020C87210BD00006878000898
:10499000014A00F05BB90000A078000801480068F7
:1049A00070470000A078000820F001010B48026B5E
:1049B0001269002A18BFB2F5803F0CD1C26952B10A
:1049C0001268C0699268007922FA00F010F0010FB5
:1049D00008BF41F0010121F00E007047A0780008E7
:1049E0000648C16A002902BF406B00697047096828
:1049F0004968406B0068401A70470000A0780008C2
:104A000014494A6B92F82120002A18BF40F0010097
:104A100006D14A681288012323EA921262F3000049
:104A20000A6B527962F341000A6B927962F3820059
:104A30000A6BD27962F3C3000A6B127A62F3041034
:104A40000A6B096B527A897A62F3451061F386101A
:104A500070470000A07800080648816A002902BF5C
:104A6000406B4069704709684968406B4068401A6C
:104A700070470000A0780008014800F017BC000053
:104A8000A0780008014900F056BD0000A078000899
:104A9000014900F09FBD0000A0780008014A00F025
:104AA000FDBE0000A0780008014A00F090BF0000A1
:104AB000A07800081649012228B1012813D000BFB0
:104AC0004FF0FF307047086B0069002818BFB0F541
:104AD000003FF5D18869B8B189690068097902FA9F
:104AE00001F1016110E0086B0069002818BFB0F502
:104AF000003FE5D1886938B189690068097901F119
:104B0000100102FA01F101614FF00000704700004E
:104B1000A078000870B5144E05000B46144619BF66
:104B2000002B002C6FF0040070BD316BC87A10F0C0
:104B3000040F4FF0FF3008BF70BDC968022918BFCD
:104B400070BD0320716B3246C8612146184600F0E3
:104B5000A5FE002818BF70BD324621462846BDE894
:104B6000704000F034BF0000A078000810B5184C69
:104B7000E06828B18188002300681A46FCF782FDAE
:104B8000206928B18188002300681A46FCF77AFD65
:104B9000606928B18188002300681A46FCF772FD1D
:104BA000A06928B18188002300681A46FCF76AFDD5
:104BB000E06928B18188002300681A46FCF762FD8D
:104BC000208CFCF7D5FC216B0020C87210BD0000C2
:104BD000A078000870B5194C054610F0020F1AD0E5
:104BE000E068A16822690A44A26002F03F01C1F1B5
:104BF0004001101AC1F58053984284BF0320E07031
:104C000007D8C2F30B000E4A216110440D4A926985
:104C10009047012060710C4815F0200F04D02179D5
:104C2000425C42F08002425415F4607F08BF70BDC0
:104C30002179425C42F04002425470BD24000020C1
:104C40004C010020107900082A0000202DE9F05FB7
:104C5000136B1446DA7A12F0020F00F0BB814FF0AA
:104C6000000800F0FF0CACF11507454646464246E9
:104C7000062F80F00981DFE807F08ABC0325445C39
:104C8000606B79B190F82110002940F01C8101215E
:104C900080F82110606B80F820106068818941F0F5
:104CA00081018BE090F8200000286DD06068818938
:104CB00021F080018181606B80F82020606B80F89A
:104CC000212061E06068818921F0C0018181A06AB2
:104CD00070B1606B90F8210050B16068818A21F05A
:104CE00080018182A06A0068016821F001010160F1
:104CF000606B80F82020606B80F821200020BDE8E8
:104D0000F09F6068818921F020018181E06A68B1AB
:104D1000206B407950B16068818A21F04001818226
:104D2000E06A0068016821F001010160206B4271B6
:104D30002AE06068818921F0E0018181A06A70B178
:104D4000606B90F8210050B16068818A21F0800189
:104D50008182A06A0068016821F001010160E06AB7
:104D600068B1206B407950B16068818A21F04001C0
:104D70008182E06A0068016821F001010160206B16
:104D80004271606B80F821200020BDE8F09FE06850
:104D9000002800F01F8199B1D968062905D08188C3
:104DA000006803230222FCF76DFC206BC17A41F0FE
:104DB0000801C1726068818941F008018181E3E7DF
:104DC0006068818921F008018181206BC17A21F01E
:104DD0000801C172206BC06806281CBFE06800286B
:104DE000D2D081884FF0000300681A46FCF74AFCD5
:104DF000CAE72069002875D091B3D968062918BF81
:104E0000042907D0818800684FF000034FF00102A9
:104E1000FCF738FC206BC17A41F01001C172606868
:104E2000818A41F0010181826068018A41F040017C
:104E300001826068818941F010018181206B407995
:104E400000281CBFE06A002804D16068818941F015
:104E5000200181816068818941F00401818193E7AB
:104E6000FFE76068818921F004018181206BC17AAC
:104E700021F01001C172206BC06806281EBF0428F3
:104E800020690028ADD17FE75A79E2B9626B92F8C8
:104E90002120C2B96268978917F0080F03D01788DC
:104EA00017F0400F0FD0BCF1150F7DD2DFE80CF0EA
:104EB000A10F11351B202EA1A1A1A1A1A1A1A1A1EA
:104EC000393C5E688F006FF00100BDE8F09F012360
:104ED00012E0237813F0020F1CBF4FF41065022379
:104EE0000AD11AE076E04FF008064FF0040303E021
:104EF0004FF002064FF0050310F4E06C76D0BCF5DD
:104F0000807F74D0BCF5E06F77D0BDE0237813F0DC
:104F1000200F1CBF20260623EED16FF00600BDE84F
:104F2000F09F606B41832FE7D868052852D0002995
:104F30003FF42AAF908A40F004009082D94AA068DA
:104F4000B2FBF0F25FF0010002FB00F38B429CBF6A
:104F5000401CB0F5807FF7D3B0F5807F3AD0616810
:104F60000A8B22F0FF02104308830DE7D868062859
:104F700030D1FF292ED8108B20F47F40084324E045
:104F8000D868062826D1A068C64B01EB0114B3FBF4
:104F9000F0FC01EB0113012003EB430304EB41148C
:104FA0000CFB00F5C82100E023E06943B1EB430F9F
:104FB00002D2B1EB440F02D8401C4028F0D3402865
:104FC00008D0118B21F0FF0108431083DCE6D8687C
:104FD000062803D04FF0FF30BDE8F09F00293FF4D2
:104FE000D3AE908A40F010009082CDE609E048E010
:104FF00003E06FF00300BDE8F09F10F4405F07D1BD
:1050000042E010F4405F03D045F020054FF4805893
:1050100010F4405C0ED0BCF5805F08BF48F4806897
:1050200008D0BCF5005F16BF6FF0090048F4C068F7
:10503000BDE8F09F10F4404C14D0BCF5804F08BF81
:1050400045F400550ED0BCF5004F08BF45F440555F
:1050500008D0BCF5404F16BF6FF00A0045F48055EC
:10506000BDE8F09F10F4403C08BF00271AD0BCF503
:10507000803F0DD0BCF5003F17D0BCF5403F1FD09E
:105080002AE010F4405FBFD06FF00800BDE8F09F49
:1050900094F800C01CF0800F1CBF4FF4803746F41A
:1050A000807619D0022B1BD032E0B4F800C01CF47B
:1050B000807F1CBF4FF4003746F4C066F2D10BE08E
:1050C000D4F800C01CF0800F1EBF1CF4807F4FF48A
:1050D000403746F4E066E5D16FF00B00BDE8F09F85
:1050E00010F4802C08D0BCF5802F0EBF45F48065ED
:1050F0006FF00C00BDE8F09F10F4002008D0B0F570
:10510000002F0EBF45F400756FF00D00BDE8F09F55
:10511000D4F808A0DFF890910AEBCA0000EB0A1C53
:105120008800BCFBF0FBA9FB0BEBBCFBF0FEBCFB5F
:10513000F0F0A9FB00C040096FF0180C00FB0CF068
:105140000EEB80004FF0320C0CEB0010A9FB00C0FE
:105150004FEA5B1B40096BF31F104FEA0A191FFA55
:1051600080FCB9FBFCF000094FF0640900FB09F07A
:1051700001EB011909EB4909B0EB490F06D201EB2C
:10518000011909EB4111B0EB410F03D86FF0070093
:10519000BDE8F09F908920F4005090816068A0F8ED
:1051A00008C0206BC360206B0761206BC1680629B3
:1051B0000AD0C07A10F0080FE0680ED0A0B1818844
:1051C0000323006802220DE0E06868B1818800686E
:1051D00003230222FCF756FA06E028B18188002357
:1051E00000681A46FCF74EFA206BC168042918BF04
:1051F00006290CD0C07A10F0100F206911D0B8B178
:10520000818800684FF000034FF001020EE0206932
:1052100070B181884FF0000300681A46FCF732FA3B
:1052200006E028B18188002300681A46FCF72AFAB4
:10523000606968B1216BC968022918BF0629818895
:10524000006807BF0323022200231A46FCF71AFA5C
:10525000A06968B1B7F5803F18BFB7F5403F8188B6
:10526000006807BF0323022200231A46FCF70AFA4C
:10527000E06928B18188006800230122FCF702FA66
:105280006068A0F80C80606805826068868260684B
:10529000818941F400518181206BC17A41F0040180
:1052A000C17271E500CA9A3B1F85EB512DE9F003ED
:1052B000D0F804C0BCF800200021BCF80C400B461C
:1052C00002F020052C420E464FF0010461D0056B20
:1052D0006F791FB1ED68022D05D00BE0BCF804100A
:1052E000EC71202155E0456BED69012D08BFBCF83C
:1052F00004C001D0BCF80430D0F834C0DCF8085049
:105300006F1CCCF808702B70D0F804C0BCF80CC02F
:105310001CF4806F0CD11CF4805F09D0456B1F0A10
:10532000D5F808C00CF10108C5F808808CF80070A9
:10533000D0F834C0DCF810506D1CCCF81050D0F808
:1053400034C0DCF800C0654523D1D0F804C0BCF8F7
:105350000C5025F01005ACF80C50D0F830C08CF88B
:105360000560D0F830C0DCF80CC0BCF1020F0FD1E2
:10537000D0F834C0DCF81C50CCF81C60012D08BFFC
:10538000012106D0022D03D0032D08BF042100E027
:1053900002214568B5F80CC002F010071CEA070F9F
:1053A0001CBFB5F804C041F04001B5F80CC002F0D4
:1053B00080071CEA070F5FD0D0F834C09CF820703B
:1053C00027B1AB8943F00103AB8155E0DCF81470E1
:1053D000DCF80450BD4224D0036BDB68022B02BF13
:1053E000DCF81C30022BBCF81A301AD0DCF80C3078
:1053F00003F10105CCF80C50D0F804C01B78BCF8C0
:105400000CC01CF4806F0CD11CF4805F09D0D0F864
:1054100034C005F10107CCF80C7095F800C043EAE0
:105420000C23D0F834C0DCF8145005F10105CCF899
:105430001450D0F804C0ACF80430436BD3F804C067
:105440005B699C4518D14368B3F80CC02CF0800C04
:10545000A3F80CC04368B3F80CC04CF0400CA3F8A0
:105460000CC0436B83F82160036BD3F80CC0BCF114
:10547000020F54D041F001014368B3F80CC002F0B0
:1054800040051CEA050F07D0B3F80CC02CF0400C07
:10549000A3F80CC041F0080112F0080F05D04368D2
:1054A0009B88036B41F02001DC7112F0020F05D0E4
:1054B00043689B88036B41F480715C7212F0010FAA
:1054C00005D043689B88036B41F400719C7212F411
:1054D000807F0AD04368B3F800C02CF4807CA3F826
:1054E00000C0036B41F080011C7212F4007F06D0F3
:1054F0004268138823F40073138041F4806100290B
:1055000004BFBDE8F0037047006B0268002A04BFC7
:10551000BDE8F00370470846BDE8F0031047D0F837
:1055200034C0DCF81CC0BCF1010F04BFDB7A13F0FF
:10553000100FA1D19EE710B50C46096BCA7A12F084
:10554000010F1CBF002010BD0860216B00200871F6
:10555000216B4871216B8871216BC871216B0872B6
:10556000216B4872216B8872216BC860616B81F876
:105570002100616B086048608860C860086148610C
:105580008861C8610862608CFBF7F2FFE06818B1BF
:1055900000680121FCF7E8F8206918B100680121D2
:1055A000FCF7E2F8606918B100680121FCF7DCF84B
:1055B000A06918B100680121FCF7D6F8E06918B1BC
:1055C00000680121FCF7D0F8216B0120C87200208F
:1055D00010BD00002DE9F0470C4600268E4FDFF885
:1055E0003C82DFF83C928F4D012138B1012801D077
:1055F00002287AD06FF00300BDE8F0876068B842F7
:1056000004D1EA6842F48042EA600CE0404504BFFD
:105610002A6942F4003205D0484504BF2A6942F4A1
:10562000802200D12A6100BF00BF00BF00BFB84286
:1056300004D1E86820F48040E8600CE0404504BFF5
:10564000286920F4003005D0484504BF286920F4BB
:10565000802000D1286194F9240000280CDB00F0A0
:105660001F0291404009800000F1E020C0F8801145
:10567000BFF34F8FBFF36F8FE06A18B141790079A4
:10568000FBF776FEA06A18B141790079FBF770FE4E
:105690006068B84203D1A86920F48040A8616068BE
:1056A000404503D1E86920F40030E861606848456E
:1056B00003D1E86920F48020E861206B0671206B3B
:1056C0004671206B8671206BC671206B0672206B51
:1056D0004672206B8672606B80F82160206BC17A05
:1056E00021F00201C17293E0FFE7206BC27A12F051
:1056F000010F04BF4FF0FF30BDE8F08712F0020F3A
:1057000078D10671206B4671206B8671206BC67153
:10571000206B0672206B4672206B8672606B80F87D
:105720002160606B4683606BC661606B80F82060AF
:10573000206BC660206B0661226B0320D07260680C
:10574000B84203D1A86940F48040A8616068404530
:1057500003D1E86940F40030E8616068484503D14E
:10576000E86940F48020E86194F92400002809DB0E
:1057700000F01F0201FA02F24009800000F1E0206F
:10578000C0F8802294F92400002808DB00F01F02F2
:1057900091404009800000F1E020C0F80011E06A6B
:1057A00018B141790079FBF773FDA06A18B141790E
:1057B0000079FBF76DFD6068B84204D1E96841F4F7
:1057C0008041E9600CE0404504BF296941F40031A3
:1057D00005D0484504BF296941F4802100D12961E1
:1057E00000BF00BF00BF00BFB84204D1E86820F48A
:1057F0008040E8600CE0404504BF286920F4003098
:1058000005D0484504BF286920F4802000D12861D4
:105810000020BDE8F087000000380140004400404F
:105820000048004000100240C16A0968496821B17F
:10583000416B0968002918BF704741688A8922F0C6
:1058400010028A81026B00210B46D268022A10D115
:10585000426BD2F81CC0D361BCF1010F08BF01211B
:1058600008D0BCF1020F04D0BCF1030F08BF042123
:1058700000E00221426BD2F800C0C2F810C0026BF7
:1058800053714268938943F020039381006B02684F
:10589000002A14BF002970470846104770B5002839
:1058A00012BF00296FF0040070BD136B93F80BC09A
:1058B0001CF0040F04BF4FF0FF3070BD5B79012B6B
:1058C00073D05368B3F80CC02CF0200CA3F80CC0B4
:1058D000536B1960D2F830C000238CF80830D2F82E
:1058E00030C08CF80930D2F830C08CF80730D2F8CC
:1058F00030C08CF80A30D2F834C0CCF80800D2F8A6
:1059000034C0CCF81030D2F830C001238CF8053008
:10591000D2F830C08023DCF80CC0BCF1020F07D1F4
:10592000D2F834C0DCF81CC0BCF1010F08BF002362
:10593000D2F82CC0BCF1000F32D09CF806404FF4D6
:10594000405505EA04345568234343F00203AC890B
:1059500014F4805F04D014F4806F08BF43F4A06394
:10596000DCF800C02C1DCCF80030CCF80840CCF896
:105970000C00CCF80410D06A0068036843F00103FF
:1059800003605068838A43F04003838250688389B0
:1059900043F010038381106BC068022812D105E028
:1059A0005068838943F03003F4E70DE0506BC3691E
:1059B00043B90223C361506B1A3000F008F810F1AC
:1059C000020F01D0002070BD6FF0010070BD0028F3
:1059D00012BF00296FF0040070472DE9F041064620
:1059E000106B14460D46C07A10F0040F04BF4FF040
:1059F000FF30BDE8F081616B91F82100002845D1AE
:105A0000012081F82100616B8027CE60616B4D60C1
:105A1000626B00215161216BC968022910D1626B50
:105A2000D16919B1022908BF002709E0D061606B74
:105A3000224629461830FFF731FF10F1020F25D01A
:105A4000A16A39B388794FF44052636802EA0030A2
:105A500038439A8940F0120012F4805F04D012F4A7
:105A6000806F08BF40F4A06009681A1D08608A6052
:105A7000CE604D60A06A0068016841F001010160DC
:105A80006068818A41F08001818208E06FF0010046
:105A9000BDE8F0816068818941F08001818100204A
:105AA000BDE8F08101480068704700006478000894
:105AB0000020704770B50B4D0C460346D5E90C012C
:105AC00088420BD9401A844200DD0446224618461B
:105AD000FAF728FB686B2044686300E00024204646
:105AE00070BD00009800002010B50A4CE06A8047A5
:105AF00010F0010F18BF10BD4FF480610648FFF78A
:105B0000D9FF011ED8BF10BD03486269BDE810402F
:105B10001047000048790008FE3600202DE9F041CA
:105B2000194C0D460746D4E90401401A17490A8862
:105B3000101A002802DC0020BDE8F081854200DD5B
:105B40000546D4E906020026904210D3104A09887F
:105B5000431911448B420AD30E1A904632463946F5
:105B6000FAF7E0FA3744AD1B4046C4F8188035B167
:105B70002A463946FAF7D6FAA0692844A061216975
:105B8000A81901442161D7E7980000209A790008FC
:105B90007E12002010B5054C6068002805D1012058
:105BA000606000F005F80020606010BD98000020E3
:105BB0002DE9F047224CA06800283BD0D4E904012D
:105BC000421AE0684FF00006104335D01D481E4FC2
:105BD000DFF878800088DFF878903D182046C169AA
:105BE0006AB1A069814203D38818A84200D36A1A17
:105BF00099F8003038F81300904200DA0246154850
:105C0000E660007840F0800001F09CFAE169014410
:105C1000E16162698D420244626100D1E7612169FC
:105C200091420BD199F8002038F81210814205D129
:105C30000120E060BDE8F087A660FBE7E660F9E7D9
:105C4000980000209A7900087E1200209E790008B2
:105C5000730000209879000810B50B4C206A18B129
:105C6000A06A401CA06210BD01202062606200F0AA
:105C70000DF8002060622062D4E90C018842F2D065
:105C8000401AFFF731FF10BD9800002010B5134CEB
:105C9000144A1348216B1288144B081A101A124A1E
:105CA0001B7832F8132090420EDB1148007800F088
:105CB000E5FE216B08442063A06A00280CD0616ACD
:105CC000002909D1401E06E00120E062606A002838
:105CD00002D0A06A401CA06210BD00009800002005
:105CE000BE1200209C7900089E79000873000020F5
:105CF0009979000810B50446400702D52046FFF701
:105D0000ABFF200704D52046BDE81040FFF742BF97
:105D100010BD7047002070470020704710B50B4839
:105D200000F01CF8002810D0084A094811680170DA
:105D30000B0A43700B0C8370090EC170117901714D
:105D40005179417191798171012010BDD0000020FD
:105D5000BC11002010B500F00DF810BD04498A6890
:105D600002608A898280897B8171012070470000EE
:105D70006000002010B5044C0448A16888472169E0
:105D800002208847012010BD4879000875450008A9
:105D900010B5054C00211820A26A90470021A26A84
:105DA00019209047012010BD487900080120704754
:105DB0002DE9F0410026314C0546B046A26A37462F
:105DC0003146182090470021A26A192090470021EF
:105DD000A26A152090470021A26A162090472879D0
:105DE00040B1012808BF4FF4004703D0022808BF84
:105DF0004FF48047687948B1012808BF4FF4005834
:105E000004D0022808BF4FF480581AD1A879052879
:105E100008BF4FF4A0660AD0062808BF4FF4C0663A
:105E200005D007280CBF4FF4E066082809D146EAE0
:105E3000080040EA0700A26A296840F00100904784
:105E400010B10020BDE8F0810D4829688160A98863
:105E50008181A97981730021016041600121A26AD9
:105E6000152090470121A26A16209047A2694FF49D
:105E70008061044890470120BDE8F081487900081E
:105E800060000020FE32002010B5104800241049A8
:105E900044608460C4600461C0E90541C0E907143E
:105EA00044620C498462C0E90B4141630480FFF7FE
:105EB0006FFF06484FF41651383001600471447189
:105EC00008218171FFF774FF10BD000098000020C9
:105ED0007E120020BE12002010B5FFF7D5FF10BDC6
:105EE00070B5174C00250126206A50B9D4E90C1072
:105EF000814206D11348814203D02063E5622562C6
:105F00006063A06A70B1206A60B9E06A50B9266225
:105F1000FFF7BCFE2562D4E90C01884202D0401A8A
:105F2000FFF7E2FDD4E90101084308D1D4E90401F7
:105F3000884204D06660A660FFF73AFE656070BDD7
:105F400098000020BE1200200020704700207047FB
:105F500000207047024910B50880FFF727FF10BDE9
:105F600098000020084810B5C178026861F31F62EC
:105F700006490A6002790A7142794A71807988710A
:105F80000846FFF715FF10BDBC110020D00000200F
:105F90000107890E01F1804101F5A041D1F8002CE3
:105FA00000F08000002814BF48F6CF704CF68F70C8
:105FB00002EA0000C1F8000CD1F8000C08D080F013
:105FC000300048F6BF7200EA0200C1F8000C7047CA
:105FD00080F440504BF68F7200EA0200C1F8000CCA
:105FE0007047000070B48378234A03F00F0C13F05D
:105FF000800F56688188148803F00F0306EB0313A3
:1060000004D0491C21F001011C6011E09C603E2974
:1060100009D91F3121F01F014FF0FF3404EB411467
:1060200044F4004403E0491C21F001014C02DC600F
:1060300013880B441380C07810F0030008BF4FF49E
:1060400000710CD0012808BF4FF4806107D00228EE
:1060500008BF002103D0032808BF4FF4C06141EA04
:106060000C004FEA8C0101F1804101F5A041C1F81B
:10607000000C70BC7047000044000020002818BFCE
:1060800070470249C020088070470000440000208B
:1060900000F0A8BA09498A1550B101200860002013
:1060A00008600B1D18604FF4E0500860044802E0DF
:1060B000032008600348026070470000405C004015
:1060C000100801401408014010B50B4C0B48A28881
:1060D00001788A4200D9CAB21AB907490020183992
:1060E00008718020216801F02DF8216801442160A9
:1060F000A188081AA08010BD8800002084790008BB
:1061000010B5064C0020216800F0B8FC216801445D
:106110002160A188081AA08010BD0000880000201E
:1061200070470107890E01F1804202F5A042D2F8C2
:10613000001C10F0800F05D048F6BF700840C2F870
:10614000000C70474BF68F700840C2F8000C704787
:106150000107890E01F1804202F5A042D2F8001C2D
:1061600010F0800F07D081F0200048F6BF71084082
:10617000C2F8000C704781F440504BF68F71084014
:10618000C2F8000C704700002DE9F047DFF84482A8
:106190000646A8F1080580074FF0000AA5F118048B
:1061A00024D500F0BBFF98F800004746C009FFF770
:1061B000B7FFF888A8803978C1F3411010B10128E1
:1061C00077D17DE098F80120834FDFF810920C2AF8
:1061D0006FD2DFE802F0060C951C952B3B953F45EE
:1061E000526100F063FD33E0FFF76EFF96E00020A0
:1061F00000F09AFD00285CD000F096FF386820B1CE
:106200006169002921D0082050E0484653E0012070
:1062100000F08AFD002873D000F086FF386800285F
:10622000F3D06169002979D004203FE011F01F0FFD
:1062300066D198F80200012140F08000207000F043
:106240007F0000F045FF00F06FFF67E000F054FCB6
:1062500078B3C9E711F01F0F52D15E481F3819E01B
:1062600000F0B8FD28B300F05FFF386818B161692D
:1062700029B301201AE05A481DE001F01F0101294D
:106280003ED16178A9B198F80400A178884237D24C
:10629000544908442860A7E700F064FE48B100F0C4
:1062A00043FF386830B1616949B1022001F052FA08
:1062B00034E025E04C48016809B1084680472DE0EC
:1062C00011F01F0004D0012805D0022818D111E0D8
:1062D00000F02AF913E000F02DF9F8B900F080F988
:1062E000E0B900F0CFF8C8B900F0CEF8B0B900F0CE
:1062F0001FF904E000F0C4F880B900F017F968B99C
:1063000098F80010090604D4B8F8060008B1002077
:1063100000E0802000F0E6FEA5F804A0700735D567
:1063200098F80000474600062ED4A88858B3FFF717
:10633000E7FEA88838BB3878C0F34111F1B10129D4
:106340001CD110F01F0004D0012805D0022815D15F
:106350000EE000F077F810E000F07AF898B900F05D
:1063600047F880B900F046F868B900F06FF804E02B
:1063700000F03CF838B900F067F820B9802000F050
:10638000B1FEA5F804A001E000F0D4FE300713D55B
:1063900098F80000000606D5A888217908430BD09C
:1063A000FFF792FE08E02078010605D500F07F0097
:1063B0002070002100F08CFE700602D50020FFF74F
:1063C000E7FD300604D5BDE8F0478020FFF7E0BDCB
:1063D000BDE8F08790000020047A0008007A0008E9
:1063E000F879000839000020FC7900080020704787
:1063F0000020704710B51048104A01791278914278
:1064000003D00F4A1278914214D1417821B1022968
:1064100005D020290ED10AE0FFF798FD02E0408860
:10642000FFF796FD30B100F07FFE012010BDFFF7B1
:1064300099FDF7E7002010BD900000209679000834
:1064400097790008002070470020704700207047AF
:1064500010B50948094A01791278914209D140786A
:10646000092806D100F0D8FA18B100F05DFE01202D
:1064700010BD002010BD00009000002085790008AC
:10648000002070470020704770B52249224A0879E1
:106490001278904203D0214A1278904238D11D4898
:1064A00049781F4C1F4D408804291FD007DC79B163
:1064B00001290FD002290BD0032929D111E020296D
:1064C00006D021291AD022291BD0232920D11BE054
:1064D0002C6011E0FFF720FC05E02C60FFF7F4FDD5
:1064E0000AE0FFF717FC0028F7D111E0FFF7E0FA08
:1064F0000CE000BF00F018FE012070BDFFF70EFC9D
:10650000F1E7FFF727FD01E0FFF71EFD0028F1D1BD
:10651000002070BD9000002096790008977900084F
:10652000BC11002088000020002070470020704728
:10653000002070472DE9F041224C23492079097849
:1065400088423DD16078214D214E224F0C2837D210
:10655000DFE800F03606212D363636363616243280
:1065600000F070F960B3E078012802D0032803D06E
:1065700003E01948286000E02E60FFF7A5FD13E056
:10658000E078022802D0032803D00DE013482860E9
:106590000AE02E6008E000F03DF90AE000F014FA8D
:1065A0000CE000BF00F0C0FD0120BDE8F08100F06C
:1065B0003FF928B12F60E0E700F024FA0028F1D17C
:1065C0000020F2E790000020857900088800002074
:1065D00042000020BC110020FD1100203E120020CE
:1065E00000207047084800214170C160016141618D
:1065F0008161C16141808180016241628162C180AB
:10660000C162018170470000D80000202DE9F05FD1
:10661000DFF84081DFF840A1DFF840B10127504C9E
:1066200008F101090025A561606910B1A761BDE805
:10663000F09F6761A088618888421AD3206AC0B938
:10664000E561A580012398F8001008F101021846C1
:1066500000F06EFF0004000C60800CD04149C4F8CB
:106660001C800978012902D8C4F81C903BE0401C2A
:1066700060806088B8BBE068A8BB216999B33948DD
:106680004246007801280FD81570A5800223521CBD
:106690000021012000F04CFF0004000C608001D0BC
:1066A000C4F81C9025611EE01678202E00D3002629
:1066B00007FA06F0084240D0701CC1B21170A580E4
:1066C000022308F10102012000F032FF0104090C4D
:1066D000618003D0491CC4F81C806180216907FADD
:1066E00006F0814321616088216A01432AD0A18894
:1066F000401A9BF8001086B23AF81100B04200D25E
:106700000646676218483246E169007840F080002A
:1067100000F018FDE06915493044E061A08830447C
:1067200080B2A080098888420AD29BF800103AF80B
:106730001100B04204D1276205E0761CF6B2B4E73E
:10674000256200E065626561A06900287FF46BAF97
:106750006DE70000FC1100208C7900087300002018
:10676000D800002090790008867900089279000806
:10677000F8B5194C194D0026E08800B9A5621848F3
:10678000A16A007800F07AF90004A16A000C0144C3
:10679000A162E18801448BB2E3800AD011490988E3
:1067A0008B4206D2114A1049127831F812108142F8
:1067B00010D90F48017801200129009003D8002149
:1067C000064A022003E029786A1C02205B1E00F0C2
:1067D0007BFFE680F8BD0000D80000203D120020BD
:1067E00087790008947900088C79000873000020EC
:1067F0009179000810B50446000702D52046FFF73E
:1068000005FF600704D52046BDE81040FFF7B0BF84
:1068100010BD0000034804498078085C03490870F3
:10682000012070479000002040000020BC11002093
:1068300010B500F07BFE02490870012010BD000079
:10684000BC1100200B4910B5C8780022012804D0E3
:10685000022804D0032806D103E0074A02E0002002
:1068600010BD064A521C8978002300F061FE012009
:1068700010BD000090000020FC110020410000200D
:106880002DE9F05F4648007800287DD04548002774
:106890003D4601784A1C0270434A1478042204EBF6
:1068A000440A02FA0AF2521E914201DB05700127E6
:1068B0003E4900230A88FF2A01D2521C0A803C4A22
:1068C0008E46098832F81490894500D10123834609
:1068D000002100699BF8006043E000BF4FF0000C0E
:1068E0006FB1344A545CFF2C01D2641C5454324CB6
:1068F000645C24B1525CA24201D34FF0010C2E4AD9
:106900004FF0020808FA0AF8525C02FA08F44C4503
:1069100002DA0AB1012400E0002433B12CB14FF0B7
:10692000010808FA01F848EA0000DFF8908018F83A
:10693000018042450AD01F4A525C424503D30122DE
:106940008A40104300261C4A02F80180BCF1000F67
:1069500005D014B901228A401043164A5554491CE7
:10696000C9B2174A12789142B8D3CBF810005946F1
:106970008BF800600BB1AEF8005008B1CA6852B194
:10698000104A1378012200E003E09A409043CBF8CC
:106990001000BDE8F09FBDE8F05F0020FFF736BEB5
:1069A00071000020D8000020730000203C0000206F
:1069B000887900083E0000203F00002040000020B1
:1069C00090790008FC11002010B50A480949807828
:1069D000C97810B1084A815409E00020074B084AE1
:1069E00002E01954401CC0B21478A042F9D301202F
:1069F00010BD0000900000203F000020400000205B
:106A000090790008034810B5807800F05BFE012003
:106A100010BD0000900000200C4908B5C878002285
:106A2000012804D0022804D0032806D103E0002066
:106A300008BD074A00E0074A521C00230093CB8898
:106A4000897800F041FE012008BD00009000002080
:106A50003D120020410000200648C16941F40001B8
:106A6000C1614FF0E0214FF48010C1F80001FCF744
:106A70001DBA000000100240704700001B4B30B4EC
:106A80005B6800F00F0203EB0212DFF864C093684A
:106A900092890CEB4303C2F30905002205F1010CB6
:106AA000B2EB5C0F08D200BF33F8044B521C21F844
:106AB000024BB2EB5C0FF7D30107890E01F1804264
:106AC00002F5A042D2F8001C10F0800F19BF48F662
:106AD000BF70084081F440504BF68F7108BF0840EA
:106AE000C2F8000C284630BC70470000440000206B
:106AF00000600040704700007CB54048A0F12005D0
:106B00000178A0F1080411F01F0102D0012973D10E
:106B10005CE0C378394839492038394AC0788978E7
:106B2000082B69D2DFE803F06804123F6868082C7C
:106B300034482060122047E0117800295CD018B159
:106B4000314820600A203FE03048FAE712780AB95D
:106B5000012851D018B12E480090002008E02D489F
:106B6000FAE7009A137813B153881A440092401C34
:106B70008142F6D100980178E9B32060408823E093
:106B80001278C2B318B124480090002008E02348CE
:106B9000FAE7009A137813B153881A440092401C04
:106BA0008142F6D1E6E71E480090002005E0009BF8
:106BB0001A780AB11A440092401C8142F7D1009819
:106BC0000178C1B120600078019005E001A9684614
:106BD00000F02AF800280DD0A1880198814208D938
:106BE000104980B2A0800978491E084201D10120D5
:106BF000287101207CBDFFE70020FBE7900000200A
:106C0000817900082E7A0008417A0008407A00084D
:106C1000AE7A0008427A0008B07A0008AF7A00081D
:106C2000B27A00088479000830B5164A164C174B22
:106C3000D5781279212D02D0222D20D115E024788B
:106C4000A2421CD1124A1478124A12780CB9012AB5
:106C500015D042B1104A02601046104A1288104402
:106C60001860092008E00E4AF5E72078824206D134
:106C70000C4818600C4800880860012030BD0020D6
:106C800030BD0000900000208579000888000020B9
:106C90008179000873000020AE7A00082C7A000881
:106CA000427A0008087A00082A7A000870B51C4861
:106CB0001B4D0078A5F1080510F01F040AD01848F4
:106CC000A5F11801174B4A780079012C06D0022C47
:106CD00024D109E012481A3828601DE0F2B1897801
:106CE00088421BD2002015E000F08F04200605D555
:106CF00004F00F064FF48030B04001E00120A040C6
:106D00000AB922070AD18A68024207D0C96801423B
:106D1000E8D0012018802B60012070BD002070BDDC
:106D200090000020BC11002070B5294A0146A2F154
:106D30002004107810F01F031046408804D0012B67
:106D400028D0022B26D110E0012823D129B100F050
:106D5000F7F9E08840F0020005E0002000F0F0F9CB
:106D6000E08820F00200E08030E0127902F08F0627
:106D7000320605D506F00F024FF48035954001E04C
:106D80000125B54062782AB1320703D0A2682A42B1
:106D900000D008B1002070BD0D482038C06800EA5E
:106DA000050031B190B9304600F09CF9E068284305
:106DB0000BE058B12069284208D13046FFF7E8F8C7
:106DC0003046FFF797FEE068A843E060012070BD01
:106DD000900000202DE9F84F5C4F0020009038789B
:106DE00010F01F0F6FD1B8784FF000094FF0010B72
:106DF0004FF4803AA7F1200600287AD05448017851
:106E00003046C07809B901285DD008B1514C6BE01B
:106E1000514C69E06078022804D0042844D0052849
:106E200060D144E06179B87881423BD170702079BB
:106E3000B0700020494A4A4903E000BF02F80090C0
:106E4000401C0B889842F9D30125B0460BFA05F097
:106E5000D8F80810084202D02846FFF762F9D8F89F
:106E600008100AFA05F0084203D045F08000FFF749
:106E700058F96D1C102DE9D34FF00110C8E9020933
:106E80000120C8F81090FFF7F9F8E0794006B8F84B
:106E9000060002D540F0010001E020F00100A8F852
:106EA00006001FE060881EE0E07800901AE000987D
:106EB000C0B9A07800F08F05280605D505F00F01B0
:106EC0000AFA01F002E03CE00BFA05F0B168014378
:106ED0002046B160FFF786F82846FFF739F92846C3
:106EE00000F0D6F8207804442078002892D124E0DD
:106EF000FFE7C84686F8019001245D464FEA0A097B
:106F0000B16805FA04F0084202D02046FFF709F9FB
:106F1000B16809FA04F0084203D044F08000FFF79A
:106F200000F9641C102CEBD34FF00110C6E90208E5
:106F30000020C6F81080FFF7A1F8B8787178884271
:106F400002D00020BDE8F88F0120FBE79000002070
:106F500081790008AE7A0008427A000839000020E2
:106F6000827900082DE9FC5F444E00273D463078C9
:106F7000BB4600F01F00B84601287DD1A6F12001D4
:106F80004878002875D03E48BA4602780846C0784E
:106F90000AB9012870D0894608B13A4C65E03A4CEC
:106FA00063E06078022804D0042809D005285AD16B
:106FB00017E0617999F80100814254D0608853E06C
:106FC000A7783079E5784FF00008B8424BD1B07817
:106FD000A84248D12D484FF0010A10F807B0C55516
:106FE00041E03079B8423ED1A07800F08F000190A6
:106FF000000605D5019800F00F014FF4803001E044
:107000000199012088400090B078A84217D1D9F8A2
:107010000810009A20461143C9F80810D9F80C103E
:107020009143C9F80C10FEF7DDFF0198FFF790F8C7
:10703000019800F02DF8009948EA010813E05D4539
:1070400011D1009918EA010F0DD1D9F80810009A52
:107050009143C9F80810D9F80C109143C9F80C10E5
:107060000198FFF75EF8207804442078002898D132
:107070005046BDE8FC9FFFE70020FAE790000020A3
:1070800081790008AE7A0008427A000839000020B1
:107090000107890E01F1804202F5A042D2F8001CDE
:1070A00010F0800F05D048F6CF700840C2F8000CF1
:1070B00070474CF68F700840C2F8000C7047FEF71E
:1070C0000BBF10B5FFF7DCFBBDE81040FEF708BFB3
:1070D000002918BF704740F08000014908607047E0
:1070E0004C5C00400107890E01F1804202F5A0428C
:1070F000D2F8001C10F0800F07D081F0100048F685
:10710000BF710840C2F8000C704781F480504BF604
:107110008F710840C2F8000C704700000149002040
:10712000FFF7ACBC9000002000221146802000F048
:1071300009B8000001490020FFF7A0BCBC110020E5
:10714000704700002DE9F001284F054600F00F06BA
:107150007868274B00EB0610006803EB4000531CD7
:10716000012B1CD95B081AD0001F4FF0000C13F044
:10717000010F05D0B1F800C040F804CF4FF0010C6A
:107180005B080CD001EB4C045B1EB4F80080C0F827
:107190000480648840F8084F0CF1020CF2D1786842
:1071A00000EB06104260B00000F1804000F5A04006
:1071B000D0F8000C00F03000102813D02807800E03
:1071C00000F1804101F5A041D1F8000C15F0800FCD
:1071D0000EBF4BF68F7380F0300048F6BF73184037
:1071E000C1F8000CBDE8F0011046704744000020D3
:1071F000006000402DE9F05F654D2C68654F664EDC
:1072000014F4806FA5F104083BD000202860316899
:1072100000290EBF00224FF400514A0011433A6882
:10722000002A18BF4FF4007241EA020214BF4FF463
:107230008071002142EA010141F41C41C8F80010AC
:10724000574B56494FF04002186048684FF0C00352
:1072500002604FF0800282600B8048F2FF71C160D3
:1072600050494FF4485008604F48026000F074FAEB
:107270004E48016800291CBF084680476FF48060B3
:10728000286014F4006F14D0D8F8000040F0080013
:10729000C8F80000D8F8000040F00400C8F800006A
:1072A0004348016800291CBF084680476FF400600E
:1072B000286014F4805F0ED0D8F8000020F0080099
:1072C000C8F800003B48016800291CBF08468047F9
:1072D0006FF48050286014F4007F06D038680028CE
:1072E00018BF80476FF40070286014F4804F07D0F7
:1072F000306810B13168022088476FF48040286000
:1073000014F4005F07D0306810B13168012088475D
:107310006FF400502860286810F4004F08BFBDE8E3
:10732000F09F6FF40049DFF8908040F68F7A48F6BE
:107330000F7B00BFC5F8009000F00F06B00000F111
:10734000804707F5A047D7F8004C14F4004F0CD045
:1073500004EA0A00C7F8000C58F8261029B114F402
:10736000006F0CBF04200220884714F0800F09D062
:1073700004EA0B00C7F8000C58F8261000291CBFBF
:1073800008208847286810F4004FD3D1BDE8F09F4B
:10739000445C0040B0790008B47900084400002043
:1073A000505C0040005C00404C5C0040A479000848
:1073B000A8790008AC790008B879000801490120D3
:1073C000087070472000002001498860F9F786BBEB
:1073D0000000002002E008C8121F08C1002AFAD1EC
:1073E00070477047002001E001C1121F002AFBD145
:1073F00070470000FDF70CF8354EB06940F0010011
:10740000B0613448416841F080614160B06940F04A
:107410001C00B06130493148FAF7DCF83049314896
:10742000FAF7D8F8314C30492046FAF7D3F8B0696A
:1074300040F01000B061651465612D492046FAF7EF
:10744000C9F8B06940F01000B06165612949204673
:10745000FAF7C0F825614FF0E02627487061274908
:10746000F02081F8140D0020B061072030616FF02A
:107470000400FCF793FF306920F001003061656182
:1074800020491F4848600168083888470A20F9F7F2
:10749000E7FF00F051F9012000F046F800F03CF859
:1074A00038B925610A20F9F7DBFF00F035F800282C
:1074B000F7D0306940F0010030616420F9F7D0FF67
:1074C000FEF758FC00F0C0F8F8F750FEFAE70000AD
:1074D00000100240000001403C7800080008014014
:1074E00040780008000C014044780008001001407A
:1074F000087800080C7800083F771B000FE000E0D8
:10750000507800080000002010B500F08FF8BDE8AA
:107510001040FEF71FBC000002484078002800D051
:107520000120704770000020FEF7B4BD00207047B6
:1075300010B59446012802D10BB1012B01D00020D7
:1075400010BD114C2069E168884201BFA078002875
:1075500001206070F3D00D4821694FF0400200EB2C
:1075600081116046F8F7DEFD2069401C2061216929
:107570000020402908BF20612169E268914208BFCC
:10758000A070402010BD00004C000020FE22002012
:107590002DE9F04107461F4816460088824202DD69
:1075A0000020BDE8F0811C4800780028F9D01B4C71
:1075B00001224FF00008E26000E0B0B1626A12B14F
:1075C000A269002AF9D1164D3246681C2F70F8F7CF
:1075D000A9FDE5611349A4F80480B0B26080097880
:1075E00001290BD86D1CE5610AE0C4F80C80C4F8D1
:1075F0001C80A4F80480A4F80280D1E7401C6080BD
:107600000020FFF703F8084800F807800120C4F8BD
:107610000C80C6E79279000871000020D800002095
:10762000FC110020907900083E0000200548002150
:10763000017041608160012242708170C16001610E
:10764000704700004C00002070B51C4CA0686168B9
:10765000884202BF2078002870BD194DE068A268FA
:1076600005EB8011A5F5805000EB8210FAF7F8F8D1
:10767000A068401C402808BF0020A060A168626884
:107680000020914208BF2070617849B16070E068C5
:10769000402205EB80110020FFF77AFF012070BD2A
:1076A000E068401C402808BF0020E060E0682169D5
:1076B000884204BF0120A070F0E700004C000020C9
:1076C000FE22002070470000022818BF7047002BE0
:1076D00008BF704710B51078114607281DD0134C0D
:1076E000207820B16068A268904208BF10BD1048A1
:1076F000626800EB82101A46F8F714FD6068401CBF
:1077000060606068402804BF002060606068A16815
:10771000884204BF0120207010BD06480068002880
:1077200008BF10BD8068BDE8104000474C00002035
:10773000FE12002004000020054910B50020C8708A
:10774000FFF7E2FEFFF798F9BDE81040FFF784B9B4
:10775000700000207047000006484FF001120178C9
:107760000548C180002101704170C0E9022101611A
:1077700070470000807900087000002070B51D4D32
:107780000446294640F6C540FBF7A4FB0122521CE3
:10779000642AFCD3184E40F6DD403146FBF79AFBD5
:1077A0000222521C642AFCD3294640F6C540FBF74E
:1077B00091FB0221491C6429FCD3314640F6DD408F
:1077C000FBF788FB0D4814F0010F4FF0400107D084
:1077D0000B4A1160016821F0706141F0904106E0B0
:1077E000026822F0706242F0E062026005480160C7
:1077F00070BD00000CED00E00700FA05000C014030
:10780000100C0140140C0140002003100020031054
:107810000001031020000004800000040060031039
:10782000800000040060031020000310200000040A
:10783000006000048000000440000048FF87000052
:10784000FFFF000000E00000292D0008512D000876
:10785000C9730008D9010008BD730008322E302E0C
:107860003000000004020202390600000038014026
:1078700000A24A0400000000D878000800000000C0
:10788000000000000000000022002201250000008E
:10789000E0780008E87800084C1100206011002012
:1078A000390600000044004000512502F07800082D
:1078B000F878000800000000000000000000000050
:1078C0002300230026000000007900080879000842
:1078D0008411002098110020000C014007000000D6
:1078E000440002400104000058000240010500006D
:1078F00000080140020000000008014003000000F1
:1079000080000240010700006C00024001060000F8
:10791000A55A0008594700084148000829490008AD
:107920004D4800086548000859480008D14800083B
:10793000154800089D4700084D470008BD4700084E
:107940007148000865470008A55A00089D490008CD
:10795000854A00086D4B0008914A0008A94A0008B2
:107960009D4A0008154B0008594A0008E1490008E3
:1079700091490008014A0008B54A0008A9490008D1
:107980000000030040020303010040004000040027
:1079900001014000400000010202400040004000A0
:1079A00040000000BF700008000000000000000060
:1079B000C37000080000000089610008135D000822
:1079C000F55C0008F56700080000000000000000FA
:1079D00000000000000000000000000000000000A7
:1079E0000000000000000000000000000000000097
:1079F000000000000000000091600008000000008E
:107A000000000000000000000600FF0901A10115B0
:107A10000026FF0075089540090181029540090183
:107A2000910295010901B102C00021005400120128
:107A30000002EF02014083042A5700010102030102
:107A4000000009026B0003010080FA080B0002022B
:107A500002010409040000010202000405240010D0
:107A60000105240101010424020205240600010786
:107A700005810340000209040100020A0000050715
:107A800005020240000007058202400000090402CE
:107A90000002030000060921000100012221000765
:107AA00005830340000107050303400001000000B7
:107AB000000004030904220343004D005300490061
:107AC00053002D0044004100500020006200790066
:107AD0002000410052004D00140343004D005300AC
:107AE000490053002D004400410050001A033000AB
:107AF00030003000310041003000300030003000F4
:107B00003000300030001C0343004D00530049009A
:107B100053002D0044004100500020004300440069
:107B200043001C0343004D005300490053002D0047
:107B30004400410050002000440043004900140369
:107B400043004D005300490053002D004400410004
:107B500050000000747B00080000002008010000B5
:107B6000D47300087C7C000808010020F845000060
:107B7000E4730008030000000000000000000000A3
:107B800000A24A04000000000000000001020304FB
:107B900006070809000000000000000000000000C7
:107BA00000000000000000000000000000000000D5
:107BB0000000000000000000000000000060004025
:107BC00000000000000000000000000000000000B5
:107BD00000000000000000000000000000C20100E2
:107BE0000000000000000000000000000000000095
:107BF0000000000000000000000000000000000085
:107C00000000000000000000000000000000000074
:107C10000000000000000000000000000000000064
:107C20000000000000000000000000000000000054
:107C30000000000000000000000000000000000044
:107C40000000000000000000000000000000000034
:107C50000000000000000000000000000000000024
:107C60000000000000000000000000000000000014
:0C7C700000000000000000000000000008
:0400000508000101ED
:00000001FF
